{
  "contractName": "CellClockAuction",
  "abi": [
    {
      "inputs": [
        {
          "internalType": "address",
          "name": "_cellContractAddress",
          "type": "address"
        },
        {
          "internalType": "uint256",
          "name": "_ownerCut",
          "type": "uint256"
        }
      ],
      "stateMutability": "nonpayable",
      "type": "constructor"
    },
    {
      "anonymous": false,
      "inputs": [
        {
          "indexed": true,
          "internalType": "uint256",
          "name": "tokenId",
          "type": "uint256"
        },
        {
          "indexed": false,
          "internalType": "uint64",
          "name": "timestamp",
          "type": "uint64"
        }
      ],
      "name": "AuctionCancelled",
      "type": "event"
    },
    {
      "anonymous": false,
      "inputs": [
        {
          "indexed": true,
          "internalType": "uint256",
          "name": "tokenId",
          "type": "uint256"
        },
        {
          "indexed": false,
          "internalType": "uint256",
          "name": "startingPrice",
          "type": "uint256"
        },
        {
          "indexed": false,
          "internalType": "uint256",
          "name": "endingPrice",
          "type": "uint256"
        },
        {
          "indexed": false,
          "internalType": "uint256",
          "name": "duration",
          "type": "uint256"
        },
        {
          "indexed": false,
          "internalType": "uint64",
          "name": "timestamp",
          "type": "uint64"
        }
      ],
      "name": "AuctionCreated",
      "type": "event"
    },
    {
      "anonymous": false,
      "inputs": [
        {
          "indexed": true,
          "internalType": "uint256",
          "name": "tokenId",
          "type": "uint256"
        },
        {
          "indexed": false,
          "internalType": "uint256",
          "name": "salePrice",
          "type": "uint256"
        },
        {
          "indexed": true,
          "internalType": "address",
          "name": "winner",
          "type": "address"
        },
        {
          "indexed": false,
          "internalType": "uint64",
          "name": "timestamp",
          "type": "uint64"
        }
      ],
      "name": "AuctionSuccessful",
      "type": "event"
    },
    {
      "anonymous": false,
      "inputs": [
        {
          "indexed": true,
          "internalType": "bytes32",
          "name": "role",
          "type": "bytes32"
        },
        {
          "indexed": true,
          "internalType": "bytes32",
          "name": "previousAdminRole",
          "type": "bytes32"
        },
        {
          "indexed": true,
          "internalType": "bytes32",
          "name": "newAdminRole",
          "type": "bytes32"
        }
      ],
      "name": "RoleAdminChanged",
      "type": "event"
    },
    {
      "anonymous": false,
      "inputs": [
        {
          "indexed": true,
          "internalType": "bytes32",
          "name": "role",
          "type": "bytes32"
        },
        {
          "indexed": true,
          "internalType": "address",
          "name": "account",
          "type": "address"
        },
        {
          "indexed": true,
          "internalType": "address",
          "name": "sender",
          "type": "address"
        }
      ],
      "name": "RoleGranted",
      "type": "event"
    },
    {
      "anonymous": false,
      "inputs": [
        {
          "indexed": true,
          "internalType": "bytes32",
          "name": "role",
          "type": "bytes32"
        },
        {
          "indexed": true,
          "internalType": "address",
          "name": "account",
          "type": "address"
        },
        {
          "indexed": true,
          "internalType": "address",
          "name": "sender",
          "type": "address"
        }
      ],
      "name": "RoleRevoked",
      "type": "event"
    },
    {
      "stateMutability": "nonpayable",
      "type": "fallback"
    },
    {
      "inputs": [],
      "name": "DEFAULT_ADMIN_ROLE",
      "outputs": [
        {
          "internalType": "bytes32",
          "name": "",
          "type": "bytes32"
        }
      ],
      "stateMutability": "view",
      "type": "function",
      "constant": true
    },
    {
      "inputs": [],
      "name": "ROLE_CORE_CONTRACT",
      "outputs": [
        {
          "internalType": "bytes32",
          "name": "",
          "type": "bytes32"
        }
      ],
      "stateMutability": "view",
      "type": "function",
      "constant": true
    },
    {
      "inputs": [],
      "name": "ROLE_OPERATOR",
      "outputs": [
        {
          "internalType": "bytes32",
          "name": "",
          "type": "bytes32"
        }
      ],
      "stateMutability": "view",
      "type": "function",
      "constant": true
    },
    {
      "inputs": [],
      "name": "ROLE_OWNER",
      "outputs": [
        {
          "internalType": "bytes32",
          "name": "",
          "type": "bytes32"
        }
      ],
      "stateMutability": "view",
      "type": "function",
      "constant": true
    },
    {
      "inputs": [
        {
          "internalType": "uint256",
          "name": "_tokenId",
          "type": "uint256"
        }
      ],
      "name": "cancelAuction",
      "outputs": [],
      "stateMutability": "nonpayable",
      "type": "function"
    },
    {
      "inputs": [
        {
          "internalType": "uint256",
          "name": "_tokenId",
          "type": "uint256"
        },
        {
          "internalType": "uint256",
          "name": "_startingPrice",
          "type": "uint256"
        },
        {
          "internalType": "uint256",
          "name": "_endingPrice",
          "type": "uint256"
        },
        {
          "internalType": "uint256",
          "name": "_duration",
          "type": "uint256"
        },
        {
          "internalType": "address payable",
          "name": "_seller",
          "type": "address"
        }
      ],
      "name": "createAuction",
      "outputs": [],
      "stateMutability": "nonpayable",
      "type": "function"
    },
    {
      "inputs": [],
      "name": "discoveredCellSaleCount",
      "outputs": [
        {
          "internalType": "uint256",
          "name": "",
          "type": "uint256"
        }
      ],
      "stateMutability": "view",
      "type": "function",
      "constant": true
    },
    {
      "inputs": [],
      "name": "financeAccount",
      "outputs": [
        {
          "internalType": "address payable",
          "name": "",
          "type": "address"
        }
      ],
      "stateMutability": "view",
      "type": "function",
      "constant": true
    },
    {
      "inputs": [
        {
          "internalType": "uint256",
          "name": "_tokenId",
          "type": "uint256"
        }
      ],
      "name": "getAuction",
      "outputs": [
        {
          "internalType": "uint256",
          "name": "tokenId",
          "type": "uint256"
        },
        {
          "internalType": "address",
          "name": "seller",
          "type": "address"
        },
        {
          "internalType": "uint256",
          "name": "startingPrice",
          "type": "uint256"
        },
        {
          "internalType": "uint256",
          "name": "endingPrice",
          "type": "uint256"
        },
        {
          "internalType": "uint256",
          "name": "duration",
          "type": "uint256"
        },
        {
          "internalType": "uint256",
          "name": "startedAt",
          "type": "uint256"
        }
      ],
      "stateMutability": "view",
      "type": "function",
      "constant": true
    },
    {
      "inputs": [
        {
          "internalType": "uint256",
          "name": "_tokenId",
          "type": "uint256"
        }
      ],
      "name": "getCurrentPrice",
      "outputs": [
        {
          "internalType": "uint256",
          "name": "",
          "type": "uint256"
        }
      ],
      "stateMutability": "view",
      "type": "function",
      "constant": true
    },
    {
      "inputs": [
        {
          "internalType": "bytes32",
          "name": "role",
          "type": "bytes32"
        }
      ],
      "name": "getRoleAdmin",
      "outputs": [
        {
          "internalType": "bytes32",
          "name": "",
          "type": "bytes32"
        }
      ],
      "stateMutability": "view",
      "type": "function",
      "constant": true
    },
    {
      "inputs": [
        {
          "internalType": "bytes32",
          "name": "role",
          "type": "bytes32"
        },
        {
          "internalType": "uint256",
          "name": "index",
          "type": "uint256"
        }
      ],
      "name": "getRoleMember",
      "outputs": [
        {
          "internalType": "address",
          "name": "",
          "type": "address"
        }
      ],
      "stateMutability": "view",
      "type": "function",
      "constant": true
    },
    {
      "inputs": [
        {
          "internalType": "bytes32",
          "name": "role",
          "type": "bytes32"
        }
      ],
      "name": "getRoleMemberCount",
      "outputs": [
        {
          "internalType": "uint256",
          "name": "",
          "type": "uint256"
        }
      ],
      "stateMutability": "view",
      "type": "function",
      "constant": true
    },
    {
      "inputs": [
        {
          "internalType": "bytes32",
          "name": "role",
          "type": "bytes32"
        },
        {
          "internalType": "address",
          "name": "account",
          "type": "address"
        }
      ],
      "name": "grantRole",
      "outputs": [],
      "stateMutability": "nonpayable",
      "type": "function"
    },
    {
      "inputs": [
        {
          "internalType": "bytes32",
          "name": "role",
          "type": "bytes32"
        },
        {
          "internalType": "address",
          "name": "account",
          "type": "address"
        }
      ],
      "name": "hasRole",
      "outputs": [
        {
          "internalType": "bool",
          "name": "",
          "type": "bool"
        }
      ],
      "stateMutability": "view",
      "type": "function",
      "constant": true
    },
    {
      "inputs": [
        {
          "internalType": "uint256",
          "name": "",
          "type": "uint256"
        }
      ],
      "name": "lastDiscoveredCellSalePrices",
      "outputs": [
        {
          "internalType": "uint256",
          "name": "",
          "type": "uint256"
        }
      ],
      "stateMutability": "view",
      "type": "function",
      "constant": true
    },
    {
      "inputs": [
        {
          "internalType": "address",
          "name": "",
          "type": "address"
        },
        {
          "internalType": "address",
          "name": "",
          "type": "address"
        },
        {
          "internalType": "uint256",
          "name": "",
          "type": "uint256"
        },
        {
          "internalType": "bytes",
          "name": "",
          "type": "bytes"
        }
      ],
      "name": "onERC721Received",
      "outputs": [
        {
          "internalType": "bytes4",
          "name": "",
          "type": "bytes4"
        }
      ],
      "stateMutability": "nonpayable",
      "type": "function"
    },
    {
      "inputs": [],
      "name": "ownerCut",
      "outputs": [
        {
          "internalType": "uint256",
          "name": "",
          "type": "uint256"
        }
      ],
      "stateMutability": "view",
      "type": "function",
      "constant": true
    },
    {
      "inputs": [
        {
          "internalType": "bytes32",
          "name": "role",
          "type": "bytes32"
        },
        {
          "internalType": "address",
          "name": "account",
          "type": "address"
        }
      ],
      "name": "renounceRole",
      "outputs": [],
      "stateMutability": "nonpayable",
      "type": "function"
    },
    {
      "inputs": [
        {
          "internalType": "bytes32",
          "name": "role",
          "type": "bytes32"
        },
        {
          "internalType": "address",
          "name": "account",
          "type": "address"
        }
      ],
      "name": "revokeRole",
      "outputs": [],
      "stateMutability": "nonpayable",
      "type": "function"
    },
    {
      "inputs": [],
      "name": "tokenContract",
      "outputs": [
        {
          "internalType": "contract IERC721",
          "name": "",
          "type": "address"
        }
      ],
      "stateMutability": "view",
      "type": "function",
      "constant": true
    },
    {
      "inputs": [
        {
          "internalType": "address payable",
          "name": "_address",
          "type": "address"
        }
      ],
      "name": "setFinanceAccount",
      "outputs": [],
      "stateMutability": "nonpayable",
      "type": "function"
    },
    {
      "inputs": [],
      "name": "retrieveFunds",
      "outputs": [],
      "stateMutability": "nonpayable",
      "type": "function"
    },
    {
      "inputs": [
        {
          "internalType": "bytes4",
          "name": "interfaceId",
          "type": "bytes4"
        }
      ],
      "name": "supportsInterface",
      "outputs": [
        {
          "internalType": "bool",
          "name": "",
          "type": "bool"
        }
      ],
      "stateMutability": "view",
      "type": "function",
      "constant": true
    },
    {
      "inputs": [
        {
          "internalType": "uint256",
          "name": "_tokenId",
          "type": "uint256"
        }
      ],
      "name": "bid",
      "outputs": [],
      "stateMutability": "payable",
      "type": "function",
      "payable": true
    },
    {
      "inputs": [],
      "name": "averageDiscoveredCellSalePrice",
      "outputs": [
        {
          "internalType": "uint256",
          "name": "",
          "type": "uint256"
        }
      ],
      "stateMutability": "view",
      "type": "function",
      "constant": true
    }
  ],
  "bytecode": "0x60806040523480156200001157600080fd5b506040516200225e3803806200225e83398101604081905262000034916200031e565b8181612710811115620000645760405162461bcd60e51b81526004016200005b90620003cd565b60405180910390fd5b60018190556040516301ffc9a760e01b815282906001600160a01b038216906301ffc9a790620000a0906380ac58cd60e01b9060040162000381565b60206040518083038186803b158015620000b957600080fd5b505afa158015620000ce573d6000803e3d6000fd5b505050506040513d601f19601f82011682018060405250810190620000f4919062000358565b620001135760405162461bcd60e51b81526004016200005b9062000396565b600080546001600160a01b0319166001600160a01b0392909216919091179055506200016290507f9f4e1c871d5fdd0aee1cd182666698a4492b24c6832aac230d07b11046af5a893362000189565b6200016f60003362000189565b5050600580546001600160a01b0319163317905562000414565b620001a08282620001cc60201b62000aa11760201c565b6000828152600460209081526040909120620001c791839062000aab620001dc821b17901c565b505050565b620001d88282620001fc565b5050565b6000620001f3836001600160a01b03841662000288565b90505b92915050565b620002088282620002d7565b620001d85760008281526003602090815260408083206001600160a01b03851684529091529020805460ff191660011790556200024462000302565b6001600160a01b0316816001600160a01b0316837f2f8788117e7eff1d82e926ec794901d17c78024a50270940304540a733656f0d60405160405180910390a45050565b600062000296838362000306565b620002ce57508154600181810184556000848152602080822090930184905584548482528286019093526040902091909155620001f6565b506000620001f6565b60009182526003602090815260408084206001600160a01b0393909316845291905290205460ff1690565b3390565b60009081526001919091016020526040902054151590565b6000806040838503121562000331578182fd5b82516001600160a01b038116811462000348578283fd5b6020939093015192949293505050565b6000602082840312156200036a578081fd5b815180151581146200037a578182fd5b9392505050565b6001600160e01b031991909116815260200190565b6020808252601e908201527f436f6e7472616374206973206e6f74206f662074797065204552433732310000604082015260600190565b60208082526027908201527f4f776e65722061756374696f6e206375742063616e6e6f7420657863656564206040820152663130302e30302560c81b606082015260800190565b611e3a80620004246000396000f3fe6080604052600436106101815760003560e01c806383b5ff8b116100d1578063a217fddf1161008a578063ca15c87311610064578063ca15c87314610431578063d547741f14610451578063d913b71714610471578063e12f89cf1461049157610181565b8063a217fddf146103e7578063bf590610146103fc578063c55d0f561461041157610181565b806383b5ff8b146103485780638ad682af1461035d5780639010d07c1461037257806391d148541461039257806396b5a755146103b257806398a1b397146103d257610181565b80632f2ff15d1161013e578063454a2ab311610118578063454a2ab3146102cc57806355a373d6146102df57806361b20d8c1461030157806378bd79351461031657610181565b80632f2ff15d146102775780633371de581461029757806336568abe146102ac57610181565b806301ffc9a714610190578063028880af146101c6578063150b7a02146101e8578063248a9ca31461021557806327ebe40a146102355780632d5d0caf14610257575b34801561018d57600080fd5b50005b34801561019c57600080fd5b506101b06101ab366004611728565b6104a6565b6040516101bd9190611849565b60405180910390f35b3480156101d257600080fd5b506101db6104d1565b6040516101bd9190611854565b3480156101f457600080fd5b506102086102033660046115e8565b610532565b6040516101bd919061185d565b34801561022157600080fd5b506101db6102303660046116c0565b610543565b34801561024157600080fd5b50610255610250366004611750565b610558565b005b34801561026357600080fd5b506102556102723660046115cc565b610662565b34801561028357600080fd5b506102556102923660046116d8565b6106b7565b3480156102a357600080fd5b506101db6106de565b3480156102b857600080fd5b506102556102c73660046116d8565b610702565b6102556102da3660046116c0565b610724565b3480156102eb57600080fd5b506102f46107fe565b6040516101bd9190611811565b34801561030d57600080fd5b5061025561080d565b34801561032257600080fd5b506103366103313660046116c0565b610874565b6040516101bd96959493929190611b21565b34801561035457600080fd5b506101db610905565b34801561036957600080fd5b506101db61090b565b34801561037e57600080fd5b506102f461038d366004611707565b61092f565b34801561039e57600080fd5b506101b06103ad3660046116d8565b61094e565b3480156103be57600080fd5b506102556103cd3660046116c0565b610979565b3480156103de57600080fd5b506101db6109ef565b3480156103f357600080fd5b506101db610a13565b34801561040857600080fd5b506101db610a18565b34801561041d57600080fd5b506101db61042c3660046116c0565b610a1e565b34801561043d57600080fd5b506101db61044c3660046116c0565b610a5a565b34801561045d57600080fd5b5061025561046c3660046116d8565b610a71565b34801561047d57600080fd5b506101db61048c3660046116c0565b610a7b565b34801561049d57600080fd5b506102f4610a92565b60006001600160e01b0319821663025be4f960e51b14806104cb57506104cb82610ac0565b92915050565b600080805b6005811015610520576007816005811061050057634e487b7160e01b600052603260045260246000fd5b015461050c9083611be2565b91508061051881611d7b565b9150506104d6565b5061052c600582611c28565b91505090565b630a85bd0160e11b5b949350505050565b60009081526003602052604090206001015490565b836001600160801b0381106105885760405162461bcd60e51b815260040161057f9061198a565b60405180910390fd5b836001600160801b0381106105af5760405162461bcd60e51b815260040161057f9061198a565b836001600160401b038111156105d75760405162461bcd60e51b815260040161057f90611a76565b6105e13389610ae5565b6105fd5760405162461bcd60e51b815260040161057f90611a32565b6106078489610b79565b6040805160a0810182526001600160a01b03861681526001600160801b03808a1660208301528816918101919091526001600160401b038087166060830152421660808201526106578982610be3565b505050505050505050565b7f9f4e1c871d5fdd0aee1cd182666698a4492b24c6832aac230d07b11046af5a896106948161068f610d08565b610d0c565b50600580546001600160a01b0319166001600160a01b0392909216919091179055565b6106c18282610d70565b60008281526004602052604090206106d99082610aab565b505050565b7ffa3c82c7c654e0505de0c01ba5109972451a2e7ffba1730c54ba78780f64262281565b61070c8282610d8f565b60008281526004602052604090206106d99082610dd1565b6000818152600260205260408120546001600160a01b0316906107478334610de6565b90506107533384610f00565b61077d7faa3edb77f7c8cc9e38e8afe78954f703aeeda7fffe014eeb6e56ea84e62f6da78361094e565b806107ad57506107ad7ffa3c82c7c654e0505de0c01ba5109972451a2e7ffba1730c54ba78780f6426228361094e565b156106d95780600760056006546107c49190611d96565b600581106107e257634e487b7160e01b600052603260045260246000fd5b0155600680549060006107f483611d7b565b9190505550505050565b6000546001600160a01b031681565b7faa3edb77f7c8cc9e38e8afe78954f703aeeda7fffe014eeb6e56ea84e62f6da761083a8161068f610d08565b60055460405147916001600160a01b03169082156108fc029083906000818181858888f193505050501580156106d9573d6000803e3d6000fd5b60008181526002602052604081208190819081908190819061089581610f34565b6108b15760405162461bcd60e51b815260040161057f90611953565b8054600182015460029092015498996001600160a01b03909116986001600160801b038084169950600160801b90930490921696506001600160401b038083169650600160401b9092049091169350915050565b60015481565b7f9f4e1c871d5fdd0aee1cd182666698a4492b24c6832aac230d07b11046af5a8981565b60008281526004602052604081206109479083610f4d565b9392505050565b60009182526003602090815260408084206001600160a01b0393909316845291905290205460ff1690565b600081815260026020526040902061099081610f34565b6109ac5760405162461bcd60e51b815260040161057f90611953565b80546001600160a01b031633146109d55760405162461bcd60e51b815260040161057f9061191c565b80546109eb9083906001600160a01b0316610f59565b5050565b7faa3edb77f7c8cc9e38e8afe78954f703aeeda7fffe014eeb6e56ea84e62f6da781565b600081565b60065481565b6000818152600260205260408120610a3581610f34565b610a515760405162461bcd60e51b815260040161057f90611953565b61094781610f9c565b60008181526004602052604081206104cb90611012565b61070c828261101d565b60078160058110610a8b57600080fd5b0154905081565b6005546001600160a01b031681565b6109eb828261103c565b6000610947836001600160a01b0384166110c3565b60006001600160e01b03198216635a05180f60e01b14806104cb57506104cb8261110d565b600080546040516331a9108f60e11b81526001600160a01b03808616921690636352211e90610b18908690600401611854565b60206040518083038186803b158015610b3057600080fd5b505afa158015610b44573d6000803e3d6000fd5b505050506040513d601f19601f82011682018060405250810190610b6891906115b0565b6001600160a01b0316149392505050565b600054604051632142170760e11b81526001600160a01b03909116906342842e0e90610bad90859030908690600401611825565b600060405180830381600087803b158015610bc757600080fd5b505af1158015610bdb573d6000803e3d6000fd5b505050505050565b603c81606001516001600160401b03161015610c115760405162461bcd60e51b815260040161057f906119fb565b600082815260026020818152604092839020845181546001600160a01b039091166001600160a01b031990911617815590840151600182018054858701516001600160801b03908116600160801b81029482166001600160801b0319909316831790911693909317909155606086015192909301805460808701516001600160401b03818116600160401b026fffffffffffffffff0000000000000000199190961667ffffffffffffffff1990931683171694909417909155935186947f50417882ac38f5bd0dd968f4b17f72ab38a7bd228eeec270f01466a5724684b494610cfc94909392611b52565b60405180910390a25050565b3390565b610d16828261094e565b6109eb57610d2e816001600160a01b03166014611132565b610d39836020611132565b604051602001610d4a92919061179c565b60408051601f198184030181529082905262461bcd60e51b825261057f91600401611872565b610d7982610543565b610d858161068f610d08565b6106d9838361103c565b610d97610d08565b6001600160a01b0316816001600160a01b031614610dc75760405162461bcd60e51b815260040161057f90611ad2565b6109eb82826112e3565b6000610947836001600160a01b038416611368565b6000828152600260205260408120610dfd81610f34565b610e195760405162461bcd60e51b815260040161057f90611aa5565b610e2281610f9c565b915081831015610e445760405162461bcd60e51b815260040161057f906119ba565b80546001600160a01b0316610e588561147f565b8215610eb4576000610e69846114b6565b90506000610e778286611d1d565b6040519091506001600160a01b0384169082156108fc029083906000818181858888f19350505050158015610eb0573d6000803e3d6000fd5b5050505b336001600160a01b0316857f1c4536e1fbcedec577c16bd4f3325092ed3ba869e6365073a6605976e69a8e548542604051610ef0929190611b76565b60405180910390a3505092915050565b600054604051632142170760e11b81526001600160a01b03909116906342842e0e90610bad90309086908690600401611825565b60020154600160401b90046001600160401b0316151590565b600061094783836114d3565b610f628261147f565b610f6c8183610f00565b817f1fb77f61160c0e599bc81351592740fcde40f324b7eba238f736a24ce1304cb642604051610cfc9190611b8d565b60028101546000908190600160401b90046001600160401b0316421115610fdf576002830154610fdc90600160401b90046001600160401b031642611d1d565b90505b60018301546002840154610947916001600160801b0380821692600160801b90920416906001600160401b03168461152c565b60006104cb8261157b565b61102682610543565b6110328161068f610d08565b6106d983836112e3565b611046828261094e565b6109eb5760008281526003602090815260408083206001600160a01b03851684529091529020805460ff1916600117905561107f610d08565b6001600160a01b0316816001600160a01b0316837f2f8788117e7eff1d82e926ec794901d17c78024a50270940304540a733656f0d60405160405180910390a45050565b60006110cf838361157f565b611105575081546001818101845560008481526020808220909301849055845484825282860190935260409020919091556104cb565b5060006104cb565b60006001600160e01b03198216637965db0b60e01b14806104cb57506104cb82611597565b60606000611141836002611cbf565b61114c906002611be2565b6001600160401b0381111561117157634e487b7160e01b600052604160045260246000fd5b6040519080825280601f01601f19166020018201604052801561119b576020820181803683370190505b509050600360fc1b816000815181106111c457634e487b7160e01b600052603260045260246000fd5b60200101906001600160f81b031916908160001a905350600f60fb1b8160018151811061120157634e487b7160e01b600052603260045260246000fd5b60200101906001600160f81b031916908160001a9053506000611225846002611cbf565b611230906001611be2565b90505b60018111156112c4576f181899199a1a9b1b9c1cb0b131b232b360811b85600f166010811061127257634e487b7160e01b600052603260045260246000fd5b1a60f81b82828151811061129657634e487b7160e01b600052603260045260246000fd5b60200101906001600160f81b031916908160001a90535060049490941c936112bd81611d64565b9050611233565b5083156109475760405162461bcd60e51b815260040161057f906118e7565b6112ed828261094e565b156109eb5760008281526003602090815260408083206001600160a01b03851684529091529020805460ff19169055611324610d08565b6001600160a01b0316816001600160a01b0316837ff6391f5c32d9c69d2a47ea670b442974b53935d1edc7fd64eb21e047a839171b60405160405180910390a45050565b6000818152600183016020526040812054801561147557600061138c600183611d1d565b85549091506000906113a090600190611d1d565b905060008660000182815481106113c757634e487b7160e01b600052603260045260246000fd5b90600052602060002001549050808760000184815481106113f857634e487b7160e01b600052603260045260246000fd5b60009182526020808320909101929092558281526001890190915260409020849055865487908061143957634e487b7160e01b600052603160045260246000fd5b600190038181906000526020600020016000905590558660010160008781526020019081526020016000206000905560019450505050506104cb565b60009150506104cb565b6000908152600260208190526040822080546001600160a01b031916815560018101929092550180546001600160801b0319169055565b6000612710600154836114c99190611cbf565b6104cb9190611c28565b815460009082106114f65760405162461bcd60e51b815260040161057f906118a5565b82600001828154811061151957634e487b7160e01b600052603260045260246000fd5b9060005260206000200154905092915050565b600082821061153c57508261053b565b60006115488686611cde565b90506000846115578584611c3c565b6115619190611bfa565b9050600061156f8289611ba1565b98975050505050505050565b5490565b60009081526001919091016020526040902054151590565b6001600160e01b031981166301ffc9a760e01b14919050565b6000602082840312156115c1578081fd5b815161094781611dec565b6000602082840312156115dd578081fd5b813561094781611dec565b600080600080608085870312156115fd578283fd5b843561160881611dec565b9350602085013561161881611dec565b92506040850135915060608501356001600160401b038082111561163a578283fd5b818701915087601f83011261164d578283fd5b81358181111561165f5761165f611dd6565b604051601f8201601f19908116603f0116810190838211818310171561168757611687611dd6565b816040528281528a602084870101111561169f578586fd5b82602086016020830137918201602001949094529598949750929550505050565b6000602082840312156116d1578081fd5b5035919050565b600080604083850312156116ea578182fd5b8235915060208301356116fc81611dec565b809150509250929050565b60008060408385031215611719578182fd5b50508035926020909101359150565b600060208284031215611739578081fd5b81356001600160e01b031981168114610947578182fd5b600080600080600060a08688031215611767578081fd5b85359450602086013593506040860135925060608601359150608086013561178e81611dec565b809150509295509295909350565b60007f416363657373436f6e74726f6c3a206163636f756e7420000000000000000000825283516117d4816017850160208801611d34565b7001034b99036b4b9b9b4b733903937b6329607d1b6017918401918201528351611805816028840160208801611d34565b01602801949350505050565b6001600160a01b0391909116815260200190565b6001600160a01b039384168152919092166020820152604081019190915260600190565b901515815260200190565b90815260200190565b6001600160e01b031991909116815260200190565b6000602082528251806020840152611891816040850160208701611d34565b601f01601f19169190910160400192915050565b60208082526022908201527f456e756d657261626c655365743a20696e646578206f7574206f6620626f756e604082015261647360f01b606082015260800190565b6020808252818101527f537472696e67733a20686578206c656e67746820696e73756666696369656e74604082015260600190565b6020808252601c908201527f53656e646572206973206e6f74207468652061756374696f6e65657200000000604082015260600190565b60208082526017908201527f546f6b656e206973206e6f74206f6e2061756374696f6e000000000000000000604082015260600190565b60208082526016908201527556616c7565206578636565647320313238206269747360501b604082015260600190565b60208082526021908201527f42696420616d6f756e742069732062656c6f772063757272656e7420707269636040820152606560f81b606082015260800190565b60208082526018908201527f496e76616c69642061756374696f6e206475726174696f6e0000000000000000604082015260600190565b60208082526024908201527f546f6b656e206e6f74206f776e65642062792061756374696f6e20696e69746960408201526330ba37b960e11b606082015260800190565b60208082526015908201527456616c75652065786365656473203634206269747360581b604082015260600190565b60208082526013908201527241756374696f6e206973206e6f74206c69766560681b604082015260600190565b6020808252602f908201527f416363657373436f6e74726f6c3a2063616e206f6e6c792072656e6f756e636560408201526e103937b632b9903337b91039b2b63360891b606082015260800190565b9586526001600160a01b0394909416602086015260408501929092526060840152608083015260a082015260c00190565b938452602084019290925260408301526001600160401b0316606082015260800190565b9182526001600160401b0316602082015260400190565b6001600160401b0391909116815260200190565b600080821280156001600160ff1b0384900385131615611bc357611bc3611daa565b600160ff1b8390038412811615611bdc57611bdc611daa565b50500190565b60008219821115611bf557611bf5611daa565b500190565b600082611c0957611c09611dc0565b600160ff1b821460001984141615611c2357611c23611daa565b500590565b600082611c3757611c37611dc0565b500490565b60006001600160ff1b0381841382841380821686840486111615611c6257611c62611daa565b600160ff1b84871282811687830589121615611c8057611c80611daa565b858712925087820587128484161615611c9b57611c9b611daa565b87850587128184161615611cb157611cb1611daa565b505050929093029392505050565b6000816000190483118215151615611cd957611cd9611daa565b500290565b60008083128015600160ff1b850184121615611cfc57611cfc611daa565b6001600160ff1b0384018313811615611d1757611d17611daa565b50500390565b600082821015611d2f57611d2f611daa565b500390565b60005b83811015611d4f578181015183820152602001611d37565b83811115611d5e576000848401525b50505050565b600081611d7357611d73611daa565b506000190190565b6000600019821415611d8f57611d8f611daa565b5060010190565b600082611da557611da5611dc0565b500690565b634e487b7160e01b600052601160045260246000fd5b634e487b7160e01b600052601260045260246000fd5b634e487b7160e01b600052604160045260246000fd5b6001600160a01b0381168114611e0157600080fd5b5056fea2646970667358221220051ac1603429854c55c0a8ce11cf9293a6b2648ea8725f5534ba539ad289b28864736f6c63430008010033",
  "immutableReferences": {},
  "source": "// SPDX-License-Identifier: GPL-3.0-or-later\r\npragma solidity ^0.8.1;\r\n\r\nimport \"./ClockAuction.sol\";\r\nimport \"./ICellClockAuction.sol\";\r\nimport \"@openzeppelin/contracts/access/AccessControlEnumerable.sol\";\r\nimport \"@openzeppelin/contracts/utils/introspection/ERC165.sol\";\r\n\r\n/// @title Clock auction modified for sale of Cell tokens\r\ncontract CellClockAuction is ClockAuction, ERC165, AccessControlEnumerable {\r\n    bytes32 public constant ROLE_OWNER = keccak256(\"ROLE_OWNER\");\r\n    bytes32 public constant ROLE_OPERATOR = keccak256(\"ROLE_OPERATOR\");\r\n    bytes32 public constant ROLE_CORE_CONTRACT = keccak256(\"ROLE_CORE_CONTRACT\");\r\n\r\n    address payable public financeAccount;\r\n\r\n    // Tracks last 5 sale prices of newly discovered Cells\r\n    uint256 public discoveredCellSaleCount;\r\n    uint256[5] public lastDiscoveredCellSalePrices;\r\n\r\n    constructor(address _cellContractAddress, uint256 _ownerCut) ClockAuction(_cellContractAddress, _ownerCut) {\r\n        _setupRole(ROLE_OWNER, msg.sender);\r\n        _setupRole(DEFAULT_ADMIN_ROLE, msg.sender);\r\n\r\n        financeAccount = payable(msg.sender);\r\n    }\r\n\r\n    /// @param _address - Address to receive proceeds of auctions created by core contract\r\n    function setFinanceAccount(address payable _address) external onlyRole(ROLE_OWNER) {\r\n        financeAccount = _address;\r\n    }\r\n\r\n    /// @dev Allows an operator to retrieve funds from the contract into the finance account\r\n    function retrieveFunds() external onlyRole(ROLE_OPERATOR) {\r\n        uint256 balance = address(this).balance;\r\n        financeAccount.transfer(balance);\r\n    }\r\n\r\n    //introspect yourself, fool\r\n    function supportsInterface(bytes4 interfaceId) public view virtual override(ERC165, IERC165, AccessControlEnumerable) returns (bool) {\r\n        return interfaceId == type(ICellClockAuction).interfaceId || super.supportsInterface(interfaceId);\r\n    }\r\n\r\n    /// @dev Updates lastDiscoveredCellSalePrices if seller is the Cell contract\r\n    /// Otherwise, works the same as default bid method.\r\n    function bid(uint256 _tokenId) public payable override {\r\n        //store the address of the seller before the auction is removed\r\n        address seller = tokenIdToAuction[_tokenId].seller;\r\n\r\n        // _bid will 'throw' if the bid or funds transfer fails\r\n        uint256 price = _bid(_tokenId, msg.value);\r\n        _transfer(msg.sender, _tokenId);\r\n\r\n        // If this is a 'discovered Cell' auction (and the bid is successful), \r\n        // track the winning price\r\n        if (hasRole(ROLE_OPERATOR, seller) || hasRole(ROLE_CORE_CONTRACT, seller)) {\r\n            lastDiscoveredCellSalePrices[discoveredCellSaleCount % 5] = price;\r\n            discoveredCellSaleCount++;\r\n        }\r\n    }\r\n\r\n    function averageDiscoveredCellSalePrice() public view returns (uint256) {\r\n        uint256 sum = 0;\r\n        for (uint256 i = 0; i < 5; i++) {\r\n            sum += lastDiscoveredCellSalePrices[i];\r\n        }\r\n\r\n        return sum / 5;\r\n    }\r\n}",
  "sourcePath": "/home/luke/BSC-Grid/Solidity/contracts/CellClockAuction.sol",
  "compiler": {
    "name": "solc",
    "version": "0.8.1+commit.df193b15.Emscripten.clang"
  },
  "schemaVersion": "3.3.3",
  "updatedAt": "2021-06-19T21:10:23.010Z",
  "networkType": "ethereum",
  "devdoc": {
    "kind": "dev",
    "methods": {
      "bid(uint256)": {
        "details": "Updates lastDiscoveredCellSalePrices if seller is the Cell contract Otherwise, works the same as default bid method."
      },
      "cancelAuction(uint256)": {
        "details": "Cancels an auction that hasn't been won yet     Returns the token to its original owner",
        "params": {
          "_tokenId": "- ID of token on auction"
        }
      },
      "createAuction(uint256,uint256,uint256,uint256,address)": {
        "details": "Starts a new auction",
        "params": {
          "_duration": "- Length of time (in seconds) to move between the         starting price and the ending price",
          "_endingPrice": "- Final price (in wei) the auction can reach",
          "_seller": "- The listed seller for the auction (the token owner         can set someone else as the seller/beneficiary)",
          "_startingPrice": "- Starting price (in wei) at beginning of auction",
          "_tokenId": "- ID of token to auction, sender must be its owner"
        }
      },
      "getAuction(uint256)": {
        "details": "Returns the data for an auction",
        "params": {
          "_tokenId": "- ID of the token being auction"
        }
      },
      "getCurrentPrice(uint256)": {
        "details": "Returns the current price of an auction",
        "params": {
          "_tokenId": "- ID of the token on auction"
        }
      },
      "getRoleAdmin(bytes32)": {
        "details": "Returns the admin role that controls `role`. See {grantRole} and {revokeRole}. To change a role's admin, use {_setRoleAdmin}."
      },
      "getRoleMember(bytes32,uint256)": {
        "details": "Returns one of the accounts that have `role`. `index` must be a value between 0 and {getRoleMemberCount}, non-inclusive. Role bearers are not sorted in any particular way, and their ordering may change at any point. WARNING: When using {getRoleMember} and {getRoleMemberCount}, make sure you perform all queries on the same block. See the following https://forum.openzeppelin.com/t/iterating-over-elements-on-enumerableset-in-openzeppelin-contracts/2296[forum post] for more information."
      },
      "getRoleMemberCount(bytes32)": {
        "details": "Returns the number of accounts that have `role`. Can be used together with {getRoleMember} to enumerate all bearers of a role."
      },
      "grantRole(bytes32,address)": {
        "details": "Overload {grantRole} to track enumerable memberships"
      },
      "hasRole(bytes32,address)": {
        "details": "Returns `true` if `account` has been granted `role`."
      },
      "onERC721Received(address,address,uint256,bytes)": {
        "details": "See {IERC721Receiver-onERC721Received}. Always returns `IERC721Receiver.onERC721Received.selector`."
      },
      "renounceRole(bytes32,address)": {
        "details": "Overload {renounceRole} to track enumerable memberships"
      },
      "retrieveFunds()": {
        "details": "Allows an operator to retrieve funds from the contract into the finance account"
      },
      "revokeRole(bytes32,address)": {
        "details": "Overload {revokeRole} to track enumerable memberships"
      },
      "setFinanceAccount(address)": {
        "params": {
          "_address": "- Address to receive proceeds of auctions created by core contract"
        }
      }
    },
    "title": "Clock auction modified for sale of Cell tokens",
    "version": 1
  },
  "userdoc": {
    "kind": "user",
    "methods": {},
    "version": 1
  }
}