{
  "contractName": "ClockAuctionBase",
  "abi": [
    {
      "anonymous": false,
      "inputs": [
        {
          "indexed": true,
          "internalType": "uint256",
          "name": "tokenId",
          "type": "uint256"
        },
        {
          "indexed": false,
          "internalType": "uint64",
          "name": "timestamp",
          "type": "uint64"
        }
      ],
      "name": "AuctionCancelled",
      "type": "event"
    },
    {
      "anonymous": false,
      "inputs": [
        {
          "indexed": true,
          "internalType": "uint256",
          "name": "tokenId",
          "type": "uint256"
        },
        {
          "indexed": false,
          "internalType": "uint256",
          "name": "startingPrice",
          "type": "uint256"
        },
        {
          "indexed": false,
          "internalType": "uint256",
          "name": "endingPrice",
          "type": "uint256"
        },
        {
          "indexed": false,
          "internalType": "uint256",
          "name": "duration",
          "type": "uint256"
        },
        {
          "indexed": false,
          "internalType": "uint64",
          "name": "timestamp",
          "type": "uint64"
        }
      ],
      "name": "AuctionCreated",
      "type": "event"
    },
    {
      "anonymous": false,
      "inputs": [
        {
          "indexed": true,
          "internalType": "uint256",
          "name": "tokenId",
          "type": "uint256"
        },
        {
          "indexed": false,
          "internalType": "uint256",
          "name": "salePrice",
          "type": "uint256"
        },
        {
          "indexed": true,
          "internalType": "address",
          "name": "winner",
          "type": "address"
        },
        {
          "indexed": false,
          "internalType": "uint64",
          "name": "timestamp",
          "type": "uint64"
        }
      ],
      "name": "AuctionSuccessful",
      "type": "event"
    },
    {
      "stateMutability": "nonpayable",
      "type": "fallback"
    },
    {
      "inputs": [
        {
          "internalType": "address",
          "name": "",
          "type": "address"
        },
        {
          "internalType": "address",
          "name": "",
          "type": "address"
        },
        {
          "internalType": "uint256",
          "name": "",
          "type": "uint256"
        },
        {
          "internalType": "bytes",
          "name": "",
          "type": "bytes"
        }
      ],
      "name": "onERC721Received",
      "outputs": [
        {
          "internalType": "bytes4",
          "name": "",
          "type": "bytes4"
        }
      ],
      "stateMutability": "nonpayable",
      "type": "function"
    },
    {
      "inputs": [],
      "name": "ownerCut",
      "outputs": [
        {
          "internalType": "uint256",
          "name": "",
          "type": "uint256"
        }
      ],
      "stateMutability": "view",
      "type": "function"
    },
    {
      "inputs": [],
      "name": "tokenContract",
      "outputs": [
        {
          "internalType": "contract IERC721",
          "name": "",
          "type": "address"
        }
      ],
      "stateMutability": "view",
      "type": "function"
    }
  ],
  "bytecode": "0x608060405234801561001057600080fd5b5061022a806100206000396000f3fe608060405234801561001057600080fd5b50600436106100415760003560e01c8063150b7a021461004357806355a373d61461006c57806383b5ff8b14610081575b005b6100566100513660046100d7565b610096565b60405161006391906101ac565b60405180910390f35b6100746100a6565b60405161006391906101c1565b6100896100b5565b60405161006391906101d5565b630a85bd0160e11b949350505050565b6000546001600160a01b031681565b60015481565b80356001600160a01b03811681146100d257600080fd5b919050565b600080600080608085870312156100ec578384fd5b6100f5856100bb565b9350610103602086016100bb565b925060408501359150606085013567ffffffffffffffff80821115610126578283fd5b818701915087601f830112610139578283fd5b81358181111561014b5761014b6101de565b604051601f8201601f19908116603f01168101908382118183101715610173576101736101de565b816040528281528a602084870101111561018b578586fd5b82602086016020830137918201602001949094529598949750929550505050565b6001600160e01b031991909116815260200190565b6001600160a01b0391909116815260200190565b90815260200190565b634e487b7160e01b600052604160045260246000fdfea2646970667358221220fdd0604f48202790942e21264755948fcb53222348a375ff2503fd5b8081158d64736f6c63430008010033",
  "immutableReferences": {},
  "source": "// SPDX-License-Identifier: GPL-3.0-or-later\r\npragma solidity ^0.8.1;\r\n\r\nimport \"@openzeppelin/contracts/token/ERC721/IERC721.sol\";\r\nimport \"@openzeppelin/contracts/token/ERC721/utils/ERC721Holder.sol\";\r\n\r\n/// @title Base auction functionality lovingly borrowed from CryptoKitties\r\n/// @author Axiom Zen (https://www.axiomzen.co)\r\ncontract ClockAuctionBase is ERC721Holder {\r\n    // Represents an auction for a NonFungibleToken\r\n    struct Auction {\r\n        // Current owner of the token\r\n        address payable seller;\r\n\r\n        // Price (in wei) at beginning of auction\r\n        uint128 startingPrice;\r\n\r\n        // Price (in wei) at end of auction\r\n        uint128 endingPrice;\r\n\r\n        // Duration (in seconds) of auction\r\n        uint64 duration;\r\n\r\n        // Timestamp for when the auction started\r\n        // NOTE: will be set to 0 if this auction has ended\r\n        uint64 startedAt;\r\n    }\r\n\r\n    //Generic interface for any ERC721 token contract\r\n    IERC721 public tokenContract;\r\n\r\n    // Cut owner takes on each auction, measured in basis points (1/100 of a percent).\r\n    // Values 0-10000 map to 0%-100%\r\n    uint256 public ownerCut;\r\n\r\n    // Map from a token ID to its corresponding auction\r\n    mapping (uint256 => Auction) tokenIdToAuction;\r\n\r\n    // We will broadcast an event with every important auction action that occurs\r\n    event AuctionCreated(uint256 indexed tokenId, uint256 startingPrice, uint256 endingPrice, uint256 duration, uint64 timestamp);\r\n    event AuctionSuccessful(uint256 indexed tokenId, uint256 salePrice, address indexed winner, uint64 timestamp);\r\n    event AuctionCancelled(uint256 indexed tokenId, uint64 timestamp);\r\n\r\n    /// We don't want someone to be able to accidentally send funds to this contract so we \r\n    /// ensure the fallback function is not payable\r\n    fallback() external {}\r\n\r\n    // Modifiers to check that inputs can be safely stored with a certain\r\n    // number of bits. We use constants and multiple modifiers to save gas.\r\n    modifier canBeStoredWith64Bits(uint256 _value) {\r\n        require(_value <= 18446744073709551615, \"Value exceeds 64 bits\");\r\n        _;\r\n    }\r\n\r\n    modifier canBeStoredWith128Bits(uint256 _value) {\r\n        require(_value < 340282366920938463463374607431768211455, \"Value exceeds 128 bits\");\r\n        _;\r\n    }\r\n\r\n    /// @dev Returns true if the claimant owns the token\r\n    /// @param _claimant - Address claiming to own the token\r\n    /// @param _tokenId - ID of token requiring ownership verification\r\n    function _senderOwnsToken(address _claimant, uint256 _tokenId) internal view returns (bool) {\r\n        return (tokenContract.ownerOf(_tokenId) == _claimant);\r\n    }\r\n\r\n    /// @dev Escrow the token being auctioned by assigning ownership to this contract\r\n    /// Throws if the escrow fails.\r\n    /// @param _owner - Current owner of token to be escrowed\r\n    /// @param _tokenId - ID of token to be escrowed\r\n    function _escrow(address _owner, uint256 _tokenId) internal {\r\n        // This call will 'throw' if the escrow transfer fails\r\n        tokenContract.safeTransferFrom(_owner, address(this), _tokenId);\r\n    }\r\n\r\n    /// @dev Transfer a token owned by this contract to another address (either the auction \r\n    ///      winner or the original owner)\r\n    /// Returns true if the transfer succeeds.\r\n    /// @param _receiver - Address to transfer NFT to.\r\n    /// @param _tokenId - ID of token to transfer.\r\n    function _transfer(address _receiver, uint256 _tokenId) internal {\r\n        // This call will 'throw' if the transfer fails\r\n        tokenContract.safeTransferFrom(address(this), _receiver, _tokenId);\r\n    }\r\n\r\n    /// @dev Adds an auction to the list of open auctions. \r\n    ///      Also fires the AuctionCreated event.\r\n    /// @param _tokenId The ID of the token to be auctioned\r\n    /// @param _auction Auction data object\r\n    function _addAuction(uint256 _tokenId, Auction memory _auction) internal {\r\n        // Require that all auctions have a duration of\r\n        // at least one minute. (Keeps our math from getting hairy!)\r\n        require(_auction.duration >= 1 minutes, \"Invalid auction duration\");\r\n\r\n        tokenIdToAuction[_tokenId] = _auction;\r\n        \r\n        emit AuctionCreated(\r\n            uint256(_tokenId),\r\n            uint256(_auction.startingPrice),\r\n            uint256(_auction.endingPrice),\r\n            uint256(_auction.duration),\r\n            uint64(_auction.startedAt)\r\n        );\r\n    }\r\n\r\n    /// @dev Cancels an auction (unconditionally)\r\n    function _cancelAuction(uint256 _tokenId, address _seller) internal {\r\n        _removeAuction(_tokenId);\r\n        _transfer(_seller, _tokenId);\r\n        emit AuctionCancelled(_tokenId, uint64(block.timestamp));\r\n    }\r\n\r\n    /// @dev Compute the current price and transfer proceeds\r\n    /// This function does NOT transfer ownership of token\r\n    function _bid(uint256 _tokenId, uint256 _bidAmount) internal returns (uint256 _price) {\r\n        // Get a reference to the auction struct\r\n        Auction storage auction = tokenIdToAuction[_tokenId];\r\n\r\n        // Explicitly check that this auction is currently live.\r\n        // (Because of how Ethereum mappings work, we can't just count\r\n        // on the lookup above failing. An invalid _tokenId will just\r\n        // return an auction object that is all zeros.)\r\n        require(_isOnAuction(auction), \"Auction is not live\");\r\n\r\n        // Check that the incoming bid is higher than the current price\r\n        _price = _currentPrice(auction);\r\n        require(_bidAmount >= _price, \"Bid amount is below current price\");\r\n\r\n        // Store the seller address before the auction struct is deleted\r\n        address payable _seller = auction.seller;\r\n\r\n        // The bid is good! Remove the auction before sending the fees\r\n        // to the sender so we can't have a re-entrancy attack.\r\n        _removeAuction(_tokenId);\r\n\r\n        // Transfer proceeds to the seller (if there are any!)\r\n        if (_price > 0) {\r\n            // Calculate the auctioneer's cut\r\n            // (NOTE: _computeCut() is guaranteed to return a\r\n            // value <= price, so this subtraction can't go negative.)\r\n            uint256 _auctioneerCut = _computeCut(_price);\r\n            uint256 _sellerProceeds = _price - _auctioneerCut;\r\n\r\n            // NOTE: Doing a transfer() in the middle of a complex\r\n            // method like this is generally discouraged because of\r\n            // re-entrancy attacks and DoS attacks if the seller is\r\n            // a contract with an invalid fallback function. We explicitly\r\n            // guard against re-entrancy attacks by removing the auction\r\n            // before calling transfer(), and the only thing the seller\r\n            // can DoS is the sale of their own asset! (And if it's an\r\n            // accident, they can call cancelAuction().)\r\n            _seller.transfer(_sellerProceeds);\r\n        }\r\n\r\n        // The auctioneer yells 'Going, going, gone!'\r\n        emit AuctionSuccessful(_tokenId, _price, msg.sender, uint64(block.timestamp));\r\n\r\n        return _price;\r\n    }\r\n\r\n    /// @dev Remove an auction from the list of open auctions\r\n    /// @param _tokenId - ID of the token on auction\r\n    function _removeAuction(uint256 _tokenId) internal {\r\n        delete tokenIdToAuction[_tokenId];\r\n    }\r\n\r\n    /// @dev Check if the token is currently on auction\r\n    /// Returns true if it is\r\n    /// @param _auction - Auction to check\r\n    function _isOnAuction(Auction storage _auction) internal view returns (bool) {\r\n        return (_auction.startedAt > 0);\r\n    }\r\n\r\n    /// @dev Return current auction price. \r\n    ///  Broken into two functions: (this one, that computes the duration \r\n    ///  from the auction struct, and the other that does the price computation) \r\n    ///  so we can easily test that the price computation works correctly.\r\n    function _currentPrice(Auction storage _auction) internal view returns (uint256) {\r\n        uint256 _secondsPassed = 0;\r\n        \r\n        // A bit of insurance against negative values (or wraparound).\r\n        // Probably not necessary (since Ethereum guarantees that the\r\n        // now variable doesn't ever go backwards).\r\n        if (block.timestamp > _auction.startedAt) {\r\n            _secondsPassed = block.timestamp - _auction.startedAt;\r\n        }\r\n\r\n        return _computeCurrentPrice(\r\n            _auction.startingPrice,\r\n            _auction.endingPrice,\r\n            _auction.duration,\r\n            _secondsPassed\r\n        );\r\n    }\r\n\r\n    /// @dev Computes the current price of an auction. Factored out\r\n    ///  from _currentPrice so we can run extensive unit tests.\r\n    ///  When testing, make this function public and turn on\r\n    ///  `Current price computation` test suite.\r\n    function _computeCurrentPrice(\r\n        uint256 _startingPrice, \r\n        uint256 _endingPrice, \r\n        uint256 _duration, \r\n        uint256 _secondsPassed\r\n    ) internal pure returns (uint256) {\r\n        // NOTE: We don't use SafeMath (or similar) in this function because\r\n        //  all of our public functions carefully cap the maximum values for\r\n        //  time (at 64-bits) and currency (at 128-bits). _duration is\r\n        //  also known to be non-zero (see the require() statement in\r\n        //  _addAuction())\r\n        if (_secondsPassed >= _duration) {\r\n            // We've reached the end of the dynamic pricing portion\r\n            // of the auction, just return the end price.\r\n            return _endingPrice;\r\n        }\r\n        \r\n        // Starting price can be higher than ending price, so\r\n        // this delta can be negative.\r\n        int256 totalPriceChange = int256(_endingPrice) - int256(_startingPrice);\r\n        \r\n        // This multiplication can't overflow, _secondsPassed will easily fit within\r\n        // 64-bits, and totalPriceChange will easily fit within 128-bits, their product\r\n        // will always fit within 256-bits.\r\n        int256 currentPriceChange = totalPriceChange * int256(_secondsPassed) / int256(_duration);\r\n        \r\n        // currentPriceChange can be negative, but if so, will have a magnitude\r\n        // less that _startingPrice. Thus, this result will always end up positive.\r\n        int256 currentPrice = int256(_startingPrice) + currentPriceChange;\r\n        \r\n        return uint256(currentPrice);\r\n    }\r\n\r\n    /// @dev Computes owner's cut of a sale\r\n    /// @param _price - Sale price of the token\r\n    function _computeCut(uint256 _price) internal view returns (uint256) {\r\n        // NOTE: We don't use SafeMath (or similar) in this function because\r\n        //  all of our entry functions carefully cap the maximum values for\r\n        //  currency (at 128-bits), and ownerCut <= 10000 (see the require()\r\n        //  statement in the ClockAuction constructor). The result of this\r\n        //  function is always guaranteed to be <= _price.\r\n        return _price * ownerCut / 10000;\r\n    }\r\n}",
  "sourcePath": "/home/luke/BSC-Grid/Solidity/contracts/ClockAuctionBase.sol",
  "compiler": {
    "name": "solc",
    "version": "0.8.1+commit.df193b15.Emscripten.clang"
  },
  "schemaVersion": "3.3.4",
  "updatedAt": "2021-06-18T19:07:47.537Z",
  "devdoc": {
    "author": "Axiom Zen (https://www.axiomzen.co)",
    "kind": "dev",
    "methods": {
      "onERC721Received(address,address,uint256,bytes)": {
        "details": "See {IERC721Receiver-onERC721Received}. Always returns `IERC721Receiver.onERC721Received.selector`."
      }
    },
    "title": "Base auction functionality lovingly borrowed from CryptoKitties",
    "version": 1
  },
  "userdoc": {
    "kind": "user",
    "methods": {},
    "version": 1
  }
}