{
  "contractName": "CoreAccess",
  "abi": [
    {
      "inputs": [],
      "stateMutability": "nonpayable",
      "type": "constructor"
    },
    {
      "anonymous": false,
      "inputs": [
        {
          "indexed": true,
          "internalType": "bytes32",
          "name": "role",
          "type": "bytes32"
        },
        {
          "indexed": true,
          "internalType": "bytes32",
          "name": "previousAdminRole",
          "type": "bytes32"
        },
        {
          "indexed": true,
          "internalType": "bytes32",
          "name": "newAdminRole",
          "type": "bytes32"
        }
      ],
      "name": "RoleAdminChanged",
      "type": "event"
    },
    {
      "anonymous": false,
      "inputs": [
        {
          "indexed": true,
          "internalType": "bytes32",
          "name": "role",
          "type": "bytes32"
        },
        {
          "indexed": true,
          "internalType": "address",
          "name": "account",
          "type": "address"
        },
        {
          "indexed": true,
          "internalType": "address",
          "name": "sender",
          "type": "address"
        }
      ],
      "name": "RoleGranted",
      "type": "event"
    },
    {
      "anonymous": false,
      "inputs": [
        {
          "indexed": true,
          "internalType": "bytes32",
          "name": "role",
          "type": "bytes32"
        },
        {
          "indexed": true,
          "internalType": "address",
          "name": "account",
          "type": "address"
        },
        {
          "indexed": true,
          "internalType": "address",
          "name": "sender",
          "type": "address"
        }
      ],
      "name": "RoleRevoked",
      "type": "event"
    },
    {
      "inputs": [],
      "name": "DEFAULT_ADMIN_ROLE",
      "outputs": [
        {
          "internalType": "bytes32",
          "name": "",
          "type": "bytes32"
        }
      ],
      "stateMutability": "view",
      "type": "function"
    },
    {
      "inputs": [],
      "name": "ROLE_OPERATOR",
      "outputs": [
        {
          "internalType": "bytes32",
          "name": "",
          "type": "bytes32"
        }
      ],
      "stateMutability": "view",
      "type": "function"
    },
    {
      "inputs": [],
      "name": "ROLE_OWNER",
      "outputs": [
        {
          "internalType": "bytes32",
          "name": "",
          "type": "bytes32"
        }
      ],
      "stateMutability": "view",
      "type": "function"
    },
    {
      "inputs": [
        {
          "internalType": "bytes32",
          "name": "role",
          "type": "bytes32"
        }
      ],
      "name": "getRoleAdmin",
      "outputs": [
        {
          "internalType": "bytes32",
          "name": "",
          "type": "bytes32"
        }
      ],
      "stateMutability": "view",
      "type": "function"
    },
    {
      "inputs": [
        {
          "internalType": "bytes32",
          "name": "role",
          "type": "bytes32"
        },
        {
          "internalType": "uint256",
          "name": "index",
          "type": "uint256"
        }
      ],
      "name": "getRoleMember",
      "outputs": [
        {
          "internalType": "address",
          "name": "",
          "type": "address"
        }
      ],
      "stateMutability": "view",
      "type": "function"
    },
    {
      "inputs": [
        {
          "internalType": "bytes32",
          "name": "role",
          "type": "bytes32"
        }
      ],
      "name": "getRoleMemberCount",
      "outputs": [
        {
          "internalType": "uint256",
          "name": "",
          "type": "uint256"
        }
      ],
      "stateMutability": "view",
      "type": "function"
    },
    {
      "inputs": [
        {
          "internalType": "bytes32",
          "name": "role",
          "type": "bytes32"
        },
        {
          "internalType": "address",
          "name": "account",
          "type": "address"
        }
      ],
      "name": "grantRole",
      "outputs": [],
      "stateMutability": "nonpayable",
      "type": "function"
    },
    {
      "inputs": [
        {
          "internalType": "bytes32",
          "name": "role",
          "type": "bytes32"
        },
        {
          "internalType": "address",
          "name": "account",
          "type": "address"
        }
      ],
      "name": "hasRole",
      "outputs": [
        {
          "internalType": "bool",
          "name": "",
          "type": "bool"
        }
      ],
      "stateMutability": "view",
      "type": "function"
    },
    {
      "inputs": [
        {
          "internalType": "bytes32",
          "name": "role",
          "type": "bytes32"
        },
        {
          "internalType": "address",
          "name": "account",
          "type": "address"
        }
      ],
      "name": "renounceRole",
      "outputs": [],
      "stateMutability": "nonpayable",
      "type": "function"
    },
    {
      "inputs": [
        {
          "internalType": "bytes32",
          "name": "role",
          "type": "bytes32"
        },
        {
          "internalType": "address",
          "name": "account",
          "type": "address"
        }
      ],
      "name": "revokeRole",
      "outputs": [],
      "stateMutability": "nonpayable",
      "type": "function"
    },
    {
      "inputs": [
        {
          "internalType": "bytes4",
          "name": "interfaceId",
          "type": "bytes4"
        }
      ],
      "name": "supportsInterface",
      "outputs": [
        {
          "internalType": "bool",
          "name": "",
          "type": "bool"
        }
      ],
      "stateMutability": "view",
      "type": "function"
    }
  ],
  "bytecode": "0x60806040523480156200001157600080fd5b506200003e7f9f4e1c871d5fdd0aee1cd182666698a4492b24c6832aac230d07b11046af5a893362000051565b6200004b60003362000051565b620001e2565b6200006882826200009460201b620002cf1760201c565b60008281526001602090815260409091206200008f918390620002dd620000a4821b17901c565b505050565b620000a08282620000c4565b5050565b6000620000bb836001600160a01b0384166200014e565b90505b92915050565b620000d082826200019d565b620000a0576000828152602081815260408083206001600160a01b03851684529091529020805460ff191660011790556200010a620001c6565b6001600160a01b0316816001600160a01b0316837f2f8788117e7eff1d82e926ec794901d17c78024a50270940304540a733656f0d60405160405180910390a45050565b60006200015c8383620001ca565b6200019457508154600181810184556000848152602080822090930184905584548482528286019093526040902091909155620000be565b506000620000be565b6000918252602082815260408084206001600160a01b0393909316845291905290205460ff1690565b3390565b60009081526001919091016020526040902054151590565b610bf480620001f26000396000f3fe608060405234801561001057600080fd5b50600436106100a95760003560e01c80639010d07c116100715780639010d07c1461012757806391d148541461014757806398a1b3971461015a578063a217fddf14610162578063ca15c8731461016a578063d547741f1461017d576100a9565b806301ffc9a7146100ae578063248a9ca3146100d75780632f2ff15d146100f757806336568abe1461010c5780638ad682af1461011f575b600080fd5b6100c16100bc366004610955565b610190565b6040516100ce9190610a06565b60405180910390f35b6100ea6100e53660046108e2565b6101bb565b6040516100ce9190610a11565b61010a6101053660046108fa565b6101d0565b005b61010a61011a3660046108fa565b6101f7565b6100ea610219565b61013a610135366004610934565b61023d565b6040516100ce91906109f2565b6100c16101553660046108fa565b61025c565b6100ea610285565b6100ea6102a9565b6100ea6101783660046108e2565b6102ae565b61010a61018b3660046108fa565b6102c5565b60006001600160e01b03198216635a05180f60e01b14806101b557506101b5826102f2565b92915050565b60009081526020819052604090206001015490565b6101da8282610317565b60008281526001602052604090206101f290826102dd565b505050565b610201828261033b565b60008281526001602052604090206101f29082610386565b7f9f4e1c871d5fdd0aee1cd182666698a4492b24c6832aac230d07b11046af5a8981565b6000828152600160205260408120610255908361039b565b9392505050565b6000918252602082815260408084206001600160a01b0393909316845291905290205460ff1690565b7faa3edb77f7c8cc9e38e8afe78954f703aeeda7fffe014eeb6e56ea84e62f6da781565b600081565b60008181526001602052604081206101b5906103a7565b61020182826103b2565b6102d982826103d1565b5050565b6000610255836001600160a01b038416610456565b60006001600160e01b03198216637965db0b60e01b14806101b557506101b5826104a0565b610320826101bb565b6103318161032c6104b9565b6104bd565b6101f283836103d1565b6103436104b9565b6001600160a01b0316816001600160a01b03161461037c5760405162461bcd60e51b815260040161037390610ac4565b60405180910390fd5b6102d98282610521565b6000610255836001600160a01b0384166105a4565b600061025583836106bb565b60006101b582610714565b6103bb826101bb565b6103c78161032c6104b9565b6101f28383610521565b6103db828261025c565b6102d9576000828152602081815260408083206001600160a01b03851684529091529020805460ff191660011790556104126104b9565b6001600160a01b0316816001600160a01b0316837f2f8788117e7eff1d82e926ec794901d17c78024a50270940304540a733656f0d60405160405180910390a45050565b60006104628383610718565b610498575081546001818101845560008481526020808220909301849055845484825282860190935260409020919091556101b5565b5060006101b5565b6001600160e01b031981166301ffc9a760e01b14919050565b3390565b6104c7828261025c565b6102d9576104df816001600160a01b03166014610730565b6104ea836020610730565b6040516020016104fb92919061097d565b60408051601f198184030181529082905262461bcd60e51b825261037391600401610a1a565b61052b828261025c565b156102d9576000828152602081815260408083206001600160a01b03851684529091529020805460ff191690556105606104b9565b6001600160a01b0316816001600160a01b0316837ff6391f5c32d9c69d2a47ea670b442974b53935d1edc7fd64eb21e047a839171b60405160405180910390a45050565b600081815260018301602052604081205480156106b15760006105c8600183610b4a565b85549091506000906105dc90600190610b4a565b9050600086600001828154811061060357634e487b7160e01b600052603260045260246000fd5b906000526020600020015490508087600001848154811061063457634e487b7160e01b600052603260045260246000fd5b60009182526020808320909101929092558281526001890190915260409020849055865487908061067557634e487b7160e01b600052603160045260246000fd5b600190038181906000526020600020016000905590558660010160008781526020019081526020016000206000905560019450505050506101b5565b60009150506101b5565b815460009082106106de5760405162461bcd60e51b815260040161037390610a4d565b82600001828154811061070157634e487b7160e01b600052603260045260246000fd5b9060005260206000200154905092915050565b5490565b60009081526001919091016020526040902054151590565b6060600061073f836002610b2b565b61074a906002610b13565b67ffffffffffffffff81111561077057634e487b7160e01b600052604160045260246000fd5b6040519080825280601f01601f19166020018201604052801561079a576020820181803683370190505b509050600360fc1b816000815181106107c357634e487b7160e01b600052603260045260246000fd5b60200101906001600160f81b031916908160001a905350600f60fb1b8160018151811061080057634e487b7160e01b600052603260045260246000fd5b60200101906001600160f81b031916908160001a9053506000610824846002610b2b565b61082f906001610b13565b90505b60018111156108c3576f181899199a1a9b1b9c1cb0b131b232b360811b85600f166010811061087157634e487b7160e01b600052603260045260246000fd5b1a60f81b82828151811061089557634e487b7160e01b600052603260045260246000fd5b60200101906001600160f81b031916908160001a90535060049490941c936108bc81610b91565b9050610832565b5083156102555760405162461bcd60e51b815260040161037390610a8f565b6000602082840312156108f3578081fd5b5035919050565b6000806040838503121561090c578081fd5b8235915060208301356001600160a01b0381168114610929578182fd5b809150509250929050565b60008060408385031215610946578182fd5b50508035926020909101359150565b600060208284031215610966578081fd5b81356001600160e01b031981168114610255578182fd5b60007f416363657373436f6e74726f6c3a206163636f756e7420000000000000000000825283516109b5816017850160208801610b61565b7001034b99036b4b9b9b4b733903937b6329607d1b60179184019182015283516109e6816028840160208801610b61565b01602801949350505050565b6001600160a01b0391909116815260200190565b901515815260200190565b90815260200190565b6000602082528251806020840152610a39816040850160208701610b61565b601f01601f19169190910160400192915050565b60208082526022908201527f456e756d657261626c655365743a20696e646578206f7574206f6620626f756e604082015261647360f01b606082015260800190565b6020808252818101527f537472696e67733a20686578206c656e67746820696e73756666696369656e74604082015260600190565b6020808252602f908201527f416363657373436f6e74726f6c3a2063616e206f6e6c792072656e6f756e636560408201526e103937b632b9903337b91039b2b63360891b606082015260800190565b60008219821115610b2657610b26610ba8565b500190565b6000816000190483118215151615610b4557610b45610ba8565b500290565b600082821015610b5c57610b5c610ba8565b500390565b60005b83811015610b7c578181015183820152602001610b64565b83811115610b8b576000848401525b50505050565b600081610ba057610ba0610ba8565b506000190190565b634e487b7160e01b600052601160045260246000fdfea26469706673582212201a7da0f242afdcd7bc92ce95d3b1e070d15a37d08d09471e0bc52e3b455131a664736f6c63430008010033",
  "immutableReferences": {},
  "source": "// SPDX-License-Identifier: GPL-3.0-or-later\npragma solidity ^0.8.1;\n\nimport \"@openzeppelin/contracts/access/AccessControlEnumerable.sol\";\n\ncontract CoreAccess is AccessControlEnumerable {\n    bytes32 public constant ROLE_OWNER = keccak256(\"ROLE_OWNER\");\n    bytes32 public constant ROLE_OPERATOR = keccak256(\"ROLE_OPERATOR\");\n\n    constructor() {\n        _setupRole(ROLE_OWNER, msg.sender);\n        _setupRole(DEFAULT_ADMIN_ROLE, msg.sender);\n    }\n}",
  "sourcePath": "/home/luke/BSC-Grid/Solidity/contracts/CoreAccess.sol",
  "compiler": {
    "name": "solc",
    "version": "0.8.1+commit.df193b15.Emscripten.clang"
  },
  "schemaVersion": "3.3.4",
  "updatedAt": "2021-05-16T19:07:25.685Z",
  "devdoc": {
    "kind": "dev",
    "methods": {
      "getRoleAdmin(bytes32)": {
        "details": "Returns the admin role that controls `role`. See {grantRole} and {revokeRole}. To change a role's admin, use {_setRoleAdmin}."
      },
      "getRoleMember(bytes32,uint256)": {
        "details": "Returns one of the accounts that have `role`. `index` must be a value between 0 and {getRoleMemberCount}, non-inclusive. Role bearers are not sorted in any particular way, and their ordering may change at any point. WARNING: When using {getRoleMember} and {getRoleMemberCount}, make sure you perform all queries on the same block. See the following https://forum.openzeppelin.com/t/iterating-over-elements-on-enumerableset-in-openzeppelin-contracts/2296[forum post] for more information."
      },
      "getRoleMemberCount(bytes32)": {
        "details": "Returns the number of accounts that have `role`. Can be used together with {getRoleMember} to enumerate all bearers of a role."
      },
      "grantRole(bytes32,address)": {
        "details": "Overload {grantRole} to track enumerable memberships"
      },
      "hasRole(bytes32,address)": {
        "details": "Returns `true` if `account` has been granted `role`."
      },
      "renounceRole(bytes32,address)": {
        "details": "Overload {renounceRole} to track enumerable memberships"
      },
      "revokeRole(bytes32,address)": {
        "details": "Overload {revokeRole} to track enumerable memberships"
      },
      "supportsInterface(bytes4)": {
        "details": "See {IERC165-supportsInterface}."
      }
    },
    "version": 1
  },
  "userdoc": {
    "kind": "user",
    "methods": {},
    "version": 1
  }
}