{
  "contractName": "CoreCellControls",
  "abi": [
    {
      "inputs": [],
      "stateMutability": "nonpayable",
      "type": "constructor"
    },
    {
      "anonymous": false,
      "inputs": [
        {
          "indexed": true,
          "internalType": "bytes32",
          "name": "role",
          "type": "bytes32"
        },
        {
          "indexed": true,
          "internalType": "bytes32",
          "name": "previousAdminRole",
          "type": "bytes32"
        },
        {
          "indexed": true,
          "internalType": "bytes32",
          "name": "newAdminRole",
          "type": "bytes32"
        }
      ],
      "name": "RoleAdminChanged",
      "type": "event"
    },
    {
      "anonymous": false,
      "inputs": [
        {
          "indexed": true,
          "internalType": "bytes32",
          "name": "role",
          "type": "bytes32"
        },
        {
          "indexed": true,
          "internalType": "address",
          "name": "account",
          "type": "address"
        },
        {
          "indexed": true,
          "internalType": "address",
          "name": "sender",
          "type": "address"
        }
      ],
      "name": "RoleGranted",
      "type": "event"
    },
    {
      "anonymous": false,
      "inputs": [
        {
          "indexed": true,
          "internalType": "bytes32",
          "name": "role",
          "type": "bytes32"
        },
        {
          "indexed": true,
          "internalType": "address",
          "name": "account",
          "type": "address"
        },
        {
          "indexed": true,
          "internalType": "address",
          "name": "sender",
          "type": "address"
        }
      ],
      "name": "RoleRevoked",
      "type": "event"
    },
    {
      "inputs": [],
      "name": "DEFAULT_ADMIN_ROLE",
      "outputs": [
        {
          "internalType": "bytes32",
          "name": "",
          "type": "bytes32"
        }
      ],
      "stateMutability": "view",
      "type": "function"
    },
    {
      "inputs": [],
      "name": "ROLE_OPERATOR",
      "outputs": [
        {
          "internalType": "bytes32",
          "name": "",
          "type": "bytes32"
        }
      ],
      "stateMutability": "view",
      "type": "function"
    },
    {
      "inputs": [],
      "name": "ROLE_OWNER",
      "outputs": [
        {
          "internalType": "bytes32",
          "name": "",
          "type": "bytes32"
        }
      ],
      "stateMutability": "view",
      "type": "function"
    },
    {
      "inputs": [],
      "name": "cellClockAuctionContract",
      "outputs": [
        {
          "internalType": "contract ICellClockAuction",
          "name": "",
          "type": "address"
        }
      ],
      "stateMutability": "view",
      "type": "function"
    },
    {
      "inputs": [],
      "name": "cellContract",
      "outputs": [
        {
          "internalType": "contract IGridCell",
          "name": "",
          "type": "address"
        }
      ],
      "stateMutability": "view",
      "type": "function"
    },
    {
      "inputs": [],
      "name": "discoveredCellMinPrice",
      "outputs": [
        {
          "internalType": "uint256",
          "name": "",
          "type": "uint256"
        }
      ],
      "stateMutability": "view",
      "type": "function"
    },
    {
      "inputs": [
        {
          "internalType": "bytes32",
          "name": "role",
          "type": "bytes32"
        }
      ],
      "name": "getRoleAdmin",
      "outputs": [
        {
          "internalType": "bytes32",
          "name": "",
          "type": "bytes32"
        }
      ],
      "stateMutability": "view",
      "type": "function"
    },
    {
      "inputs": [
        {
          "internalType": "bytes32",
          "name": "role",
          "type": "bytes32"
        },
        {
          "internalType": "uint256",
          "name": "index",
          "type": "uint256"
        }
      ],
      "name": "getRoleMember",
      "outputs": [
        {
          "internalType": "address",
          "name": "",
          "type": "address"
        }
      ],
      "stateMutability": "view",
      "type": "function"
    },
    {
      "inputs": [
        {
          "internalType": "bytes32",
          "name": "role",
          "type": "bytes32"
        }
      ],
      "name": "getRoleMemberCount",
      "outputs": [
        {
          "internalType": "uint256",
          "name": "",
          "type": "uint256"
        }
      ],
      "stateMutability": "view",
      "type": "function"
    },
    {
      "inputs": [
        {
          "internalType": "bytes32",
          "name": "role",
          "type": "bytes32"
        },
        {
          "internalType": "address",
          "name": "account",
          "type": "address"
        }
      ],
      "name": "grantRole",
      "outputs": [],
      "stateMutability": "nonpayable",
      "type": "function"
    },
    {
      "inputs": [
        {
          "internalType": "bytes32",
          "name": "role",
          "type": "bytes32"
        },
        {
          "internalType": "address",
          "name": "account",
          "type": "address"
        }
      ],
      "name": "hasRole",
      "outputs": [
        {
          "internalType": "bool",
          "name": "",
          "type": "bool"
        }
      ],
      "stateMutability": "view",
      "type": "function"
    },
    {
      "inputs": [
        {
          "internalType": "bytes32",
          "name": "role",
          "type": "bytes32"
        },
        {
          "internalType": "address",
          "name": "account",
          "type": "address"
        }
      ],
      "name": "renounceRole",
      "outputs": [],
      "stateMutability": "nonpayable",
      "type": "function"
    },
    {
      "inputs": [
        {
          "internalType": "bytes32",
          "name": "role",
          "type": "bytes32"
        },
        {
          "internalType": "address",
          "name": "account",
          "type": "address"
        }
      ],
      "name": "revokeRole",
      "outputs": [],
      "stateMutability": "nonpayable",
      "type": "function"
    },
    {
      "inputs": [
        {
          "internalType": "bytes4",
          "name": "interfaceId",
          "type": "bytes4"
        }
      ],
      "name": "supportsInterface",
      "outputs": [
        {
          "internalType": "bool",
          "name": "",
          "type": "bool"
        }
      ],
      "stateMutability": "view",
      "type": "function"
    },
    {
      "inputs": [
        {
          "internalType": "address",
          "name": "_address",
          "type": "address"
        }
      ],
      "name": "setCellContractAddress",
      "outputs": [],
      "stateMutability": "nonpayable",
      "type": "function"
    },
    {
      "inputs": [
        {
          "internalType": "address",
          "name": "_address",
          "type": "address"
        }
      ],
      "name": "setCellClockAuctionContractAddress",
      "outputs": [],
      "stateMutability": "nonpayable",
      "type": "function"
    },
    {
      "inputs": [],
      "name": "discoverCell",
      "outputs": [],
      "stateMutability": "nonpayable",
      "type": "function"
    },
    {
      "inputs": [
        {
          "internalType": "uint256",
          "name": "_properties",
          "type": "uint256"
        },
        {
          "internalType": "uint8",
          "name": "_initialTeam",
          "type": "uint8"
        },
        {
          "internalType": "address",
          "name": "_owner",
          "type": "address"
        }
      ],
      "name": "createSpecialCell",
      "outputs": [
        {
          "internalType": "uint256",
          "name": "",
          "type": "uint256"
        }
      ],
      "stateMutability": "nonpayable",
      "type": "function"
    },
    {
      "inputs": [
        {
          "internalType": "uint256",
          "name": "_cellId",
          "type": "uint256"
        }
      ],
      "name": "getCellData",
      "outputs": [
        {
          "internalType": "int32[2]",
          "name": "coordinates",
          "type": "int32[2]"
        },
        {
          "internalType": "address",
          "name": "owner",
          "type": "address"
        },
        {
          "internalType": "uint8",
          "name": "team",
          "type": "uint8"
        },
        {
          "internalType": "uint8",
          "name": "grade",
          "type": "uint8"
        },
        {
          "internalType": "uint8",
          "name": "stake",
          "type": "uint8"
        }
      ],
      "stateMutability": "view",
      "type": "function"
    }
  ],
  "bytecode": "0x608060405267016345785d8a00006002553480156200001d57600080fd5b506200004a7f9f4e1c871d5fdd0aee1cd182666698a4492b24c6832aac230d07b11046af5a89336200005d565b620000576000336200005d565b620001ee565b620000748282620000a060201b62000c1a1760201c565b60008281526001602090815260409091206200009b91839062000c28620000b0821b17901c565b505050565b620000ac8282620000d0565b5050565b6000620000c7836001600160a01b0384166200015a565b90505b92915050565b620000dc8282620001a9565b620000ac576000828152602081815260408083206001600160a01b03851684529091529020805460ff1916600117905562000116620001d2565b6001600160a01b0316816001600160a01b0316837f2f8788117e7eff1d82e926ec794901d17c78024a50270940304540a733656f0d60405160405180910390a45050565b6000620001688383620001d6565b620001a057508154600181810184556000848152602080822090930184905584548482528286019093526040902091909155620000ca565b506000620000ca565b6000918252602082815260408084206001600160a01b0393909316845291905290205460ff1690565b3390565b60009081526001919091016020526040902054151590565b611acf80620001fe6000396000f3fe608060405234801561001057600080fd5b50600436106101215760003560e01c806391d14854116100ad578063d40a7a0911610071578063d40a7a0914610247578063d547741f1461024f578063dddc9dae14610262578063e6de8ac414610275578063ea5d7dee1461027d57610121565b806391d14854146101fe57806398a1b39714610211578063a217fddf14610219578063ad152cb414610221578063ca15c8731461023457610121565b806336568abe116100f457806336568abe146101995780636e42a03f146101ac578063804578fc146101d05780638ad682af146101e35780639010d07c146101eb57610121565b806301ffc9a71461012657806316c180291461014f578063248a9ca3146101645780632f2ff15d14610184575b600080fd5b61013961013436600461141b565b610285565b6040516101469190611684565b60405180910390f35b6101576102b2565b60405161014691906115f8565b6101776101723660046113b3565b6102c1565b604051610146919061168f565b6101976101923660046113cb565b6102d6565b005b6101976101a73660046113cb565b6102fd565b6101bf6101ba3660046113b3565b61031f565b604051610146959493929190611625565b6101776101de366004611518565b6104fb565b6101776105e8565b6101576101f93660046113fa565b61060c565b61013961020c3660046113cb565b61062d565b610177610656565b61017761067a565b61019761022f366004611377565b61067f565b6101776102423660046113b3565b610771565b610157610788565b61019761025d3660046113cb565b610797565b610197610270366004611377565b6107a1565b610177610893565b610197610899565b60006001600160e01b03198216635a05180f60e01b14806102aa57506102aa82610c3d565b90505b919050565b6004546001600160a01b031681565b60009081526020819052604090206001015490565b6102e08282610c62565b60008281526001602052604090206102f89082610c28565b505050565b6103078282610c81565b60008281526001602052604090206102f89082610cc3565b610327611331565b6003546000908190819081906001600160a01b03166103615760405162461bcd60e51b8152600401610358906117bc565b60405180910390fd5b600354604051631034247b60e11b81526000916001600160a01b03169063206848f690610392908a9060040161168f565b60c06040518083038186803b1580156103aa57600080fd5b505afa1580156103be573d6000803e3d6000fd5b505050506040513d601f19601f820116820180604052508101906103e2919061145b565b60035460405163a727854960e01b8152959c50939a509850965092506001600160a01b03169063a72785499061041e908a9085906004016115ea565b60206040518083038186803b15801561043657600080fd5b505afa15801561044a573d6000803e3d6000fd5b505050506040513d601f19601f8201168201806040525081019061046e9190611559565b600354604051637bbe0db760e01b81529194506001600160a01b031690637bbe0db79061049f90869060040161194a565b60206040518083038186803b1580156104b757600080fd5b505afa1580156104cb573d6000803e3d6000fd5b505050506040513d601f19601f820116820180604052508101906104ef9190611559565b91505091939590929450565b60007faa3edb77f7c8cc9e38e8afe78954f703aeeda7fffe014eeb6e56ea84e62f6da761052f8161052a610cd8565b610cdc565b6003546001600160a01b03166105575760405162461bcd60e51b8152600401610358906117bc565b60035460405163b408b35560e01b81526000916001600160a01b03169063b408b3559061058c90899089908990600401611928565b602060405180830381600087803b1580156105a657600080fd5b505af11580156105ba573d6000803e3d6000fd5b505050506040513d601f19601f820116820180604052508101906105de9190611443565b9695505050505050565b7f9f4e1c871d5fdd0aee1cd182666698a4492b24c6832aac230d07b11046af5a8981565b60008281526001602052604081206106249083610d40565b90505b92915050565b6000918252602082815260408084206001600160a01b0393909316845291905290205460ff1690565b7faa3edb77f7c8cc9e38e8afe78954f703aeeda7fffe014eeb6e56ea84e62f6da781565b600081565b7f9f4e1c871d5fdd0aee1cd182666698a4492b24c6832aac230d07b11046af5a896106ac8161052a610cd8565b6040516301ffc9a760e01b815282906001600160a01b038216906301ffc9a7906106e1906347b4a94d60e01b90600401611698565b60206040518083038186803b1580156106f957600080fd5b505afa15801561070d573d6000803e3d6000fd5b505050506040513d601f19601f820116820180604052508101906107319190611393565b61074d5760405162461bcd60e51b815260040161035890611757565b600380546001600160a01b0319166001600160a01b03929092169190911790555050565b60008181526001602052604081206102aa90610d4c565b6003546001600160a01b031681565b6103078282610d57565b7f9f4e1c871d5fdd0aee1cd182666698a4492b24c6832aac230d07b11046af5a896107ce8161052a610cd8565b6040516301ffc9a760e01b815282906001600160a01b038216906301ffc9a7906108039063025be4f960e51b90600401611698565b60206040518083038186803b15801561081b57600080fd5b505afa15801561082f573d6000803e3d6000fd5b505050506040513d601f19601f820116820180604052508101906108539190611393565b61086f5760405162461bcd60e51b815260040161035890611865565b600480546001600160a01b0319166001600160a01b03929092169190911790555050565b60025481565b7faa3edb77f7c8cc9e38e8afe78954f703aeeda7fffe014eeb6e56ea84e62f6da76108c68161052a610cd8565b6003546001600160a01b03166108ee5760405162461bcd60e51b8152600401610358906117bc565b6004546001600160a01b03166109165760405162461bcd60e51b81526004016103589061181c565b600354604080516318160ddd60e01b815290516000926001600160a01b0316916318160ddd916004808301926020929190829003018186803b15801561095b57600080fd5b505afa15801561096f573d6000803e3d6000fd5b505050506040513d601f19601f820116820180604052508101906109939190611443565b90506000600842836040516020016109ac9291906115ea565b6040516020818303038152906040528051906020012060001c6109cf9190611a1c565b60035460405163b408b35560e01b81529192506000916001600160a01b039091169063b408b35590610a0990849086903090600401611928565b602060405180830381600087803b158015610a2357600080fd5b505af1158015610a37573d6000803e3d6000fd5b505050506040513d601f19601f82011682018060405250810190610a5b9190611443565b905082610a6781611a01565b93505060008060e1851115610a8a57610a7e610d76565b91506002549050610b12565b8460011415610aa3576703782dace9d900009150610b0f565b60098511610abb57674563918244f400009150610b0f565b60198511610ad3576729a2241af62c00009150610b0f565b60318511610aeb576714d1120d7b1600009150610b0f565b60518511610b0357670a688906bd8b00009150610b0f565b6706f05b59d3b2000091505b50805b6003546004805460405163095ea7b360e01b81526001600160a01b039384169363095ea7b393610b48939091169188910161160c565b600060405180830381600087803b158015610b6257600080fd5b505af1158015610b76573d6000803e3d6000fd5b50505050600082118015610b8a5750600081115b610ba65760405162461bcd60e51b81526004016103589061178c565b600480546040516313f5f20560e11b81526001600160a01b03909116916327ebe40a91610be09187918791879162093a80913091016118fc565b600060405180830381600087803b158015610bfa57600080fd5b505af1158015610c0e573d6000803e3d6000fd5b50505050505050505050565b610c248282610e88565b5050565b6000610624836001600160a01b038416610f0d565b60006001600160e01b03198216637965db0b60e01b14806102aa57506102aa82610f57565b610c6b826102c1565b610c778161052a610cd8565b6102f88383610e88565b610c89610cd8565b6001600160a01b0316816001600160a01b031614610cb95760405162461bcd60e51b8152600401610358906118ad565b610c248282610f70565b6000610624836001600160a01b038416610ff3565b3390565b610ce6828261062d565b610c2457610cfe816001600160a01b0316601461110a565b610d0983602061110a565b604051602001610d1a929190611575565b60408051601f198184030181529082905262461bcd60e51b8252610358916004016116ad565b600061062483836112bc565b60006102aa82611315565b610d60826102c1565b610d6c8161052a610cd8565b6102f88383610f70565b6004546000906001600160a01b0316610da15760405162461bcd60e51b81526004016103589061181c565b6000600460009054906101000a90046001600160a01b03166001600160a01b031663028880af6040518163ffffffff1660e01b815260040160206040518083038186803b158015610df157600080fd5b505afa158015610e05573d6000803e3d6000fd5b505050506040513d601f19601f82011682018060405250810190610e299190611443565b90506fffffffffffffffffffffffffffffffff8110610e5a5760405162461bcd60e51b8152600401610358906117f3565b6000610e67600283611970565b610e719083611958565b9050600254811015610e8257506002545b91505090565b610e92828261062d565b610c24576000828152602081815260408083206001600160a01b03851684529091529020805460ff19166001179055610ec9610cd8565b6001600160a01b0316816001600160a01b0316837f2f8788117e7eff1d82e926ec794901d17c78024a50270940304540a733656f0d60405160405180910390a45050565b6000610f198383611319565b610f4f57508154600181810184556000848152602080822090930184905584548482528286019093526040902091909155610627565b506000610627565b6001600160e01b031981166301ffc9a760e01b14919050565b610f7a828261062d565b15610c24576000828152602081815260408083206001600160a01b03851684529091529020805460ff19169055610faf610cd8565b6001600160a01b0316816001600160a01b0316837ff6391f5c32d9c69d2a47ea670b442974b53935d1edc7fd64eb21e047a839171b60405160405180910390a45050565b600081815260018301602052604081205480156111005760006110176001836119a3565b855490915060009061102b906001906119a3565b9050600086600001828154811061105257634e487b7160e01b600052603260045260246000fd5b906000526020600020015490508087600001848154811061108357634e487b7160e01b600052603260045260246000fd5b6000918252602080832090910192909255828152600189019091526040902084905586548790806110c457634e487b7160e01b600052603160045260246000fd5b60019003818190600052602060002001600090559055866001016000878152602001908152602001600020600090556001945050505050610627565b6000915050610627565b60606000611119836002611984565b611124906002611958565b67ffffffffffffffff81111561114a57634e487b7160e01b600052604160045260246000fd5b6040519080825280601f01601f191660200182016040528015611174576020820181803683370190505b509050600360fc1b8160008151811061119d57634e487b7160e01b600052603260045260246000fd5b60200101906001600160f81b031916908160001a905350600f60fb1b816001815181106111da57634e487b7160e01b600052603260045260246000fd5b60200101906001600160f81b031916908160001a90535060006111fe846002611984565b611209906001611958565b90505b600181111561129d576f181899199a1a9b1b9c1cb0b131b232b360811b85600f166010811061124b57634e487b7160e01b600052603260045260246000fd5b1a60f81b82828151811061126f57634e487b7160e01b600052603260045260246000fd5b60200101906001600160f81b031916908160001a90535060049490941c93611296816119ea565b905061120c565b5083156106245760405162461bcd60e51b815260040161035890611722565b815460009082106112df5760405162461bcd60e51b8152600401610358906116e0565b82600001828154811061130257634e487b7160e01b600052603260045260246000fd5b9060005260206000200154905092915050565b5490565b60009081526001919091016020526040902054151590565b60405180604001604052806002906020820280368337509192915050565b80516102ad81611a72565b8051600381900b81146102ad57600080fd5b80516102ad81611a8a565b600060208284031215611388578081fd5b813561062481611a72565b6000602082840312156113a4578081fd5b81518015158114610624578182fd5b6000602082840312156113c4578081fd5b5035919050565b600080604083850312156113dd578081fd5b8235915060208301356113ef81611a72565b809150509250929050565b6000806040838503121561140c578182fd5b50508035926020909101359150565b60006020828403121561142c578081fd5b81356001600160e01b031981168114610624578182fd5b600060208284031215611454578081fd5b5051919050565b600080600080600060c08688031215611472578081fd5b85519450602087603f880112611486578182fd5b6040516040810181811067ffffffffffffffff821117156114a9576114a9611a5c565b6040528088830160608a018b8111156114c0578586fd5b855b60028110156114e6576114d48361135a565b845292850192918501916001016114c2565b50519297509195506114fe925050506080870161136c565b915061150c60a0870161134f565b90509295509295909350565b60008060006060848603121561152c578283fd5b83359250602084013561153e81611a8a565b9150604084013561154e81611a72565b809150509250925092565b60006020828403121561156a578081fd5b815161062481611a8a565b60007f416363657373436f6e74726f6c3a206163636f756e7420000000000000000000825283516115ad8160178501602088016119ba565b7001034b99036b4b9b9b4b733903937b6329607d1b60179184019182015283516115de8160288401602088016119ba565b01602801949350505050565b918252602082015260400190565b6001600160a01b0391909116815260200190565b6001600160a01b03929092168252602082015260400190565b60c08101818760005b600281101561165057815160030b83526020928301929091019060010161162e565b5050506001600160a01b0395909516604082015260ff9384166060820152918316608083015290911660a090910152919050565b901515815260200190565b90815260200190565b6001600160e01b031991909116815260200190565b60006020825282518060208401526116cc8160408501602087016119ba565b601f01601f19169190910160400192915050565b60208082526022908201527f456e756d657261626c655365743a20696e646578206f7574206f6620626f756e604082015261647360f01b606082015260800190565b6020808252818101527f537472696e67733a20686578206c656e67746820696e73756666696369656e74604082015260600190565b6020808252818101527f436f6e7472616374206973206e6f74206f662074797065204772696443656c6c604082015260600190565b602080825260169082015275496e76616c69642061756374696f6e2070726963657360501b604082015260600190565b6020808252601d908201527f63656c6c436f6e747261637420686173206e6f74206265656e20736574000000604082015260600190565b6020808252600f908201526e507269636520697320696e73616e6560881b604082015260600190565b60208082526029908201527f63656c6c436c6f636b41756374696f6e436f6e747261637420686173206e6f74604082015268081899595b881cd95d60ba1b606082015260800190565b60208082526028908201527f436f6e7472616374206973206e6f74206f6620747970652043656c6c436c6f6360408201526735a0bab1ba34b7b760c11b606082015260800190565b6020808252602f908201527f416363657373436f6e74726f6c3a2063616e206f6e6c792072656e6f756e636560408201526e103937b632b9903337b91039b2b63360891b606082015260800190565b9485526020850193909352604084019190915260608301526001600160a01b0316608082015260a00190565b92835260ff9190911660208301526001600160a01b0316604082015260600190565b60ff91909116815260200190565b6000821982111561196b5761196b611a30565b500190565b60008261197f5761197f611a46565b500490565b600081600019048311821515161561199e5761199e611a30565b500290565b6000828210156119b5576119b5611a30565b500390565b60005b838110156119d55781810151838201526020016119bd565b838111156119e4576000848401525b50505050565b6000816119f9576119f9611a30565b506000190190565b6000600019821415611a1557611a15611a30565b5060010190565b600082611a2b57611a2b611a46565b500690565b634e487b7160e01b600052601160045260246000fd5b634e487b7160e01b600052601260045260246000fd5b634e487b7160e01b600052604160045260246000fd5b6001600160a01b0381168114611a8757600080fd5b50565b60ff81168114611a8757600080fdfea2646970667358221220346bf5be88288073498a2e4bee575d480a269d303c6f9a2fac2130e38961f7c664736f6c63430008010033",
  "immutableReferences": {},
  "source": "// SPDX-License-Identifier: GPL-3.0-or-later\r\npragma solidity ^0.8.1;\r\n\r\nimport \"./CoreAccess.sol\";\r\nimport \"./IGridCell.sol\";\r\nimport \"./ICellClockAuction.sol\";\r\n\r\ncontract CoreCellControls is CoreAccess {\r\n    uint public discoveredCellMinPrice = 1e17 wei; //0.1 ETH\r\n\r\n    /// @dev The address of the GridCell contract that holds the data for all CELLs\r\n    IGridCell public cellContract;\r\n\r\n    /// @dev The address of the ClockAuction contract that handles sales of CELLs.\r\n    ///  This contract handles both peer-to-peer sales as well as the 'discovered CELL' sales\r\n    ICellClockAuction public cellClockAuctionContract;\r\n\r\n    constructor() { }\r\n\r\n    /// @dev Sets the reference to the CELL token contract\r\n    /// @param _address - Address of the contract\r\n    function setCellContractAddress(address _address) external onlyRole(ROLE_OWNER) {\r\n        IGridCell _candidateContract = IGridCell(_address);\r\n\r\n        require(\r\n            _candidateContract.supportsInterface(type(IGridCell).interfaceId),\r\n            \"Contract is not of type GridCell\"\r\n        );\r\n\r\n        // Set the new contract address\r\n        cellContract = _candidateContract;\r\n    }\r\n\r\n    /// @dev Sets the reference to the Cell clock auction contract\r\n    /// @param _address - Address of the contract\r\n    function setCellClockAuctionContractAddress(address _address) external onlyRole(ROLE_OWNER) {\r\n        ICellClockAuction _candidateContract = ICellClockAuction(_address);\r\n\r\n        require(\r\n            _candidateContract.supportsInterface(type(ICellClockAuction).interfaceId),\r\n            \"Contract is not of type CellClockAuction\"\r\n        );\r\n\r\n        // Set the new contract address\r\n        cellClockAuctionContract = _candidateContract;\r\n    }\r\n\r\n    /// @dev 'Discover' (create) a new CELL token (tile) on The Grid, spiraling outwards from [0,0]\r\n    /// Discovered CELL tokens are immediately put up for auction\r\n    /// The auction price decreases over 7 days, unless it was in the first 225 tiles, which have fixed prices\r\n    function discoverCell() public onlyRole(ROLE_OPERATOR) {\r\n        require(address(cellContract) != address(0), \"cellContract has not been set\");\r\n        require(address(cellClockAuctionContract) != address(0), \"cellClockAuctionContract has not been set\");\r\n\r\n        //get the current total number of CELLs\r\n        uint _gridSize = cellContract.totalSupply();\r\n\r\n        //assign teams in a random fashion\r\n        uint8 _initialTeam = uint8(uint256(keccak256(abi.encodePacked(block.timestamp, _gridSize))) % 8);\r\n\r\n        //create the new CELL\r\n        uint _cellId = cellContract.createCell(uint256(0), _initialTeam, address(this));\r\n\r\n        //use the new total CELL count\r\n        _gridSize++;\r\n\r\n        //now figure out what the auction prices are for this CELL\r\n        uint _startingPrice;\r\n        uint _endingPrice;\r\n\r\n        if (_gridSize > 225) {\r\n            _startingPrice = _getNextDiscoveredCellPrice();\r\n            _endingPrice = discoveredCellMinPrice;\r\n        } else {\r\n            //centre of the world\r\n            if (_gridSize == 1) {\r\n                _startingPrice = 25e16 wei; //TEST VALUE\r\n                //_startingPrice = 15 ether;\r\n            //Cell within the second central cartographical square\r\n            } else if (_gridSize <= 9) {\r\n                _startingPrice = 5 ether;\r\n            //Cell within the third central cartographical square\r\n            } else if (_gridSize <= 25) {\r\n                _startingPrice = 3 ether;\r\n            //Cell within the fourth central cartographical square\r\n            } else if (_gridSize <= 49) {\r\n                _startingPrice = 15e17 wei; //1.5 ETH\r\n            //Cell within the fifth central cartographical square\r\n            } else if (_gridSize <= 81) {\r\n                _startingPrice = 75e16 wei; //0.75 ETH\r\n            //Cell within the sixth central cartographical square\r\n            } else {\r\n                _startingPrice = 5e17 wei; //0.5 ETH\r\n            }\r\n\r\n            //price is fixed for these special tiles\r\n            _endingPrice = _startingPrice;\r\n        }\r\n\r\n        //transfer ownership of the CELL to the auction contract\r\n        cellContract.approve(address(cellClockAuctionContract), _cellId);\r\n\r\n        require(_startingPrice > 0 && _endingPrice > 0, \"Invalid auction prices\");\r\n\r\n        //start the auction\r\n        cellClockAuctionContract.createAuction(_cellId, _startingPrice, _endingPrice, 7 days, payable(address(this)));\r\n    }\r\n\r\n    /// @dev Create a new CELL token in the Grid, with specific properties\r\n    /// This special cell may be immediately transferred to a specific owner\r\n    /// This function should only be called very rarely (giveaway competitions etc.)\r\n    /// @param _properties - A predefined properties string for the CELL\r\n    /// @param _initialTeam - ID of the new CELL's team\r\n    /// @param _owner - Address of the new CELL's owner\r\n    function createSpecialCell(uint _properties, uint8 _initialTeam, address _owner) public onlyRole(ROLE_OPERATOR) returns (uint) {\r\n        require(address(cellContract) != address(0), \"cellContract has not been set\");\r\n\r\n        uint _cellId = cellContract.createCell(_properties, _initialTeam, _owner);\r\n\r\n        return _cellId;\r\n    }\r\n\r\n    /// @dev Get the properties of a given Cell\r\n    function getCellData(uint _cellId) public view returns (\r\n            int32[2] memory coordinates, \r\n            address owner, \r\n            uint8 team, \r\n            uint8 grade, \r\n            uint8 stake\r\n        ) {\r\n        require(address(cellContract) != address(0), \"cellContract has not been set\");\r\n\r\n        uint256 _properties;\r\n        (_cellId, coordinates, _properties, team, owner) = cellContract.getCell(_cellId);\r\n\r\n        //set a default grade then check if this Cell is special\r\n        grade = cellContract.getCellGrade(_cellId, _properties);\r\n        stake = cellContract.getStake(grade);\r\n\r\n        return (coordinates, owner, team, grade, stake);\r\n    }\r\n\r\n    /// @dev Figure out the starting sale price for the next discovered Cell\r\n    /// The starting price will be equal to 150% of the average of the last 5 sold\r\n    function _getNextDiscoveredCellPrice() internal view returns (uint) {\r\n        require(address(cellClockAuctionContract) != address(0), \"cellClockAuctionContract has not been set\");\r\n        \r\n        uint _averagePrice = cellClockAuctionContract.averageDiscoveredCellSalePrice();\r\n\r\n        // sanity check to ensure we don't overflow arithmetic (this big number is 2^128-1).\r\n        require(_averagePrice < 340282366920938463463374607431768211455, \"Price is insane\");\r\n\r\n        uint256 _nextPrice = _averagePrice + (_averagePrice / 2);\r\n\r\n        // We never auction for less than starting price\r\n        if (_nextPrice < discoveredCellMinPrice) {\r\n            _nextPrice = discoveredCellMinPrice;\r\n        }\r\n\r\n        return _nextPrice;\r\n    }\r\n}",
  "sourcePath": "/home/luke/BSC-Grid/Solidity/contracts/CoreCellControls.sol",
  "compiler": {
    "name": "solc",
    "version": "0.8.1+commit.df193b15.Emscripten.clang"
  },
  "schemaVersion": "3.3.4",
  "updatedAt": "2021-05-25T22:30:16.599Z",
  "devdoc": {
    "kind": "dev",
    "methods": {
      "createSpecialCell(uint256,uint8,address)": {
        "details": "Create a new CELL token in the Grid, with specific properties This special cell may be immediately transferred to a specific owner This function should only be called very rarely (giveaway competitions etc.)",
        "params": {
          "_initialTeam": "- ID of the new CELL's team",
          "_owner": "- Address of the new CELL's owner",
          "_properties": "- A predefined properties string for the CELL"
        }
      },
      "discoverCell()": {
        "details": "'Discover' (create) a new CELL token (tile) on The Grid, spiraling outwards from [0,0] Discovered CELL tokens are immediately put up for auction The auction price decreases over 7 days, unless it was in the first 225 tiles, which have fixed prices"
      },
      "getCellData(uint256)": {
        "details": "Get the properties of a given Cell"
      },
      "getRoleAdmin(bytes32)": {
        "details": "Returns the admin role that controls `role`. See {grantRole} and {revokeRole}. To change a role's admin, use {_setRoleAdmin}."
      },
      "getRoleMember(bytes32,uint256)": {
        "details": "Returns one of the accounts that have `role`. `index` must be a value between 0 and {getRoleMemberCount}, non-inclusive. Role bearers are not sorted in any particular way, and their ordering may change at any point. WARNING: When using {getRoleMember} and {getRoleMemberCount}, make sure you perform all queries on the same block. See the following https://forum.openzeppelin.com/t/iterating-over-elements-on-enumerableset-in-openzeppelin-contracts/2296[forum post] for more information."
      },
      "getRoleMemberCount(bytes32)": {
        "details": "Returns the number of accounts that have `role`. Can be used together with {getRoleMember} to enumerate all bearers of a role."
      },
      "grantRole(bytes32,address)": {
        "details": "Overload {grantRole} to track enumerable memberships"
      },
      "hasRole(bytes32,address)": {
        "details": "Returns `true` if `account` has been granted `role`."
      },
      "renounceRole(bytes32,address)": {
        "details": "Overload {renounceRole} to track enumerable memberships"
      },
      "revokeRole(bytes32,address)": {
        "details": "Overload {revokeRole} to track enumerable memberships"
      },
      "setCellClockAuctionContractAddress(address)": {
        "details": "Sets the reference to the Cell clock auction contract",
        "params": {
          "_address": "- Address of the contract"
        }
      },
      "setCellContractAddress(address)": {
        "details": "Sets the reference to the CELL token contract",
        "params": {
          "_address": "- Address of the contract"
        }
      },
      "supportsInterface(bytes4)": {
        "details": "See {IERC165-supportsInterface}."
      }
    },
    "stateVariables": {
      "cellClockAuctionContract": {
        "details": "The address of the ClockAuction contract that handles sales of CELLs.  This contract handles both peer-to-peer sales as well as the 'discovered CELL' sales"
      },
      "cellContract": {
        "details": "The address of the GridCell contract that holds the data for all CELLs"
      }
    },
    "version": 1
  },
  "userdoc": {
    "kind": "user",
    "methods": {},
    "version": 1
  }
}