{
  "contractName": "CoreGridMining",
  "abi": [
    {
      "inputs": [],
      "stateMutability": "nonpayable",
      "type": "constructor"
    },
    {
      "anonymous": false,
      "inputs": [
        {
          "indexed": true,
          "internalType": "bytes32",
          "name": "role",
          "type": "bytes32"
        },
        {
          "indexed": true,
          "internalType": "bytes32",
          "name": "previousAdminRole",
          "type": "bytes32"
        },
        {
          "indexed": true,
          "internalType": "bytes32",
          "name": "newAdminRole",
          "type": "bytes32"
        }
      ],
      "name": "RoleAdminChanged",
      "type": "event"
    },
    {
      "anonymous": false,
      "inputs": [
        {
          "indexed": true,
          "internalType": "bytes32",
          "name": "role",
          "type": "bytes32"
        },
        {
          "indexed": true,
          "internalType": "address",
          "name": "account",
          "type": "address"
        },
        {
          "indexed": true,
          "internalType": "address",
          "name": "sender",
          "type": "address"
        }
      ],
      "name": "RoleGranted",
      "type": "event"
    },
    {
      "anonymous": false,
      "inputs": [
        {
          "indexed": true,
          "internalType": "bytes32",
          "name": "role",
          "type": "bytes32"
        },
        {
          "indexed": true,
          "internalType": "address",
          "name": "account",
          "type": "address"
        },
        {
          "indexed": true,
          "internalType": "address",
          "name": "sender",
          "type": "address"
        }
      ],
      "name": "RoleRevoked",
      "type": "event"
    },
    {
      "anonymous": false,
      "inputs": [
        {
          "indexed": true,
          "internalType": "uint256",
          "name": "cellId",
          "type": "uint256"
        },
        {
          "indexed": true,
          "internalType": "address",
          "name": "owner",
          "type": "address"
        },
        {
          "indexed": false,
          "internalType": "uint256",
          "name": "tokensClaimed",
          "type": "uint256"
        },
        {
          "indexed": false,
          "internalType": "uint64",
          "name": "timestamp",
          "type": "uint64"
        }
      ],
      "name": "TokensClaimed",
      "type": "event"
    },
    {
      "anonymous": false,
      "inputs": [
        {
          "indexed": true,
          "internalType": "uint256",
          "name": "teamId",
          "type": "uint256"
        },
        {
          "indexed": false,
          "internalType": "uint8",
          "name": "ranking",
          "type": "uint8"
        },
        {
          "indexed": false,
          "internalType": "uint256",
          "name": "tokensEarned",
          "type": "uint256"
        },
        {
          "indexed": false,
          "internalType": "uint256",
          "name": "tokensEarnedPerStake",
          "type": "uint256"
        },
        {
          "indexed": false,
          "internalType": "uint64",
          "name": "timestamp",
          "type": "uint64"
        }
      ],
      "name": "TokensMined",
      "type": "event"
    },
    {
      "inputs": [],
      "name": "DEFAULT_ADMIN_ROLE",
      "outputs": [
        {
          "internalType": "bytes32",
          "name": "",
          "type": "bytes32"
        }
      ],
      "stateMutability": "view",
      "type": "function"
    },
    {
      "inputs": [],
      "name": "ROLE_OPERATOR",
      "outputs": [
        {
          "internalType": "bytes32",
          "name": "",
          "type": "bytes32"
        }
      ],
      "stateMutability": "view",
      "type": "function"
    },
    {
      "inputs": [],
      "name": "ROLE_OWNER",
      "outputs": [
        {
          "internalType": "bytes32",
          "name": "",
          "type": "bytes32"
        }
      ],
      "stateMutability": "view",
      "type": "function"
    },
    {
      "inputs": [],
      "name": "bscgridPercentage",
      "outputs": [
        {
          "internalType": "uint256",
          "name": "",
          "type": "uint256"
        }
      ],
      "stateMutability": "view",
      "type": "function"
    },
    {
      "inputs": [],
      "name": "cellClockAuctionContract",
      "outputs": [
        {
          "internalType": "contract ICellClockAuction",
          "name": "",
          "type": "address"
        }
      ],
      "stateMutability": "view",
      "type": "function"
    },
    {
      "inputs": [],
      "name": "cellContract",
      "outputs": [
        {
          "internalType": "contract IGridCell",
          "name": "",
          "type": "address"
        }
      ],
      "stateMutability": "view",
      "type": "function"
    },
    {
      "inputs": [
        {
          "internalType": "uint256",
          "name": "_properties",
          "type": "uint256"
        },
        {
          "internalType": "uint8",
          "name": "_initialTeam",
          "type": "uint8"
        },
        {
          "internalType": "address",
          "name": "_owner",
          "type": "address"
        }
      ],
      "name": "createSpecialCell",
      "outputs": [
        {
          "internalType": "uint256",
          "name": "",
          "type": "uint256"
        }
      ],
      "stateMutability": "nonpayable",
      "type": "function"
    },
    {
      "inputs": [],
      "name": "discoverCell",
      "outputs": [],
      "stateMutability": "nonpayable",
      "type": "function"
    },
    {
      "inputs": [],
      "name": "discoveredCellMinPrice",
      "outputs": [
        {
          "internalType": "uint256",
          "name": "",
          "type": "uint256"
        }
      ],
      "stateMutability": "view",
      "type": "function"
    },
    {
      "inputs": [],
      "name": "financeAccount",
      "outputs": [
        {
          "internalType": "address payable",
          "name": "",
          "type": "address"
        }
      ],
      "stateMutability": "view",
      "type": "function"
    },
    {
      "inputs": [
        {
          "internalType": "uint256",
          "name": "_cellId",
          "type": "uint256"
        }
      ],
      "name": "getCellData",
      "outputs": [
        {
          "internalType": "int32[2]",
          "name": "coordinates",
          "type": "int32[2]"
        },
        {
          "internalType": "address",
          "name": "owner",
          "type": "address"
        },
        {
          "internalType": "uint8",
          "name": "team",
          "type": "uint8"
        },
        {
          "internalType": "uint8",
          "name": "grade",
          "type": "uint8"
        },
        {
          "internalType": "uint8",
          "name": "stake",
          "type": "uint8"
        }
      ],
      "stateMutability": "view",
      "type": "function"
    },
    {
      "inputs": [
        {
          "internalType": "bytes32",
          "name": "role",
          "type": "bytes32"
        }
      ],
      "name": "getRoleAdmin",
      "outputs": [
        {
          "internalType": "bytes32",
          "name": "",
          "type": "bytes32"
        }
      ],
      "stateMutability": "view",
      "type": "function"
    },
    {
      "inputs": [
        {
          "internalType": "bytes32",
          "name": "role",
          "type": "bytes32"
        },
        {
          "internalType": "uint256",
          "name": "index",
          "type": "uint256"
        }
      ],
      "name": "getRoleMember",
      "outputs": [
        {
          "internalType": "address",
          "name": "",
          "type": "address"
        }
      ],
      "stateMutability": "view",
      "type": "function"
    },
    {
      "inputs": [
        {
          "internalType": "bytes32",
          "name": "role",
          "type": "bytes32"
        }
      ],
      "name": "getRoleMemberCount",
      "outputs": [
        {
          "internalType": "uint256",
          "name": "",
          "type": "uint256"
        }
      ],
      "stateMutability": "view",
      "type": "function"
    },
    {
      "inputs": [
        {
          "internalType": "bytes32",
          "name": "role",
          "type": "bytes32"
        },
        {
          "internalType": "address",
          "name": "account",
          "type": "address"
        }
      ],
      "name": "grantRole",
      "outputs": [],
      "stateMutability": "nonpayable",
      "type": "function"
    },
    {
      "inputs": [],
      "name": "gridTokenContract",
      "outputs": [
        {
          "internalType": "contract IGridToken",
          "name": "",
          "type": "address"
        }
      ],
      "stateMutability": "view",
      "type": "function"
    },
    {
      "inputs": [
        {
          "internalType": "bytes32",
          "name": "role",
          "type": "bytes32"
        },
        {
          "internalType": "address",
          "name": "account",
          "type": "address"
        }
      ],
      "name": "hasRole",
      "outputs": [
        {
          "internalType": "bool",
          "name": "",
          "type": "bool"
        }
      ],
      "stateMutability": "view",
      "type": "function"
    },
    {
      "inputs": [
        {
          "internalType": "uint256",
          "name": "",
          "type": "uint256"
        }
      ],
      "name": "miningDistribution",
      "outputs": [
        {
          "internalType": "uint16",
          "name": "",
          "type": "uint16"
        }
      ],
      "stateMutability": "view",
      "type": "function"
    },
    {
      "inputs": [
        {
          "internalType": "bytes32",
          "name": "role",
          "type": "bytes32"
        },
        {
          "internalType": "address",
          "name": "account",
          "type": "address"
        }
      ],
      "name": "renounceRole",
      "outputs": [],
      "stateMutability": "nonpayable",
      "type": "function"
    },
    {
      "inputs": [
        {
          "internalType": "bytes32",
          "name": "role",
          "type": "bytes32"
        },
        {
          "internalType": "address",
          "name": "account",
          "type": "address"
        }
      ],
      "name": "revokeRole",
      "outputs": [],
      "stateMutability": "nonpayable",
      "type": "function"
    },
    {
      "inputs": [
        {
          "internalType": "address",
          "name": "_address",
          "type": "address"
        }
      ],
      "name": "setCellClockAuctionContractAddress",
      "outputs": [],
      "stateMutability": "nonpayable",
      "type": "function"
    },
    {
      "inputs": [
        {
          "internalType": "address",
          "name": "_address",
          "type": "address"
        }
      ],
      "name": "setCellContractAddress",
      "outputs": [],
      "stateMutability": "nonpayable",
      "type": "function"
    },
    {
      "inputs": [
        {
          "internalType": "bytes4",
          "name": "interfaceId",
          "type": "bytes4"
        }
      ],
      "name": "supportsInterface",
      "outputs": [
        {
          "internalType": "bool",
          "name": "",
          "type": "bool"
        }
      ],
      "stateMutability": "view",
      "type": "function"
    },
    {
      "inputs": [
        {
          "internalType": "address payable",
          "name": "_address",
          "type": "address"
        }
      ],
      "name": "setFinanceAccount",
      "outputs": [],
      "stateMutability": "nonpayable",
      "type": "function"
    },
    {
      "inputs": [],
      "name": "retrieveFunds",
      "outputs": [],
      "stateMutability": "nonpayable",
      "type": "function"
    },
    {
      "inputs": [
        {
          "internalType": "address",
          "name": "_address",
          "type": "address"
        }
      ],
      "name": "setGridTokenContractAddress",
      "outputs": [],
      "stateMutability": "nonpayable",
      "type": "function"
    },
    {
      "inputs": [
        {
          "internalType": "uint8[8]",
          "name": "_sortedTeamOrder",
          "type": "uint8[8]"
        }
      ],
      "name": "mineGridTokens",
      "outputs": [],
      "stateMutability": "nonpayable",
      "type": "function"
    },
    {
      "inputs": [
        {
          "internalType": "uint256",
          "name": "_cellId",
          "type": "uint256"
        }
      ],
      "name": "claimGridTokens",
      "outputs": [
        {
          "internalType": "bool",
          "name": "",
          "type": "bool"
        }
      ],
      "stateMutability": "nonpayable",
      "type": "function"
    },
    {
      "inputs": [
        {
          "internalType": "uint256",
          "name": "_cellId",
          "type": "uint256"
        }
      ],
      "name": "getClaimableGridTokens",
      "outputs": [
        {
          "internalType": "uint256",
          "name": "",
          "type": "uint256"
        }
      ],
      "stateMutability": "view",
      "type": "function"
    }
  ],
  "bytecode": "0x608060405267016345785d8a00006002553480156200001d57600080fd5b506200004a7f9f4e1c871d5fdd0aee1cd182666698a4492b24c6832aac230d07b11046af5a8933620000d0565b62000057600033620000d0565b600580546001600160a01b031916331790556103e8600881815560408051610100810182526107d081526106406020820152610578918101919091526104b06060820152608081019290925261032060a083015261025860c083015261019060e0830152620000c99160069162000261565b5062000315565b620000e782826200011360201b62001e161760201c565b60008281526001602090815260409091206200010e91839062001e2462000123821b17901c565b505050565b6200011f828262000143565b5050565b60006200013a836001600160a01b038416620001cd565b90505b92915050565b6200014f82826200021c565b6200011f576000828152602081815260408083206001600160a01b03851684529091529020805460ff191660011790556200018962000245565b6001600160a01b0316816001600160a01b0316837f2f8788117e7eff1d82e926ec794901d17c78024a50270940304540a733656f0d60405160405180910390a45050565b6000620001db838362000249565b62000213575081546001818101845560008481526020808220909301849055845484825282860190935260409020919091556200013d565b5060006200013d565b6000918252602082815260408084206001600160a01b0393909316845291905290205460ff1690565b3390565b60009081526001919091016020526040902054151590565b600183019183908215620002ec5791602002820160005b83821115620002ba57835183826101000a81548161ffff021916908361ffff160217905550926020019260020160208160010104928301926001030262000278565b8015620002ea5782816101000a81549061ffff0219169055600201602081600101049283019260010302620002ba565b505b50620002fa929150620002fe565b5090565b5b80821115620002fa5760008155600101620002ff565b61301880620003256000396000f3fe608060405234801561001057600080fd5b50600436106101cf5760003560e01c80639010d07c11610104578063ca15c873116100a2578063e12f89cf11610071578063e12f89cf146103b2578063e6de8ac4146103ba578063e8e362c4146103c2578063ea5d7dee146103ca576101cf565b8063ca15c87314610371578063d40a7a0914610384578063d547741f1461038c578063dddc9dae1461039f576101cf565b806398a1b397116100de57806398a1b3971461033b578063a217fddf14610343578063ad152cb41461034b578063b65c474d1461035e576101cf565b80639010d07c146102f557806391d148541461030857806395f44eb31461031b576101cf565b80632f5c81b5116101715780636e42a03f1161014b5780636e42a03f146102a35780637999f1b8146102c7578063804578fc146102da5780638ad682af146102ed576101cf565b80632f5c81b51461027557806336568abe1461028857806361b20d8c1461029b576101cf565b8063248a9ca3116101ad578063248a9ca3146102275780632c153db5146102475780632d5d0caf1461024f5780632f2ff15d14610262576101cf565b806301ffc9a7146101d457806316c18029146101fd5780631c9c526a14610212575b600080fd5b6101e76101e2366004612718565b6103d2565b6040516101f491906129e6565b60405180910390f35b6102056103ff565b6040516101f49190612936565b6102256102203660046125bb565b61040e565b005b61023a6102353660046126b0565b6104fc565b6040516101f491906129f1565b61023a610511565b61022561025d3660046125bb565b610517565b6102256102703660046126c8565b610555565b6101e76102833660046126b0565b61057c565b6102256102963660046126c8565b6109b6565b6102256109d8565b6102b66102b13660046126b0565b610a2d565b6040516101f4959493929190612963565b61023a6102d53660046126b0565b610c00565b61023a6102e836600461282d565b610ecd565b61023a610fa3565b6102056103033660046126f7565b610fb5565b6101e76103163660046126c8565b610fd6565b61032e6103293660046126b0565b610fff565b6040516101f49190612d46565b61023a61102d565b61023a61103f565b6102256103593660046125bb565b611044565b61022561036c366004612629565b611124565b61023a61037f3660046126b0565b611973565b61020561198a565b61022561039a3660046126c8565b611999565b6102256103ad3660046125bb565b6119a3565b610205611a83565b61023a611a92565b610205611a98565b610225611aa7565b60006001600160e01b03198216635a05180f60e01b14806103f757506103f782611e39565b90505b919050565b6004546001600160a01b031681565b600080516020612fa383398151915261042e81610429611e5e565b611e62565b6040516301ffc9a760e01b815282906001600160a01b038216906301ffc9a79061046390631cac75e160e11b90600401612a11565b60206040518083038186803b15801561047b57600080fd5b505afa15801561048f573d6000803e3d6000fd5b505050506040513d601f19601f820116820180604052508101906104b39190612690565b6104d85760405162461bcd60e51b81526004016104cf90612ad0565b60405180910390fd5b600780546001600160a01b0319166001600160a01b03929092169190911790555050565b60009081526020819052604090206001015490565b60085481565b600080516020612fa383398151915261053281610429611e5e565b50600580546001600160a01b0319166001600160a01b0392909216919091179055565b61055f8282611ec6565b60008281526001602052604090206105779082611e24565b505050565b6007546000906001600160a01b03166105a75760405162461bcd60e51b81526004016104cf90612bfb565b6003546001600160a01b03166105cf5760405162461bcd60e51b81526004016104cf90612bc4565b60008060006105dd85610a2d565b600354604051632474521560e21b81529498509296509450506001600160a01b0316915081906391d1485490610639907ffa3c82c7c654e0505de0c01ba5109972451a2e7ffba1730c54ba78780f6426229088906004016129fa565b60206040518083038186803b15801561065157600080fd5b505afa158015610665573d6000803e3d6000fd5b505050506040513d601f19601f820116820180604052508101906106899190612690565b8061072d5750604051632474521560e21b81526001600160a01b038216906391d14854906106dd907fcec7a5448ae2e4d95a5b7da50fd728f829dc4af9acdc7ca694b2bc596fddcbaf9088906004016129fa565b60206040518083038186803b1580156106f557600080fd5b505afa158015610709573d6000803e3d6000fd5b505050506040513d601f19601f8201168201806040525081019061072d9190612690565b1561073f5760009450505050506103fa565b60035460405163463ead8160e01b81526000916001600160a01b03169063463ead8190610770908790600401612dbb565b604080518083038186803b15801561078757600080fd5b505afa15801561079b573d6000803e3d6000fd5b505050506040513d601f19601f820116820180604052508101906107bf919061280a565b60035460405163020e42d360e41b8152919350600092506001600160a01b0316906320e42d30906107f4908b906004016129f1565b60206040518083038186803b15801561080c57600080fd5b505afa158015610820573d6000803e3d6000fd5b505050506040513d601f19601f820116820180604052508101906108449190612740565b905060006108528284612e90565b9050600061086360ff871683612e71565b90508061087b576000985050505050505050506103fa565b600354604051630d4dd4af60e01b81526001600160a01b0390911690630d4dd4af906108ab908d906004016129f1565b600060405180830381600087803b1580156108c557600080fd5b505af11580156108d9573d6000803e3d6000fd5b50505050876001600160a01b03168a7fedc93e122a3836d5dc4fcbd229f86486d26f04d6e3ab6fb06a74e0676c9b56028342604051610919929190612d81565b60405180910390a360075460405163a9059cbb60e01b81526001600160a01b039091169063a9059cbb90610953908b90859060040161294a565b602060405180830381600087803b15801561096d57600080fd5b505af1158015610981573d6000803e3d6000fd5b505050506040513d601f19601f820116820180604052508101906109a59190612690565b5060019a9950505050505050505050565b6109c08282611ee5565b60008281526001602052604090206105779082611f27565b600080516020612fc38339815191526109f381610429611e5e565b60055460405147916001600160a01b03169082156108fc029083906000818181858888f19350505050158015610577573d6000803e3d6000fd5b610a3561252d565b6003546000908190819081906001600160a01b0316610a665760405162461bcd60e51b81526004016104cf90612bc4565b600354604051631034247b60e11b81526000916001600160a01b03169063206848f690610a97908a906004016129f1565b60c06040518083038186803b158015610aaf57600080fd5b505afa158015610ac3573d6000803e3d6000fd5b505050506040513d601f19601f82011682018060405250810190610ae79190612758565b60035460405163a727854960e01b8152959c50939a509850965092506001600160a01b03169063a727854990610b23908a908590600401612928565b60206040518083038186803b158015610b3b57600080fd5b505afa158015610b4f573d6000803e3d6000fd5b505050506040513d601f19601f82011682018060405250810190610b73919061286e565b600354604051637bbe0db760e01b81529194506001600160a01b031690637bbe0db790610ba4908690600401612dbb565b60206040518083038186803b158015610bbc57600080fd5b505afa158015610bd0573d6000803e3d6000fd5b505050506040513d601f19601f82011682018060405250810190610bf4919061286e565b91505091939590929450565b6003546000906001600160a01b0316610c2b5760405162461bcd60e51b81526004016104cf90612bc4565b6000806000610c3985610a2d565b600354604051632474521560e21b81529498509296509450506001600160a01b0316915081906391d1485490610c95907ffa3c82c7c654e0505de0c01ba5109972451a2e7ffba1730c54ba78780f6426229088906004016129fa565b60206040518083038186803b158015610cad57600080fd5b505afa158015610cc1573d6000803e3d6000fd5b505050506040513d601f19601f82011682018060405250810190610ce59190612690565b80610d895750604051632474521560e21b81526001600160a01b038216906391d1485490610d39907fcec7a5448ae2e4d95a5b7da50fd728f829dc4af9acdc7ca694b2bc596fddcbaf9088906004016129fa565b60206040518083038186803b158015610d5157600080fd5b505afa158015610d65573d6000803e3d6000fd5b505050506040513d601f19601f82011682018060405250810190610d899190612690565b15610d9b5760009450505050506103fa565b60035460405163463ead8160e01b81526000916001600160a01b03169063463ead8190610dcc908790600401612dbb565b604080518083038186803b158015610de357600080fd5b505afa158015610df7573d6000803e3d6000fd5b505050506040513d601f19601f82011682018060405250810190610e1b919061280a565b60035460405163020e42d360e41b8152919350600092506001600160a01b0316906320e42d3090610e50908b906004016129f1565b60206040518083038186803b158015610e6857600080fd5b505afa158015610e7c573d6000803e3d6000fd5b505050506040513d601f19601f82011682018060405250810190610ea09190612740565b90506000610eae8284612e90565b90506000610ebf60ff871683612e71565b9a9950505050505050505050565b6000600080516020612fc3833981519152610eea81610429611e5e565b6003546001600160a01b0316610f125760405162461bcd60e51b81526004016104cf90612bc4565b60035460405163b408b35560e01b81526000916001600160a01b03169063b408b35590610f4790899089908990600401612d99565b602060405180830381600087803b158015610f6157600080fd5b505af1158015610f75573d6000803e3d6000fd5b505050506040513d601f19601f82011682018060405250810190610f999190612740565b9695505050505050565b600080516020612fa383398151915281565b6000828152600160205260408120610fcd9083611f3c565b90505b92915050565b6000918252602082815260408084206001600160a01b0393909316845291905290205460ff1690565b6006816008811061100f57600080fd5b60109182820401919006600202915054906101000a900461ffff1681565b600080516020612fc383398151915281565b600081565b600080516020612fa383398151915261105f81610429611e5e565b6040516301ffc9a760e01b815282906001600160a01b038216906301ffc9a790611094906347b4a94d60e01b90600401612a11565b60206040518083038186803b1580156110ac57600080fd5b505afa1580156110c0573d6000803e3d6000fd5b505050506040513d601f19601f820116820180604052508101906110e49190612690565b6111005760405162461bcd60e51b81526004016104cf90612b11565b600380546001600160a01b0319166001600160a01b03929092169190911790555050565b600080516020612fc383398151915261113f81610429611e5e565b6007546001600160a01b03166111675760405162461bcd60e51b81526004016104cf90612bfb565b6003546001600160a01b031661118f5760405162461bcd60e51b81526004016104cf90612bc4565b6003546040805163e70b84a960e01b815290516000926001600160a01b03169163e70b84a991600480830192610100929190829003018186803b1580156111d557600080fd5b505afa1580156111e9573d6000803e3d6000fd5b505050506040513d601f19601f8201168201806040525081019061120d91906125d7565b9050600080600360009054906101000a90046001600160a01b03166001600160a01b0316630588f7e96040518163ffffffff1660e01b81526004016102006040518083038186803b15801561126157600080fd5b505afa158015611275573d6000803e3d6000fd5b505050506040513d601f19601f8201168201806040525081019061129991906125f3565b60208701519193509150839060ff16600881106112c657634e487b7160e01b600052603260045260246000fd5b60200201518551849060ff16600881106112f057634e487b7160e01b600052603260045260246000fd5b60200201511015801561135d57506040850151839060ff166008811061132657634e487b7160e01b600052603260045260246000fd5b602002015183866001602002015160ff166008811061135557634e487b7160e01b600052603260045260246000fd5b602002015110155b80156113c157506060850151839060ff166008811061138c57634e487b7160e01b600052603260045260246000fd5b60200201516040860151849060ff16600881106113b957634e487b7160e01b600052603260045260246000fd5b602002015110155b801561142557506080850151839060ff16600881106113f057634e487b7160e01b600052603260045260246000fd5b60200201516060860151849060ff166008811061141d57634e487b7160e01b600052603260045260246000fd5b602002015110155b8015611489575060a0850151839060ff166008811061145457634e487b7160e01b600052603260045260246000fd5b60200201516080860151849060ff166008811061148157634e487b7160e01b600052603260045260246000fd5b602002015110155b80156114ed575060c0850151839060ff16600881106114b857634e487b7160e01b600052603260045260246000fd5b602002015160a0860151849060ff16600881106114e557634e487b7160e01b600052603260045260246000fd5b602002015110155b8015611551575060e0850151839060ff166008811061151c57634e487b7160e01b600052603260045260246000fd5b602002015160c0860151849060ff166008811061154957634e487b7160e01b600052603260045260246000fd5b602002015110155b61156d5760405162461bcd60e51b81526004016104cf90612b46565b60075460408051631249c58b60e01b815290516000926001600160a01b031691631249c58b91600480830192602092919082900301818787803b1580156115b357600080fd5b505af11580156115c7573d6000803e3d6000fd5b505050506040513d601f19601f820116820180604052508101906115eb9190612740565b90506000612710600854836116009190612e71565b61160a9190612e5d565b905060006116188284612e90565b905060005b60088160ff16101561187a576000878a8360ff166008811061164f57634e487b7160e01b600052603260045260246000fd5b602002015160ff166008811061167557634e487b7160e01b600052603260045260246000fd5b60200201511161168457611868565b600061271060068360ff16600881106116ad57634e487b7160e01b600052603260045260246000fd5b601091828204019190066002029054906101000a900461ffff1661ffff16846116d69190612e71565b6116e09190612e5d565b905080878b8460ff166008811061170757634e487b7160e01b600052603260045260246000fd5b602002015160ff166008811061172d57634e487b7160e01b600052603260045260246000fd5b6020020181815161173e9190612e45565b9052506000888b60ff85166008811061176757634e487b7160e01b600052603260045260246000fd5b602002015160ff166008811061178d57634e487b7160e01b600052603260045260246000fd5b602002015161179c9083612e5d565b905080878c8560ff16600881106117c357634e487b7160e01b600052603260045260246000fd5b602002015160ff16600881106117e957634e487b7160e01b600052603260045260246000fd5b602002018181516117fa9190612e45565b9052508a60ff84166008811061182057634e487b7160e01b600052603260045260246000fd5b602002015160ff167fb50b5286efed198de416f59acee1cea46585ef98c9ece6e5abb728e99ea44ca48484844260405161185d9493929190612dc9565b60405180910390a250505b8061187281612f05565b91505061161d565b50600354604051630767c6ab60e31b81526001600160a01b0390911690633b3e3558906118ad90889088906004016129c2565b600060405180830381600087803b1580156118c757600080fd5b505af11580156118db573d6000803e3d6000fd5b505060075460055460405163a9059cbb60e01b81526001600160a01b03928316945063a9059cbb93506119169290911690869060040161294a565b602060405180830381600087803b15801561193057600080fd5b505af1158015611944573d6000803e3d6000fd5b505050506040513d601f19601f820116820180604052508101906119689190612690565b505050505050505050565b60008181526001602052604081206103f790611f48565b6003546001600160a01b031681565b6109c08282611f53565b600080516020612fa38339815191526119be81610429611e5e565b6040516301ffc9a760e01b815282906001600160a01b038216906301ffc9a7906119f39063025be4f960e51b90600401612a11565b60206040518083038186803b158015611a0b57600080fd5b505afa158015611a1f573d6000803e3d6000fd5b505050506040513d601f19601f82011682018060405250810190611a439190612690565b611a5f5760405162461bcd60e51b81526004016104cf90612caf565b600480546001600160a01b0319166001600160a01b03929092169190911790555050565b6005546001600160a01b031681565b60025481565b6007546001600160a01b031681565b600080516020612fc3833981519152611ac281610429611e5e565b6003546001600160a01b0316611aea5760405162461bcd60e51b81526004016104cf90612bc4565b6004546001600160a01b0316611b125760405162461bcd60e51b81526004016104cf90612c66565b600354604080516318160ddd60e01b815290516000926001600160a01b0316916318160ddd916004808301926020929190829003018186803b158015611b5757600080fd5b505afa158015611b6b573d6000803e3d6000fd5b505050506040513d601f19601f82011682018060405250810190611b8f9190612740565b9050600060084283604051602001611ba8929190612928565b6040516020818303038152906040528051906020012060001c611bcb9190612f25565b60035460405163b408b35560e01b81529192506000916001600160a01b039091169063b408b35590611c0590849086903090600401612d99565b602060405180830381600087803b158015611c1f57600080fd5b505af1158015611c33573d6000803e3d6000fd5b505050506040513d601f19601f82011682018060405250810190611c579190612740565b905082611c6381612eea565b93505060008060e1851115611c8657611c7a611f72565b91506002549050611d0e565b8460011415611c9f576703782dace9d900009150611d0b565b60098511611cb757674563918244f400009150611d0b565b60198511611ccf576729a2241af62c00009150611d0b565b60318511611ce7576714d1120d7b1600009150611d0b565b60518511611cff57670a688906bd8b00009150611d0b565b6706f05b59d3b2000091505b50805b6003546004805460405163095ea7b360e01b81526001600160a01b039384169363095ea7b393611d44939091169188910161294a565b600060405180830381600087803b158015611d5e57600080fd5b505af1158015611d72573d6000803e3d6000fd5b50505050600082118015611d865750600081115b611da25760405162461bcd60e51b81526004016104cf90612b94565b600480546040516313f5f20560e11b81526001600160a01b03909116916327ebe40a91611ddc9187918791879162093a8091309101612d55565b600060405180830381600087803b158015611df657600080fd5b505af1158015611e0a573d6000803e3d6000fd5b50505050505050505050565b611e208282612084565b5050565b6000610fcd836001600160a01b038416612109565b60006001600160e01b03198216637965db0b60e01b14806103f757506103f782612153565b3390565b611e6c8282610fd6565b611e2057611e84816001600160a01b0316601461216c565b611e8f83602061216c565b604051602001611ea09291906128b3565b60408051601f198184030181529082905262461bcd60e51b82526104cf91600401612a26565b611ecf826104fc565b611edb81610429611e5e565b6105778383612084565b611eed611e5e565b6001600160a01b0316816001600160a01b031614611f1d5760405162461bcd60e51b81526004016104cf90612cf7565b611e20828261231e565b6000610fcd836001600160a01b0384166123a1565b6000610fcd83836124b8565b60006103f782612511565b611f5c826104fc565b611f6881610429611e5e565b610577838361231e565b6004546000906001600160a01b0316611f9d5760405162461bcd60e51b81526004016104cf90612c66565b6000600460009054906101000a90046001600160a01b03166001600160a01b031663028880af6040518163ffffffff1660e01b815260040160206040518083038186803b158015611fed57600080fd5b505afa158015612001573d6000803e3d6000fd5b505050506040513d601f19601f820116820180604052508101906120259190612740565b90506fffffffffffffffffffffffffffffffff81106120565760405162461bcd60e51b81526004016104cf90612c3d565b6000612063600283612e5d565b61206d9083612e45565b905060025481101561207e57506002545b91505090565b61208e8282610fd6565b611e20576000828152602081815260408083206001600160a01b03851684529091529020805460ff191660011790556120c5611e5e565b6001600160a01b0316816001600160a01b0316837f2f8788117e7eff1d82e926ec794901d17c78024a50270940304540a733656f0d60405160405180910390a45050565b60006121158383612515565b61214b57508154600181810184556000848152602080822090930184905584548482528286019093526040902091909155610fd0565b506000610fd0565b6001600160e01b031981166301ffc9a760e01b14919050565b6060600061217b836002612e71565b612186906002612e45565b67ffffffffffffffff8111156121ac57634e487b7160e01b600052604160045260246000fd5b6040519080825280601f01601f1916602001820160405280156121d6576020820181803683370190505b509050600360fc1b816000815181106121ff57634e487b7160e01b600052603260045260246000fd5b60200101906001600160f81b031916908160001a905350600f60fb1b8160018151811061223c57634e487b7160e01b600052603260045260246000fd5b60200101906001600160f81b031916908160001a9053506000612260846002612e71565b61226b906001612e45565b90505b60018111156122ff576f181899199a1a9b1b9c1cb0b131b232b360811b85600f16601081106122ad57634e487b7160e01b600052603260045260246000fd5b1a60f81b8282815181106122d157634e487b7160e01b600052603260045260246000fd5b60200101906001600160f81b031916908160001a90535060049490941c936122f881612ed3565b905061226e565b508315610fcd5760405162461bcd60e51b81526004016104cf90612a9b565b6123288282610fd6565b15611e20576000828152602081815260408083206001600160a01b03851684529091529020805460ff1916905561235d611e5e565b6001600160a01b0316816001600160a01b0316837ff6391f5c32d9c69d2a47ea670b442974b53935d1edc7fd64eb21e047a839171b60405160405180910390a45050565b600081815260018301602052604081205480156124ae5760006123c5600183612e90565b85549091506000906123d990600190612e90565b9050600086600001828154811061240057634e487b7160e01b600052603260045260246000fd5b906000526020600020015490508087600001848154811061243157634e487b7160e01b600052603260045260246000fd5b60009182526020808320909101929092558281526001890190915260409020849055865487908061247257634e487b7160e01b600052603160045260246000fd5b60019003818190600052602060002001600090559055866001016000878152602001908152602001600020600090556001945050505050610fd0565b6000915050610fd0565b815460009082106124db5760405162461bcd60e51b81526004016104cf90612a59565b8260000182815481106124fe57634e487b7160e01b600052603260045260246000fd5b9060005260206000200154905092915050565b5490565b60009081526001919091016020526040902054151590565b60405180604001604052806002906020820280368337509192915050565b80516103fa81612f7b565b600082601f830112612566578081fd5b61010061257281612df3565b8084868487011115612582578485fd5b8493505b60088410156125a657805183526001939093019260209283019201612586565b5095945050505050565b80516103fa81612f93565b6000602082840312156125cc578081fd5b8135610fcd81612f7b565b600061010082840312156125e9578081fd5b610fcd8383612556565b6000806102008385031215612606578081fd5b6126108484612556565b9150612620846101008501612556565b90509250929050565b600061010080838503121561263c578182fd5b83601f84011261264a578182fd5b61265381612df3565b8084868487011115612663578485fd5b8493505b60088410156125a657803561267b81612f93565b83526001939093019260209283019201612667565b6000602082840312156126a1578081fd5b81518015158114610fcd578182fd5b6000602082840312156126c1578081fd5b5035919050565b600080604083850312156126da578182fd5b8235915060208301356126ec81612f7b565b809150509250929050565b60008060408385031215612709578182fd5b50508035926020909101359150565b600060208284031215612729578081fd5b81356001600160e01b031981168114610fcd578182fd5b600060208284031215612751578081fd5b5051919050565b600080600080600060c0868803121561276f578081fd5b85519450602087603f880112612783578182fd5b600261279661279182612e24565b612df3565b80838a0160608b018c8111156127aa578687fd5b865b858110156127d65782518060030b81146127c4578889fd5b855293860193918601916001016127ac565b50829950805198505050505050506127f0608087016125b0565b91506127fe60a0870161254b565b90509295509295909350565b6000806040838503121561281c578182fd5b505080516020909101519092909150565b600080600060608486031215612841578081fd5b83359250602084013561285381612f93565b9150604084013561286381612f7b565b809150509250925092565b60006020828403121561287f578081fd5b8151610fcd81612f93565b8060005b60088110156128ad57815184526020938401939091019060010161288e565b50505050565b60007f416363657373436f6e74726f6c3a206163636f756e7420000000000000000000825283516128eb816017850160208801612ea7565b7001034b99036b4b9b9b4b733903937b6329607d1b601791840191820152835161291c816028840160208801612ea7565b01602801949350505050565b918252602082015260400190565b6001600160a01b0391909116815260200190565b6001600160a01b03929092168252602082015260400190565b60c08101818760005b600281101561298e57815160030b83526020928301929091019060010161296c565b5050506001600160a01b0395909516604082015260ff9384166060820152918316608083015290911660a090910152919050565b61020081016129d1828561288a565b6129df61010083018461288a565b9392505050565b901515815260200190565b90815260200190565b9182526001600160a01b0316602082015260400190565b6001600160e01b031991909116815260200190565b6000602082528251806020840152612a45816040850160208701612ea7565b601f01601f19169190910160400192915050565b60208082526022908201527f456e756d657261626c655365743a20696e646578206f7574206f6620626f756e604082015261647360f01b606082015260800190565b6020808252818101527f537472696e67733a20686578206c656e67746820696e73756666696369656e74604082015260600190565b60208082526021908201527f436f6e7472616374206973206e6f74206f6620747970652047726964546f6b656040820152603760f91b606082015260800190565b6020808252818101527f436f6e7472616374206973206e6f74206f662074797065204772696443656c6c604082015260600190565b6020808252602e908201527f536f72746564207465616d206f7264657220646f6573206e6f74206d6174636860408201526d206f6e2d636861696e206461746160901b606082015260800190565b602080825260169082015275496e76616c69642061756374696f6e2070726963657360501b604082015260600190565b6020808252601d908201527f63656c6c436f6e747261637420686173206e6f74206265656e20736574000000604082015260600190565b60208082526022908201527f67726964546f6b656e436f6e747261637420686173206e6f74206265656e2073604082015261195d60f21b606082015260800190565b6020808252600f908201526e507269636520697320696e73616e6560881b604082015260600190565b60208082526029908201527f63656c6c436c6f636b41756374696f6e436f6e747261637420686173206e6f74604082015268081899595b881cd95d60ba1b606082015260800190565b60208082526028908201527f436f6e7472616374206973206e6f74206f6620747970652043656c6c436c6f6360408201526735a0bab1ba34b7b760c11b606082015260800190565b6020808252602f908201527f416363657373436f6e74726f6c3a2063616e206f6e6c792072656e6f756e636560408201526e103937b632b9903337b91039b2b63360891b606082015260800190565b61ffff91909116815260200190565b9485526020850193909352604084019190915260608301526001600160a01b0316608082015260a00190565b91825267ffffffffffffffff16602082015260400190565b92835260ff9190911660208301526001600160a01b0316604082015260600190565b60ff91909116815260200190565b60ff9490941684526020840192909252604083015267ffffffffffffffff16606082015260800190565b604051601f8201601f1916810167ffffffffffffffff81118282101715612e1c57612e1c612f65565b604052919050565b600067ffffffffffffffff821115612e3e57612e3e612f65565b5060200290565b60008219821115612e5857612e58612f39565b500190565b600082612e6c57612e6c612f4f565b500490565b6000816000190483118215151615612e8b57612e8b612f39565b500290565b600082821015612ea257612ea2612f39565b500390565b60005b83811015612ec2578181015183820152602001612eaa565b838111156128ad5750506000910152565b600081612ee257612ee2612f39565b506000190190565b6000600019821415612efe57612efe612f39565b5060010190565b600060ff821660ff811415612f1c57612f1c612f39565b60010192915050565b600082612f3457612f34612f4f565b500690565b634e487b7160e01b600052601160045260246000fd5b634e487b7160e01b600052601260045260246000fd5b634e487b7160e01b600052604160045260246000fd5b6001600160a01b0381168114612f9057600080fd5b50565b60ff81168114612f9057600080fdfe9f4e1c871d5fdd0aee1cd182666698a4492b24c6832aac230d07b11046af5a89aa3edb77f7c8cc9e38e8afe78954f703aeeda7fffe014eeb6e56ea84e62f6da7a264697066735822122030a691f48f3906860af173ddad018c319c7cc3cc3d5b350004b3a112d2824f8364736f6c63430008010033",
  "immutableReferences": {},
  "source": "// SPDX-License-Identifier: GPL-3.0-or-later\npragma solidity ^0.8.1;\n\nimport \"./CoreCellControls.sol\";\nimport \"./IGridToken.sol\";\n\ncontract CoreGridMining is CoreCellControls {\n    /// @dev Address of the BSC-Grid team account\n    address payable public financeAccount;\n\n    /// @dev The percentage the team in each ranking earns of each minting reward (measured in basis points)\n    uint16[8] public miningDistribution;\n\n    /// @dev The address of the GridToken contract\n    IGridToken public gridTokenContract;\n\n    // Measured in basis points (1/100 of a percent). Values 0-10000 map to 0%-100%\n    uint256 public bscgridPercentage;\n\n    event TokensMined(uint256 indexed teamId, uint8 ranking, uint256 tokensEarned, uint256 tokensEarnedPerStake, uint64 timestamp);\n    event TokensClaimed(uint256 indexed cellId, address indexed owner, uint256 tokensClaimed, uint64 timestamp);\n\n    constructor() {\n        financeAccount = payable(msg.sender);\n        bscgridPercentage = 1000; //10%\n\n        //Mining rewards based on each team's total staked amount:\n        //20% for first place, 16% for second place, etc\n        miningDistribution = [2000, 1600, 1400, 1200, 1000, 800, 600, 400];\n    }\n\n    /// @param _address - Address to receive proceeds of auctions created by core contract\n    function setFinanceAccount(address payable _address) external onlyRole(ROLE_OWNER) {\n        financeAccount = _address;\n    }\n\n    /// @dev Allows an operator to retrieve funds from the contract into the finance account\n    function retrieveFunds() external onlyRole(ROLE_OPERATOR) {\n        uint256 _balance = address(this).balance;\n        financeAccount.transfer(_balance);\n    }\n\n    /// @dev Sets the reference to the GRID token contract\n    /// @param _address - Address of the contract\n    function setGridTokenContractAddress(address _address) external onlyRole(ROLE_OWNER) {\n        IGridToken candidateContract = IGridToken(_address);\n\n        require(\n            candidateContract.supportsInterface(type(IGridToken).interfaceId),\n            \"Contract is not of type GridToken\"\n        );\n\n        // Set the new contract address\n        gridTokenContract = candidateContract;\n    }\n\n    /// @dev Mint new tokens and calculate distributions to each team based on their representation on the grid\n    /// @param _sortedTeamOrder - The sorted array of teams based on their current grid representation ranking\n    /// - arrays are sorted off-chain and passed as an input to avoid gas costs,\n    /// - but are verified on chain to ensure data matches contract values (thus avoiding any manipulation)\n    /// - team rankings changing between when order is calculated off and on chain will cause a revert\n    function mineGridTokens(uint8[8] memory _sortedTeamOrder) external onlyRole(ROLE_OPERATOR) {\n        require(address(gridTokenContract) != address(0), \"gridTokenContract has not been set\");\n        require(address(cellContract) != address(0), \"cellContract has not been set\");\n        \n        //get the current team stake values from the CELL contract\n        uint256[8] memory _teamStake = cellContract.getAllTeamStakes();\n        (uint256[8] memory _teamEarnings, uint256[8] memory _teamEarningsPerStake) = cellContract.getAllTeamEarnings();\n\n        //ensure the off-chain calculated order is correctly sorted\n        require(\n            (_teamStake[_sortedTeamOrder[0]] >= _teamStake[_sortedTeamOrder[1]]) &&\n            (_teamStake[_sortedTeamOrder[1]] >= _teamStake[_sortedTeamOrder[2]]) &&\n            (_teamStake[_sortedTeamOrder[2]] >= _teamStake[_sortedTeamOrder[3]]) &&\n            (_teamStake[_sortedTeamOrder[3]] >= _teamStake[_sortedTeamOrder[4]]) &&\n            (_teamStake[_sortedTeamOrder[4]] >= _teamStake[_sortedTeamOrder[5]]) &&\n            (_teamStake[_sortedTeamOrder[5]] >= _teamStake[_sortedTeamOrder[6]]) &&\n            (_teamStake[_sortedTeamOrder[6]] >= _teamStake[_sortedTeamOrder[7]]),\n            \"Sorted team order does not match on-chain data\"\n        );\n\n        //perform the token minting and return the amount minted\n        uint256 _mintedAmount = gridTokenContract.mint();\n\n        //calculate the BSC-Grid team cut\n        uint256 _bscgridAmount = (_mintedAmount * bscgridPercentage) / 10000;\n\n        //calculate the amount to distribute amongst teams\n        uint256 _distributionAmount = _mintedAmount - _bscgridAmount;\n\n        //team in first place earns the first place mining distribution % of the total distribution amount, etc\n        for (uint8 _i = 0; _i < 8; _i++) {\n            if (_teamStake[_sortedTeamOrder[_i]] <= 0) {\n                continue;\n            }\n        \n            //calculate number of tokens earned by this team\n            uint256 _teamTokensEarned = (_distributionAmount * uint256(miningDistribution[_i])) / 10000;\n\n            //increase team's cumulative total of tokens earned\n            _teamEarnings[_sortedTeamOrder[_i]] += _teamTokensEarned;\n\n            //break the earned tokens into per-stake amounts to ensure accuracy of claims\n            uint256 _teamTokensEarnedPerStake = _teamTokensEarned / _teamStake[_sortedTeamOrder[_i]];\n\n            //increase team's cumulative total of tokens earned per stake\n            _teamEarningsPerStake[_sortedTeamOrder[_i]] += _teamTokensEarnedPerStake;\n\n            //let everyone know about it\n            emit TokensMined(_sortedTeamOrder[_i], _i, _teamTokensEarned, _teamTokensEarnedPerStake, uint64(block.timestamp));\n        }\n\n        //update stored team total earnings\n        cellContract.setAllTeamEarnings(_teamEarnings, _teamEarningsPerStake);\n\n        //distribute BSC-Grid team cut\n        gridTokenContract.transfer(financeAccount, _bscgridAmount);\n    }\n\n    function claimGridTokens(uint256 _cellId) public returns (bool) {\n        require(address(gridTokenContract) != address(0), \"gridTokenContract has not been set\");\n        require(address(cellContract) != address(0), \"cellContract has not been set\");\n\n        (, address _owner, uint8 _team, , uint8 _cellStake) = getCellData(_cellId);\n\n        AccessControlEnumerable _cellContractAccess = AccessControlEnumerable(address(cellContract));\n\n        //deny claims from internal project contracts (e.g. to prevent auction contract accruing tokens it can never use)\n        if (\n            _cellContractAccess.hasRole(keccak256(\"ROLE_CORE_CONTRACT\"), _owner) ||\n            _cellContractAccess.hasRole(keccak256(\"ROLE_STAKE_DENYLIST\"), _owner)\n        ) {\n            return false;\n        }\n\n        (, uint256 _teamEarningsPerStake) = cellContract.getTeamEarnings(_team);\n        uint256 _lastTeamEarningsPerStake = cellContract.getCellLastTeamEarningsPerStake(_cellId);\n\n        //calculate the total number of tokens the team has earned (per stake) since...\n        //the last time this CELL claimed their cut\n        uint256 _claimableTokens = _teamEarningsPerStake - _lastTeamEarningsPerStake;\n\n        //CELL owner's cut is their % of the total team stake\n        uint256 _cutToClaim = _claimableTokens * _cellStake;\n\n        if (_cutToClaim == 0) {\n            return false;\n        }\n\n        //update stored last team total earnings for this CELL\n        cellContract.updateCellLastTeamEarningsPerStake(_cellId);\n\n        //log the event\n        emit TokensClaimed(_cellId, _owner, _cutToClaim, uint64(block.timestamp));\n\n        //distribute CELL owner's cut\n        gridTokenContract.transfer(_owner, _cutToClaim);\n\n        return true;\n    }\n\n    function getClaimableGridTokens(uint256 _cellId) public view returns (uint256) {\n        require(address(cellContract) != address(0), \"cellContract has not been set\");\n\n        (, address _owner, uint8 _team, , uint8 _cellStake) = getCellData(_cellId);\n\n        AccessControlEnumerable _cellContractAccess = AccessControlEnumerable(address(cellContract));\n\n        //deny claims from internal project contracts (e.g. to prevent auction contract accruing tokens it can never use)\n        if (\n            _cellContractAccess.hasRole(keccak256(\"ROLE_CORE_CONTRACT\"), _owner) ||\n            _cellContractAccess.hasRole(keccak256(\"ROLE_STAKE_DENYLIST\"), _owner)\n        ) {\n            return 0;\n        }\n\n        (, uint256 _teamEarningsPerStake) = cellContract.getTeamEarnings(_team);\n        uint256 _lastTeamEarningsPerStake = cellContract.getCellLastTeamEarningsPerStake(_cellId);\n\n        //calculate the total number of tokens the team has earned (per stake) since...\n        //the last time this CELL claimed their cut\n        uint256 _claimableTokens = _teamEarningsPerStake - _lastTeamEarningsPerStake;\n\n        //CELL owner's cut is their % of the total team stake\n        uint256 _cutToClaim = _claimableTokens * _cellStake;\n\n        return _cutToClaim;\n    }\n}",
  "sourcePath": "/home/luke/BSC-Grid/Solidity/contracts/CoreGridMining.sol",
  "compiler": {
    "name": "solc",
    "version": "0.8.1+commit.df193b15.Emscripten.clang"
  },
  "schemaVersion": "3.3.4",
  "updatedAt": "2021-06-18T19:07:47.572Z",
  "devdoc": {
    "kind": "dev",
    "methods": {
      "createSpecialCell(uint256,uint8,address)": {
        "details": "Create a new CELL token in the Grid, with specific properties This special cell may be immediately transferred to a specific owner This function should only be called very rarely (giveaway competitions etc.)",
        "params": {
          "_initialTeam": "- ID of the new CELL's team",
          "_owner": "- Address of the new CELL's owner",
          "_properties": "- A predefined properties string for the CELL"
        }
      },
      "discoverCell()": {
        "details": "'Discover' (create) a new CELL token (tile) on The Grid, spiraling outwards from [0,0] Discovered CELL tokens are immediately put up for auction The auction price decreases over 7 days, unless it was in the first 225 tiles, which have fixed prices"
      },
      "getCellData(uint256)": {
        "details": "Get the properties of a given Cell"
      },
      "getRoleAdmin(bytes32)": {
        "details": "Returns the admin role that controls `role`. See {grantRole} and {revokeRole}. To change a role's admin, use {_setRoleAdmin}."
      },
      "getRoleMember(bytes32,uint256)": {
        "details": "Returns one of the accounts that have `role`. `index` must be a value between 0 and {getRoleMemberCount}, non-inclusive. Role bearers are not sorted in any particular way, and their ordering may change at any point. WARNING: When using {getRoleMember} and {getRoleMemberCount}, make sure you perform all queries on the same block. See the following https://forum.openzeppelin.com/t/iterating-over-elements-on-enumerableset-in-openzeppelin-contracts/2296[forum post] for more information."
      },
      "getRoleMemberCount(bytes32)": {
        "details": "Returns the number of accounts that have `role`. Can be used together with {getRoleMember} to enumerate all bearers of a role."
      },
      "grantRole(bytes32,address)": {
        "details": "Overload {grantRole} to track enumerable memberships"
      },
      "hasRole(bytes32,address)": {
        "details": "Returns `true` if `account` has been granted `role`."
      },
      "mineGridTokens(uint8[8])": {
        "details": "Mint new tokens and calculate distributions to each team based on their representation on the grid",
        "params": {
          "_sortedTeamOrder": "- The sorted array of teams based on their current grid representation ranking - arrays are sorted off-chain and passed as an input to avoid gas costs, - but are verified on chain to ensure data matches contract values (thus avoiding any manipulation) - team rankings changing between when order is calculated off and on chain will cause a revert"
        }
      },
      "renounceRole(bytes32,address)": {
        "details": "Overload {renounceRole} to track enumerable memberships"
      },
      "retrieveFunds()": {
        "details": "Allows an operator to retrieve funds from the contract into the finance account"
      },
      "revokeRole(bytes32,address)": {
        "details": "Overload {revokeRole} to track enumerable memberships"
      },
      "setCellClockAuctionContractAddress(address)": {
        "details": "Sets the reference to the Cell clock auction contract",
        "params": {
          "_address": "- Address of the contract"
        }
      },
      "setCellContractAddress(address)": {
        "details": "Sets the reference to the CELL token contract",
        "params": {
          "_address": "- Address of the contract"
        }
      },
      "setFinanceAccount(address)": {
        "params": {
          "_address": "- Address to receive proceeds of auctions created by core contract"
        }
      },
      "setGridTokenContractAddress(address)": {
        "details": "Sets the reference to the GRID token contract",
        "params": {
          "_address": "- Address of the contract"
        }
      },
      "supportsInterface(bytes4)": {
        "details": "See {IERC165-supportsInterface}."
      }
    },
    "stateVariables": {
      "financeAccount": {
        "details": "Address of the BSC-Grid team account"
      },
      "gridTokenContract": {
        "details": "The address of the GridToken contract"
      },
      "miningDistribution": {
        "details": "The percentage the team in each ranking earns of each minting reward (measured in basis points)"
      }
    },
    "version": 1
  },
  "userdoc": {
    "kind": "user",
    "methods": {},
    "version": 1
  }
}