{
  "contractName": "GridCell",
  "abi": [
    {
      "inputs": [],
      "stateMutability": "nonpayable",
      "type": "constructor"
    },
    {
      "anonymous": false,
      "inputs": [
        {
          "indexed": true,
          "internalType": "address",
          "name": "owner",
          "type": "address"
        },
        {
          "indexed": true,
          "internalType": "address",
          "name": "approved",
          "type": "address"
        },
        {
          "indexed": true,
          "internalType": "uint256",
          "name": "tokenId",
          "type": "uint256"
        }
      ],
      "name": "Approval",
      "type": "event"
    },
    {
      "anonymous": false,
      "inputs": [
        {
          "indexed": true,
          "internalType": "address",
          "name": "owner",
          "type": "address"
        },
        {
          "indexed": true,
          "internalType": "address",
          "name": "operator",
          "type": "address"
        },
        {
          "indexed": false,
          "internalType": "bool",
          "name": "approved",
          "type": "bool"
        }
      ],
      "name": "ApprovalForAll",
      "type": "event"
    },
    {
      "anonymous": false,
      "inputs": [
        {
          "indexed": true,
          "internalType": "uint256",
          "name": "cellId",
          "type": "uint256"
        },
        {
          "indexed": false,
          "internalType": "int32[2]",
          "name": "coordinates",
          "type": "int32[2]"
        },
        {
          "indexed": false,
          "internalType": "uint256",
          "name": "properties",
          "type": "uint256"
        },
        {
          "indexed": false,
          "internalType": "uint8",
          "name": "team",
          "type": "uint8"
        },
        {
          "indexed": false,
          "internalType": "address",
          "name": "owner",
          "type": "address"
        }
      ],
      "name": "Discovery",
      "type": "event"
    },
    {
      "anonymous": false,
      "inputs": [
        {
          "indexed": true,
          "internalType": "bytes32",
          "name": "role",
          "type": "bytes32"
        },
        {
          "indexed": true,
          "internalType": "bytes32",
          "name": "previousAdminRole",
          "type": "bytes32"
        },
        {
          "indexed": true,
          "internalType": "bytes32",
          "name": "newAdminRole",
          "type": "bytes32"
        }
      ],
      "name": "RoleAdminChanged",
      "type": "event"
    },
    {
      "anonymous": false,
      "inputs": [
        {
          "indexed": true,
          "internalType": "bytes32",
          "name": "role",
          "type": "bytes32"
        },
        {
          "indexed": true,
          "internalType": "address",
          "name": "account",
          "type": "address"
        },
        {
          "indexed": true,
          "internalType": "address",
          "name": "sender",
          "type": "address"
        }
      ],
      "name": "RoleGranted",
      "type": "event"
    },
    {
      "anonymous": false,
      "inputs": [
        {
          "indexed": true,
          "internalType": "bytes32",
          "name": "role",
          "type": "bytes32"
        },
        {
          "indexed": true,
          "internalType": "address",
          "name": "account",
          "type": "address"
        },
        {
          "indexed": true,
          "internalType": "address",
          "name": "sender",
          "type": "address"
        }
      ],
      "name": "RoleRevoked",
      "type": "event"
    },
    {
      "anonymous": false,
      "inputs": [
        {
          "indexed": true,
          "internalType": "uint256",
          "name": "cellId",
          "type": "uint256"
        },
        {
          "indexed": false,
          "internalType": "uint8",
          "name": "teamOld",
          "type": "uint8"
        },
        {
          "indexed": true,
          "internalType": "uint8",
          "name": "teamNew",
          "type": "uint8"
        },
        {
          "indexed": false,
          "internalType": "uint64",
          "name": "timestamp",
          "type": "uint64"
        }
      ],
      "name": "TeamChange",
      "type": "event"
    },
    {
      "anonymous": false,
      "inputs": [
        {
          "indexed": true,
          "internalType": "address",
          "name": "from",
          "type": "address"
        },
        {
          "indexed": true,
          "internalType": "address",
          "name": "to",
          "type": "address"
        },
        {
          "indexed": true,
          "internalType": "uint256",
          "name": "tokenId",
          "type": "uint256"
        }
      ],
      "name": "Transfer",
      "type": "event"
    },
    {
      "stateMutability": "nonpayable",
      "type": "fallback"
    },
    {
      "inputs": [],
      "name": "DEFAULT_ADMIN_ROLE",
      "outputs": [
        {
          "internalType": "bytes32",
          "name": "",
          "type": "bytes32"
        }
      ],
      "stateMutability": "view",
      "type": "function",
      "constant": true
    },
    {
      "inputs": [],
      "name": "ROLE_CORE_CONTRACT",
      "outputs": [
        {
          "internalType": "bytes32",
          "name": "",
          "type": "bytes32"
        }
      ],
      "stateMutability": "view",
      "type": "function",
      "constant": true
    },
    {
      "inputs": [],
      "name": "ROLE_OPERATOR",
      "outputs": [
        {
          "internalType": "bytes32",
          "name": "",
          "type": "bytes32"
        }
      ],
      "stateMutability": "view",
      "type": "function",
      "constant": true
    },
    {
      "inputs": [],
      "name": "ROLE_OWNER",
      "outputs": [
        {
          "internalType": "bytes32",
          "name": "",
          "type": "bytes32"
        }
      ],
      "stateMutability": "view",
      "type": "function",
      "constant": true
    },
    {
      "inputs": [],
      "name": "ROLE_STAKE_DENYLIST",
      "outputs": [
        {
          "internalType": "bytes32",
          "name": "",
          "type": "bytes32"
        }
      ],
      "stateMutability": "view",
      "type": "function",
      "constant": true
    },
    {
      "inputs": [
        {
          "internalType": "address",
          "name": "to",
          "type": "address"
        },
        {
          "internalType": "uint256",
          "name": "tokenId",
          "type": "uint256"
        }
      ],
      "name": "approve",
      "outputs": [],
      "stateMutability": "nonpayable",
      "type": "function"
    },
    {
      "inputs": [
        {
          "internalType": "address",
          "name": "owner",
          "type": "address"
        }
      ],
      "name": "balanceOf",
      "outputs": [
        {
          "internalType": "uint256",
          "name": "",
          "type": "uint256"
        }
      ],
      "stateMutability": "view",
      "type": "function",
      "constant": true
    },
    {
      "inputs": [
        {
          "internalType": "uint256",
          "name": "tokenId",
          "type": "uint256"
        }
      ],
      "name": "getApproved",
      "outputs": [
        {
          "internalType": "address",
          "name": "",
          "type": "address"
        }
      ],
      "stateMutability": "view",
      "type": "function",
      "constant": true
    },
    {
      "inputs": [
        {
          "internalType": "bytes32",
          "name": "role",
          "type": "bytes32"
        }
      ],
      "name": "getRoleAdmin",
      "outputs": [
        {
          "internalType": "bytes32",
          "name": "",
          "type": "bytes32"
        }
      ],
      "stateMutability": "view",
      "type": "function",
      "constant": true
    },
    {
      "inputs": [
        {
          "internalType": "bytes32",
          "name": "role",
          "type": "bytes32"
        },
        {
          "internalType": "uint256",
          "name": "index",
          "type": "uint256"
        }
      ],
      "name": "getRoleMember",
      "outputs": [
        {
          "internalType": "address",
          "name": "",
          "type": "address"
        }
      ],
      "stateMutability": "view",
      "type": "function",
      "constant": true
    },
    {
      "inputs": [
        {
          "internalType": "bytes32",
          "name": "role",
          "type": "bytes32"
        }
      ],
      "name": "getRoleMemberCount",
      "outputs": [
        {
          "internalType": "uint256",
          "name": "",
          "type": "uint256"
        }
      ],
      "stateMutability": "view",
      "type": "function",
      "constant": true
    },
    {
      "inputs": [
        {
          "internalType": "bytes32",
          "name": "role",
          "type": "bytes32"
        },
        {
          "internalType": "address",
          "name": "account",
          "type": "address"
        }
      ],
      "name": "grantRole",
      "outputs": [],
      "stateMutability": "nonpayable",
      "type": "function"
    },
    {
      "inputs": [
        {
          "internalType": "uint256",
          "name": "",
          "type": "uint256"
        }
      ],
      "name": "grid",
      "outputs": [
        {
          "internalType": "uint256",
          "name": "id",
          "type": "uint256"
        },
        {
          "internalType": "uint256",
          "name": "properties",
          "type": "uint256"
        },
        {
          "internalType": "uint8",
          "name": "team",
          "type": "uint8"
        }
      ],
      "stateMutability": "view",
      "type": "function",
      "constant": true
    },
    {
      "inputs": [
        {
          "internalType": "bytes32",
          "name": "role",
          "type": "bytes32"
        },
        {
          "internalType": "address",
          "name": "account",
          "type": "address"
        }
      ],
      "name": "hasRole",
      "outputs": [
        {
          "internalType": "bool",
          "name": "",
          "type": "bool"
        }
      ],
      "stateMutability": "view",
      "type": "function",
      "constant": true
    },
    {
      "inputs": [
        {
          "internalType": "address",
          "name": "owner",
          "type": "address"
        },
        {
          "internalType": "address",
          "name": "operator",
          "type": "address"
        }
      ],
      "name": "isApprovedForAll",
      "outputs": [
        {
          "internalType": "bool",
          "name": "",
          "type": "bool"
        }
      ],
      "stateMutability": "view",
      "type": "function",
      "constant": true
    },
    {
      "inputs": [],
      "name": "name",
      "outputs": [
        {
          "internalType": "string",
          "name": "",
          "type": "string"
        }
      ],
      "stateMutability": "view",
      "type": "function",
      "constant": true
    },
    {
      "inputs": [
        {
          "internalType": "uint256",
          "name": "tokenId",
          "type": "uint256"
        }
      ],
      "name": "ownerOf",
      "outputs": [
        {
          "internalType": "address",
          "name": "",
          "type": "address"
        }
      ],
      "stateMutability": "view",
      "type": "function",
      "constant": true
    },
    {
      "inputs": [
        {
          "internalType": "bytes32",
          "name": "role",
          "type": "bytes32"
        },
        {
          "internalType": "address",
          "name": "account",
          "type": "address"
        }
      ],
      "name": "renounceRole",
      "outputs": [],
      "stateMutability": "nonpayable",
      "type": "function"
    },
    {
      "inputs": [
        {
          "internalType": "bytes32",
          "name": "role",
          "type": "bytes32"
        },
        {
          "internalType": "address",
          "name": "account",
          "type": "address"
        }
      ],
      "name": "revokeRole",
      "outputs": [],
      "stateMutability": "nonpayable",
      "type": "function"
    },
    {
      "inputs": [
        {
          "internalType": "address",
          "name": "from",
          "type": "address"
        },
        {
          "internalType": "address",
          "name": "to",
          "type": "address"
        },
        {
          "internalType": "uint256",
          "name": "tokenId",
          "type": "uint256"
        }
      ],
      "name": "safeTransferFrom",
      "outputs": [],
      "stateMutability": "nonpayable",
      "type": "function"
    },
    {
      "inputs": [
        {
          "internalType": "address",
          "name": "from",
          "type": "address"
        },
        {
          "internalType": "address",
          "name": "to",
          "type": "address"
        },
        {
          "internalType": "uint256",
          "name": "tokenId",
          "type": "uint256"
        },
        {
          "internalType": "bytes",
          "name": "_data",
          "type": "bytes"
        }
      ],
      "name": "safeTransferFrom",
      "outputs": [],
      "stateMutability": "nonpayable",
      "type": "function"
    },
    {
      "inputs": [
        {
          "internalType": "address",
          "name": "operator",
          "type": "address"
        },
        {
          "internalType": "bool",
          "name": "approved",
          "type": "bool"
        }
      ],
      "name": "setApprovalForAll",
      "outputs": [],
      "stateMutability": "nonpayable",
      "type": "function"
    },
    {
      "inputs": [],
      "name": "symbol",
      "outputs": [
        {
          "internalType": "string",
          "name": "",
          "type": "string"
        }
      ],
      "stateMutability": "view",
      "type": "function",
      "constant": true
    },
    {
      "inputs": [
        {
          "internalType": "uint256",
          "name": "index",
          "type": "uint256"
        }
      ],
      "name": "tokenByIndex",
      "outputs": [
        {
          "internalType": "uint256",
          "name": "",
          "type": "uint256"
        }
      ],
      "stateMutability": "view",
      "type": "function",
      "constant": true
    },
    {
      "inputs": [
        {
          "internalType": "address",
          "name": "owner",
          "type": "address"
        },
        {
          "internalType": "uint256",
          "name": "index",
          "type": "uint256"
        }
      ],
      "name": "tokenOfOwnerByIndex",
      "outputs": [
        {
          "internalType": "uint256",
          "name": "",
          "type": "uint256"
        }
      ],
      "stateMutability": "view",
      "type": "function",
      "constant": true
    },
    {
      "inputs": [
        {
          "internalType": "uint256",
          "name": "tokenId",
          "type": "uint256"
        }
      ],
      "name": "tokenURI",
      "outputs": [
        {
          "internalType": "string",
          "name": "",
          "type": "string"
        }
      ],
      "stateMutability": "view",
      "type": "function",
      "constant": true
    },
    {
      "inputs": [],
      "name": "totalSupply",
      "outputs": [
        {
          "internalType": "uint256",
          "name": "",
          "type": "uint256"
        }
      ],
      "stateMutability": "view",
      "type": "function",
      "constant": true
    },
    {
      "inputs": [
        {
          "internalType": "address",
          "name": "from",
          "type": "address"
        },
        {
          "internalType": "address",
          "name": "to",
          "type": "address"
        },
        {
          "internalType": "uint256",
          "name": "tokenId",
          "type": "uint256"
        }
      ],
      "name": "transferFrom",
      "outputs": [],
      "stateMutability": "nonpayable",
      "type": "function"
    },
    {
      "inputs": [
        {
          "internalType": "bytes4",
          "name": "interfaceId",
          "type": "bytes4"
        }
      ],
      "name": "supportsInterface",
      "outputs": [
        {
          "internalType": "bool",
          "name": "",
          "type": "bool"
        }
      ],
      "stateMutability": "view",
      "type": "function",
      "constant": true
    },
    {
      "inputs": [
        {
          "internalType": "uint256",
          "name": "_initialProperties",
          "type": "uint256"
        },
        {
          "internalType": "uint8",
          "name": "_initialTeam",
          "type": "uint8"
        },
        {
          "internalType": "address",
          "name": "_initialOwner",
          "type": "address"
        }
      ],
      "name": "createCell",
      "outputs": [
        {
          "internalType": "uint256",
          "name": "_cellId",
          "type": "uint256"
        }
      ],
      "stateMutability": "nonpayable",
      "type": "function"
    },
    {
      "inputs": [
        {
          "internalType": "uint256",
          "name": "_cellId",
          "type": "uint256"
        }
      ],
      "name": "getCell",
      "outputs": [
        {
          "internalType": "uint256",
          "name": "cellId",
          "type": "uint256"
        },
        {
          "internalType": "int32[2]",
          "name": "coordinates",
          "type": "int32[2]"
        },
        {
          "internalType": "uint256",
          "name": "properties",
          "type": "uint256"
        },
        {
          "internalType": "uint8",
          "name": "team",
          "type": "uint8"
        },
        {
          "internalType": "address",
          "name": "owner",
          "type": "address"
        }
      ],
      "stateMutability": "view",
      "type": "function",
      "constant": true
    },
    {
      "inputs": [
        {
          "internalType": "uint256",
          "name": "_cellId",
          "type": "uint256"
        }
      ],
      "name": "getCellLastTeamEarningsPerStake",
      "outputs": [
        {
          "internalType": "uint256",
          "name": "lastTotalEarningsPerStake",
          "type": "uint256"
        }
      ],
      "stateMutability": "view",
      "type": "function",
      "constant": true
    },
    {
      "inputs": [
        {
          "internalType": "uint256",
          "name": "_cellId",
          "type": "uint256"
        },
        {
          "internalType": "uint256",
          "name": "_properties",
          "type": "uint256"
        }
      ],
      "name": "getCellGrade",
      "outputs": [
        {
          "internalType": "uint8",
          "name": "_grade",
          "type": "uint8"
        }
      ],
      "stateMutability": "pure",
      "type": "function",
      "constant": true
    },
    {
      "inputs": [
        {
          "internalType": "uint8",
          "name": "_grade",
          "type": "uint8"
        }
      ],
      "name": "getStake",
      "outputs": [
        {
          "internalType": "uint8",
          "name": "",
          "type": "uint8"
        }
      ],
      "stateMutability": "pure",
      "type": "function",
      "constant": true
    },
    {
      "inputs": [
        {
          "internalType": "uint8",
          "name": "team",
          "type": "uint8"
        }
      ],
      "name": "getTeamEarnings",
      "outputs": [
        {
          "internalType": "uint256",
          "name": "teamEarnings",
          "type": "uint256"
        },
        {
          "internalType": "uint256",
          "name": "teamEarningsPerStake",
          "type": "uint256"
        }
      ],
      "stateMutability": "view",
      "type": "function",
      "constant": true
    },
    {
      "inputs": [
        {
          "internalType": "uint8",
          "name": "team",
          "type": "uint8"
        }
      ],
      "name": "getTeamStake",
      "outputs": [
        {
          "internalType": "uint256",
          "name": "teamStake",
          "type": "uint256"
        }
      ],
      "stateMutability": "view",
      "type": "function",
      "constant": true
    },
    {
      "inputs": [],
      "name": "getAllTeamEarnings",
      "outputs": [
        {
          "internalType": "uint256[8]",
          "name": "teamEarnings",
          "type": "uint256[8]"
        },
        {
          "internalType": "uint256[8]",
          "name": "teamEarningsPerStake",
          "type": "uint256[8]"
        }
      ],
      "stateMutability": "view",
      "type": "function",
      "constant": true
    },
    {
      "inputs": [],
      "name": "getAllTeamStakes",
      "outputs": [
        {
          "internalType": "uint256[8]",
          "name": "teamStake",
          "type": "uint256[8]"
        }
      ],
      "stateMutability": "view",
      "type": "function",
      "constant": true
    },
    {
      "inputs": [
        {
          "internalType": "uint256",
          "name": "_cellId",
          "type": "uint256"
        },
        {
          "internalType": "uint8",
          "name": "_newTeam",
          "type": "uint8"
        }
      ],
      "name": "setTeam",
      "outputs": [],
      "stateMutability": "nonpayable",
      "type": "function"
    },
    {
      "inputs": [
        {
          "internalType": "uint256[8]",
          "name": "_newTeamTotalEarnings",
          "type": "uint256[8]"
        },
        {
          "internalType": "uint256[8]",
          "name": "_newTeamTotalEarningsPerStake",
          "type": "uint256[8]"
        }
      ],
      "name": "setAllTeamEarnings",
      "outputs": [],
      "stateMutability": "nonpayable",
      "type": "function"
    },
    {
      "inputs": [
        {
          "internalType": "uint256",
          "name": "_cellId",
          "type": "uint256"
        }
      ],
      "name": "updateCellLastTeamEarningsPerStake",
      "outputs": [],
      "stateMutability": "nonpayable",
      "type": "function"
    }
  ],
  "bytecode": "0x60806040523480156200001157600080fd5b50604080518082018252600981526811dc9a590810d95b1b60ba1b60208083019182528351808501909452600484526310d1531360e21b9084015281519192916200005f9160009162000252565b5080516200007590600190602084019062000252565b505050620000aa7f9f4e1c871d5fdd0aee1cd182666698a4492b24c6832aac230d07b11046af5a8933620000bd60201b60201c565b620000b7600033620000bd565b62000335565b620000d482826200010060201b620015021760201c565b6000828152600b60209081526040909120620000fb9183906200150c62000110821b17901c565b505050565b6200010c828262000130565b5050565b600062000127836001600160a01b038416620001bc565b90505b92915050565b6200013c82826200020b565b6200010c576000828152600a602090815260408083206001600160a01b03851684529091529020805460ff191660011790556200017862000236565b6001600160a01b0316816001600160a01b0316837f2f8788117e7eff1d82e926ec794901d17c78024a50270940304540a733656f0d60405160405180910390a45050565b6000620001ca83836200023a565b62000202575081546001818101845560008481526020808220909301849055845484825282860190935260409020919091556200012a565b5060006200012a565b6000918252600a602090815260408084206001600160a01b0393909316845291905290205460ff1690565b3390565b60009081526001919091016020526040902054151590565b8280546200026090620002f8565b90600052602060002090601f016020900481019282620002845760008555620002cf565b82601f106200029f57805160ff1916838001178555620002cf565b82800160010185558215620002cf579182015b82811115620002cf578251825591602001919060010190620002b2565b50620002dd929150620002e1565b5090565b5b80821115620002dd5760008155600101620002e2565b6002810460018216806200030d57607f821691505b602082108114156200032f57634e487b7160e01b600052602260045260246000fd5b50919050565b613a8580620003456000396000f3fe608060405234801561001057600080fd5b50600436106102535760003560e01c80635a4493a911610146578063a217fddf116100c3578063c87b56dd11610087578063c87b56dd14610511578063ca15c87314610524578063d547741f14610537578063e06e63a81461054a578063e70b84a91461055d578063e985e9c51461057257610253565b8063a217fddf146104bd578063a22cb465146104c5578063a7278549146104d8578063b408b355146104eb578063b88d4fde146104fe57610253565b80638ad682af1161010a5780638ad682af1461047f5780639010d07c1461048757806391d148541461049a57806395d89b41146104ad57806398a1b397146104b557610253565b80635a4493a91461041e5780635d09abbe146104265780636352211e1461043957806370a082311461044c5780637bbe0db71461045f57610253565b8063248a9ca3116101d45780633b3e3558116101985780633b3e3558146103a257806342842e0e146103b5578063463ead81146103c85780634f6ccce7146103e957806351d2cc8f146103fc57610253565b8063248a9ca31461034e5780632f2ff15d146103615780632f745c59146103745780633371de581461038757806336568abe1461038f57610253565b80630d4dd4af1161021b5780630d4dd4af146102dc57806318160ddd146102ef578063206848f61461030457806320e42d301461032857806323b872dd1461033b57610253565b806301ffc9a7146102555780630588f7e91461027e57806306fdde0314610294578063081812fc146102a9578063095ea7b3146102c9575b005b610268610263366004612cdd565b610585565b6040516102759190612f7f565b60405180910390f35b6102866105b2565b604051610275929190612f62565b61029c610631565b6040516102759190612f93565b6102bc6102b7366004612c82565b6106c3565b6040516102759190612ecd565b6102536102d7366004612c2c565b61070f565b6102536102ea366004612c82565b6107a7565b6102f76107d4565b6040516102759190612f8a565b610317610312366004612c82565b6107da565b604051610275959493929190613671565b6102f7610336366004612c82565b6108e4565b610253610349366004612aff565b6108f6565b6102f761035c366004612c82565b61092e565b61025361036f366004612c9a565b610943565b6102f7610382366004612c2c565b610965565b6102f76109ba565b61025361039d366004612c9a565b6109cc565b6102536103b0366004612c55565b6109ee565b6102536103c3366004612aff565b610b58565b6103db6103d6366004612d72565b610b73565b6040516102759291906136ad565b6102f76103f7366004612c82565b610bee565b61040f61040a366004612c82565b610c49565b604051610275939291906136bb565b6102f7610c7f565b6102f7610434366004612d72565b610ca3565b6102bc610447366004612c82565b610cf4565b6102f761045a366004612ab3565b610d29565b61047261046d366004612d72565b610d6d565b60405161027591906136d4565b6102f7610db3565b6102bc610495366004612cbc565b610dd7565b6102686104a8366004612c9a565b610df6565b61029c610e21565b6102f7610e30565b6102f7610e54565b6102536104d3366004612bf2565b610e59565b6104726104e6366004612cbc565b610f27565b6102f76104f9366004612d37565b610fb7565b61025361050c366004612b3a565b6111c7565b61029c61051f366004612c82565b611200565b6102f7610532366004612c82565b611282565b610253610545366004612c9a565b611299565b610253610558366004612d15565b6112a3565b610565611498565b6040516102759190612f53565b610268610580366004612acd565b6114d4565b60006001600160e01b031982166347b4a94d60e01b14806105aa57506105aa82611521565b90505b919050565b6105ba61290b565b6105c261290b565b60408051610100810191829052601491601c9190839060089082845b8154815260200190600101908083116105de5750506040805161010081019182905294965085935060089250905082845b81548152602001906001019080831161060f5750505050509050915091509091565b6060600080546106409061392c565b80601f016020809104026020016040519081016040528092919081815260200182805461066c9061392c565b80156106b95780601f1061068e576101008083540402835291602001916106b9565b820191906000526020600020905b81548152906001019060200180831161069c57829003601f168201915b5050505050905090565b60006106ce82611546565b6106f35760405162461bcd60e51b81526004016106ea906133a4565b60405180910390fd5b506000908152600460205260409020546001600160a01b031690565b600061071a82610cf4565b9050806001600160a01b0316836001600160a01b0316141561074e5760405162461bcd60e51b81526004016106ea90613544565b806001600160a01b0316610760611563565b6001600160a01b0316148061077c575061077c81610580611563565b6107985760405162461bcd60e51b81526004016106ea9061323b565b6107a28383611567565b505050565b600080516020613a308339815191526107c7816107c2611563565b6115d5565b6107d082611639565b5050565b60085490565b60006107e461292a565b600080600080861180156107ff57506107fb6107d4565b8611155b61081b5760405162461bcd60e51b81526004016106ea9061350d565b6000602561082a6001896138d2565b8154811061084857634e487b7160e01b600052603260045260246000fd5b90600052602060002090600402019050868160010182600201548360030160009054906101000a900460ff1661087d8b610cf4565b6040805180820191829052908590600290826000855b82829054906101000a900460030b60030b8152602001906004019060208260030104928301926001038202915080841161089357905050505050509350955095509550955095505091939590929450565b60009081526024602052604090205490565b610907610901611563565b826116ed565b6109235760405162461bcd60e51b81526004016106ea90613585565b6107a2838383611772565b6000908152600a602052604090206001015490565b61094d828261189f565b6000828152600b602052604090206107a2908261150c565b600061097083610d29565b821061098e5760405162461bcd60e51b81526004016106ea9061301d565b506001600160a01b03821660009081526006602090815260408083208484529091529020545b92915050565b600080516020613a3083398151915281565b6109d682826118be565b6000828152600b602052604090206107a29082611900565b600080516020613a30833981519152610a09816107c2611563565b601454835110801590610a225750601554602084015110155b8015610a345750601654604084015110155b8015610a465750601754606084015110155b8015610a585750601854608084015110155b8015610a6a575060195460a084015110155b8015610a7c5750601a5460c084015110155b8015610a8e5750601b5460e084015110155b8015610a9d5750601c54825110155b8015610aaf5750601d54602083015110155b8015610ac15750601e54604083015110155b8015610ad35750601f54606083015110155b8015610ae55750602054608083015110155b8015610af7575060215460a083015110155b8015610b09575060225460c083015110155b8015610b1b575060235460e083015110155b610b375760405162461bcd60e51b81526004016106ea906134bf565b610b446014846008612948565b50610b52601c836008612948565b50505050565b6107a2838383604051806020016040528060008152506111c7565b60008060088360ff1610610b995760405162461bcd60e51b81526004016106ea9061314e565b60148360ff1660088110610bbd57634e487b7160e01b600052603260045260246000fd5b0154601c8460ff1660088110610be357634e487b7160e01b600052603260045260246000fd5b015491509150915091565b6000610bf86107d4565b8210610c165760405162461bcd60e51b81526004016106ea906135d6565b60088281548110610c3757634e487b7160e01b600052603260045260246000fd5b90600052602060002001549050919050565b60258181548110610c5957600080fd5b600091825260209091206004909102018054600282015460039092015490925060ff1683565b7fcec7a5448ae2e4d95a5b7da50fd728f829dc4af9acdc7ca694b2bc596fddcbaf81565b600060088260ff1610610cc85760405162461bcd60e51b81526004016106ea9061314e565b600c8260ff1660088110610cec57634e487b7160e01b600052603260045260246000fd5b015492915050565b6000818152600260205260408120546001600160a01b0316806105aa5760405162461bcd60e51b81526004016106ea906132e2565b60006001600160a01b038216610d515760405162461bcd60e51b81526004016106ea90613298565b506001600160a01b031660009081526003602052604090205490565b60008160ff1660041415610d835750600a6105ad565b8160ff1660031415610d97575060056105ad565b8160ff1660021415610dab575060026105ad565b506001919050565b7f9f4e1c871d5fdd0aee1cd182666698a4492b24c6832aac230d07b11046af5a8981565b6000828152600b60205260408120610def9083611915565b9392505050565b6000918252600a602090815260408084206001600160a01b0393909316845291905290205460ff1690565b6060600180546106409061392c565b7faa3edb77f7c8cc9e38e8afe78954f703aeeda7fffe014eeb6e56ea84e62f6da781565b600081565b610e61611563565b6001600160a01b0316826001600160a01b03161415610e925760405162461bcd60e51b81526004016106ea906131b8565b8060056000610e9f611563565b6001600160a01b03908116825260208083019390935260409182016000908120918716808252919093529120805460ff191692151592909217909155610ee3611563565b6001600160a01b03167f17307eab39ab6107e8899845ad3d59bd9653f200f220920489ca2b5937696c3183604051610f1b9190612f7f565b60405180910390a35050565b600081600181811a60081b61ff001690851415610f475760049250610faf565b600985111580610f5d575061028a8161ffff1611155b15610f6b5760039250610faf565b601985111580610f815750610cb28161ffff1611155b15610f8f5760029250610faf565b603185111580610fa557506126668161ffff1611155b15610faf57600192505b505092915050565b6000610fe37faa3edb77f7c8cc9e38e8afe78954f703aeeda7fffe014eeb6e56ea84e62f6da733610df6565b806110015750611001600080516020613a3083398151915233610df6565b61101d5760405162461bcd60e51b81526004016106ea906130ba565b6001600160a01b0382166110435760405162461bcd60e51b81526004016106ea9061332b565b600061104d6107d4565b905084806110865742338360405160200161106a93929190612ea5565b6040516020818303038152906040528051906020012060001c90505b600060405180608001604052808460016110a09190613778565b81526020016110ae85611921565b8152602080820185905260ff89166040909201919091526025805460018101825560009190915282517f401968ff42a154441da5f6c4c935ac46b8671f0e062baaa62a7545ba53bb6e4c600490920291820190815591830151929350839261113a917f401968ff42a154441da5f6c4c935ac46b8671f0e062baaa62a7545ba53bb6e4d01906002612986565b50604082015160028201556060909101516003909101805460ff191660ff909216919091179055805161116e908690611b15565b80600001517f645f4138adb1d06d3f238fb4194340c83b5e70fc4c7621868db9a675a43e2eb9826020015183604001518460600151896040516111b49493929190612f1e565b60405180910390a2519695505050505050565b6111d86111d2611563565b836116ed565b6111f45760405162461bcd60e51b81526004016106ea90613585565b610b5284848484611b2f565b606061120b82611546565b6112275760405162461bcd60e51b81526004016106ea90613470565b6000611231611b62565b905060008151116112515760405180602001604052806000815250610def565b8061125b84611b74565b60405160200161126c929190612e01565b6040516020818303038152906040529392505050565b6000818152600b602052604081206105aa90611c8f565b6109d68282611c9a565b600080516020613a308339815191526112be816107c2611563565b6000831180156112d557506112d16107d4565b8311155b6112f15760405162461bcd60e51b81526004016106ea9061350d565b600060256113006001866138d2565b8154811061131e57634e487b7160e01b600052603260045260246000fd5b90600052602060002090600402019050600061134282600001548360020154610f27565b9050600061134f82610d6d565b600384015490915060ff80831691600c91166008811061137f57634e487b7160e01b600052603260045260246000fd5b01600082825461138f91906138d2565b9091555050600383015460ff868116911614156113be5760405162461bcd60e51b81526004016106ea906133f0565b8060ff16600c8660ff16600881106113e657634e487b7160e01b600052603260045260246000fd5b0160008282546113f69190613778565b90915550601c905060ff86166008811061142057634e487b7160e01b600052603260045260246000fd5b015460008781526024602052604090819020919091556003840154905160ff8088169289927f55518b8725215183cf0357018ad48320f2606673348595081a28b28554d6a3829261147492169042906136e2565b60405180910390a35050600301805460ff191660ff93909316929092179091555050565b6114a061290b565b6040805161010081019182905290600c9060089082845b8154815260200190600101908083116114b7575050505050905090565b6001600160a01b03918216600090815260056020908152604080832093909416825291909152205460ff1690565b6107d08282611cb9565b6000610def836001600160a01b038416611d40565b60006001600160e01b03198216635a05180f60e01b14806105aa57506105aa82611d8a565b6000908152600260205260409020546001600160a01b0316151590565b3390565b600081815260046020526040902080546001600160a01b0319166001600160a01b038416908117909155819061159c82610cf4565b6001600160a01b03167f8c5be1e5ebec7d5bd14f71427d1e84f3dd0314c0f7b2291e5b200ac8c7c3b92560405160405180910390a45050565b6115df8282610df6565b6107d0576115f7816001600160a01b03166014611daf565b611602836020611daf565b604051602001611613929190612e30565b60408051601f198184030181529082905262461bcd60e51b82526106ea91600401612f93565b600081118015611650575061164c6107d4565b8111155b61166c5760405162461bcd60e51b81526004016106ea9061350d565b6000602561167b6001846138d2565b8154811061169957634e487b7160e01b600052603260045260246000fd5b600091825260209091206004909102016003810154909150601c9060ff16600881106116d557634e487b7160e01b600052603260045260246000fd5b01546000928352602460205260409092209190915550565b60006116f882611546565b6117145760405162461bcd60e51b81526004016106ea906131ef565b600061171f83610cf4565b9050806001600160a01b0316846001600160a01b0316148061175a5750836001600160a01b031661174f846106c3565b6001600160a01b0316145b8061176a575061176a81856114d4565b949350505050565b826001600160a01b031661178582610cf4565b6001600160a01b0316146117ab5760405162461bcd60e51b81526004016106ea90613427565b6001600160a01b0382166117d15760405162461bcd60e51b81526004016106ea90613174565b6117dc838383611f61565b6117e7600082611567565b6001600160a01b03831660009081526003602052604081208054600192906118109084906138d2565b90915550506001600160a01b038216600090815260036020526040812080546001929061183e908490613778565b909155505060008181526002602052604080822080546001600160a01b0319166001600160a01b0386811691821790925591518493918716917fddf252ad1be2c89b69c2b068fc378daa952ba7f163c4a11628f55a4df523b3ef91a4505050565b6118a88261092e565b6118b4816107c2611563565b6107a28383611cb9565b6118c6611563565b6001600160a01b0316816001600160a01b0316146118f65760405162461bcd60e51b81526004016106ea90613622565b6107d08282612169565b6000610def836001600160a01b0384166121ee565b6000610def8383612305565b61192961292a565b81611948575060408051808201909152600080825260208201526105ad565b60006119538361235e565b90506000611962600183613889565b90506000611971600283613790565b61197c906001613730565b90506000600261198d600184613889565b6119988460086137df565b6119a291906137df565b6119ac9190613790565b905060006119bb8360026137df565b905060006119ca8460086137df565b6119d4848a613889565b6119de919061397c565b905060006119ec8383613790565b90508060030b60001415611a3d5760405180604001604052808684611a119190613889565b60030b60030b815260200186611a26906139b2565b60030b60030b8152509750505050505050506105ad565b8060030b60011415611a775760405180604001604052808660030b60030b8152602001868585611a6d919061397c565b611a269190613889565b8060030b60021415611ac75760405180604001604052808484611a9a919061397c565b611aa49088613889565b60030b60030b81526020018660030b60030b8152509750505050505050506105ad565b8060030b60031415611b0957604051806040016040528086611ae8906139b2565b60030b60030b81526020018484611aff919061397c565b611a269088613889565b50505050505050919050565b6107d08282604051806020016040528060008152506123b7565b611b3a848484611772565b611b46848484846123ea565b610b525760405162461bcd60e51b81526004016106ea90613068565b60408051602081019091526000815290565b606081611b9957506040805180820190915260018152600360fc1b60208201526105ad565b8160005b8115611bc35780611bad81613961565b9150611bbc9050600a836137cb565b9150611b9d565b60008167ffffffffffffffff811115611bec57634e487b7160e01b600052604160045260246000fd5b6040519080825280601f01601f191660200182016040528015611c16576020820181803683370190505b5090505b841561176a57611c2b6001836138d2565b9150611c38600a8661399e565b611c43906030613778565b60f81b818381518110611c6657634e487b7160e01b600052603260045260246000fd5b60200101906001600160f81b031916908160001a905350611c88600a866137cb565b9450611c1a565b60006105aa82612505565b611ca38261092e565b611caf816107c2611563565b6107a28383612169565b611cc38282610df6565b6107d0576000828152600a602090815260408083206001600160a01b03851684529091529020805460ff19166001179055611cfc611563565b6001600160a01b0316816001600160a01b0316837f2f8788117e7eff1d82e926ec794901d17c78024a50270940304540a733656f0d60405160405180910390a45050565b6000611d4c8383612509565b611d82575081546001818101845560008481526020808220909301849055845484825282860190935260409020919091556109b4565b5060006109b4565b60006001600160e01b03198216637965db0b60e01b14806105aa57506105aa82612521565b60606000611dbe83600261386a565b611dc9906002613778565b67ffffffffffffffff811115611def57634e487b7160e01b600052604160045260246000fd5b6040519080825280601f01601f191660200182016040528015611e19576020820181803683370190505b509050600360fc1b81600081518110611e4257634e487b7160e01b600052603260045260246000fd5b60200101906001600160f81b031916908160001a905350600f60fb1b81600181518110611e7f57634e487b7160e01b600052603260045260246000fd5b60200101906001600160f81b031916908160001a9053506000611ea384600261386a565b611eae906001613778565b90505b6001811115611f42576f181899199a1a9b1b9c1cb0b131b232b360811b85600f1660108110611ef057634e487b7160e01b600052603260045260246000fd5b1a60f81b828281518110611f1457634e487b7160e01b600052603260045260246000fd5b60200101906001600160f81b031916908160001a90535060049490941c93611f3b81613915565b9050611eb1565b508315610def5760405162461bcd60e51b81526004016106ea90612fe8565b611f6c838383612546565b60006001600160a01b03841615801590611f9b5750611f99600080516020613a3083398151915285610df6565b155b8015611fce5750611fcc7fcec7a5448ae2e4d95a5b7da50fd728f829dc4af9acdc7ca694b2bc596fddcbaf85610df6565b155b905060006001600160a01b03841615801590611ff5575061dead6001600160a01b03851614155b80156120165750612014600080516020613a3083398151915285610df6565b155b801561204957506120477fcec7a5448ae2e4d95a5b7da50fd728f829dc4af9acdc7ca694b2bc596fddcbaf85610df6565b155b90506000602561205a6001866138d2565b8154811061207857634e487b7160e01b600052603260045260246000fd5b906000526020600020906004020190506000612098858360020154610f27565b9050831580156120a55750825b156120fb576120b381610d6d565b600383015460ff91821691600c9116600881106120e057634e487b7160e01b600052603260045260246000fd5b0160008282546120f09190613778565b909155506121579050565b838015612106575082155b156121575761211481610d6d565b600383015460ff91821691600c91166008811061214157634e487b7160e01b600052603260045260246000fd5b01600082825461215191906138d2565b90915550505b61216085611639565b50505050505050565b6121738282610df6565b156107d0576000828152600a602090815260408083206001600160a01b03851684529091529020805460ff191690556121aa611563565b6001600160a01b0316816001600160a01b0316837ff6391f5c32d9c69d2a47ea670b442974b53935d1edc7fd64eb21e047a839171b60405160405180910390a45050565b600081815260018301602052604081205480156122fb5760006122126001836138d2565b8554909150600090612226906001906138d2565b9050600086600001828154811061224d57634e487b7160e01b600052603260045260246000fd5b906000526020600020015490508087600001848154811061227e57634e487b7160e01b600052603260045260246000fd5b6000918252602080832090910192909255828152600189019091526040902084905586548790806122bf57634e487b7160e01b600052603160045260246000fd5b600190038181906000526020600020016000905590558660010160008781526020019081526020016000206000905560019450505050506109b4565b60009150506109b4565b815460009082106123285760405162461bcd60e51b81526004016106ea90612fa6565b82600001828154811061234b57634e487b7160e01b600052603260045260246000fd5b9060005260206000200154905092915050565b600080600261236e846001613778565b61237891906137cb565b90508291505b818110156123b15790508060028161239681866137cb565b6123a09190613778565b6123aa91906137cb565b905061237e565b50919050565b6123c183836125cf565b6123ce60008484846123ea565b6107a25760405162461bcd60e51b81526004016106ea90613068565b60006123fe846001600160a01b03166126ae565b156124fa57836001600160a01b031663150b7a0261241a611563565b8786866040518563ffffffff1660e01b815260040161243c9493929190612ee1565b602060405180830381600087803b15801561245657600080fd5b505af1925050508015612486575060408051601f3d908101601f1916820190925261248391810190612cf9565b60015b6124e0573d8080156124b4576040519150601f19603f3d011682016040523d82523d6000602084013e6124b9565b606091505b5080516124d85760405162461bcd60e51b81526004016106ea90613068565b805181602001fd5b6001600160e01b031916630a85bd0160e11b14905061176a565b506001949350505050565b5490565b60009081526001919091016020526040902054151590565b60006001600160e01b0319821663780e9d6360e01b14806105aa57506105aa826126b4565b6125518383836107a2565b6001600160a01b03831661256d57612568816126f4565b612590565b816001600160a01b0316836001600160a01b031614612590576125908382612738565b6001600160a01b0382166125ac576125a7816127d5565b6107a2565b826001600160a01b0316826001600160a01b0316146107a2576107a282826128ae565b6001600160a01b0382166125f55760405162461bcd60e51b81526004016106ea9061336f565b6125fe81611546565b1561261b5760405162461bcd60e51b81526004016106ea90613117565b61262760008383611f61565b6001600160a01b0382166000908152600360205260408120805460019290612650908490613778565b909155505060008181526002602052604080822080546001600160a01b0319166001600160a01b03861690811790915590518392907fddf252ad1be2c89b69c2b068fc378daa952ba7f163c4a11628f55a4df523b3ef908290a45050565b3b151590565b60006001600160e01b031982166380ac58cd60e01b14806126e557506001600160e01b03198216635b5e139f60e01b145b806105aa57506105aa826128f2565b600880546000838152600960205260408120829055600182018355919091527ff3f7a9fe364faab93b216da50a3214154f22a0a2b415b23a84c8169e8b636ee30155565b6000600161274584610d29565b61274f91906138d2565b6000838152600760205260409020549091508082146127a2576001600160a01b03841660009081526006602090815260408083208584528252808320548484528184208190558352600790915290208190555b5060009182526007602090815260408084208490556001600160a01b039094168352600681528383209183525290812055565b6008546000906127e7906001906138d2565b6000838152600960205260408120546008805493945090928490811061281d57634e487b7160e01b600052603260045260246000fd5b90600052602060002001549050806008838154811061284c57634e487b7160e01b600052603260045260246000fd5b600091825260208083209091019290925582815260099091526040808220849055858252812055600880548061289257634e487b7160e01b600052603160045260246000fd5b6001900381819060005260206000200160009055905550505050565b60006128b983610d29565b6001600160a01b039093166000908152600660209081526040808320868452825280832085905593825260079052919091209190915550565b6001600160e01b031981166301ffc9a760e01b14919050565b6040518061010001604052806008906020820280368337509192915050565b60405180604001604052806002906020820280368337509192915050565b8260088101928215612976579160200282015b8281111561297657825182559160200191906001019061295b565b50612982929150612a1c565b5090565b6001830191839082156129765791602002820160005b838211156129e357835183826101000a81548163ffffffff021916908360030b63ffffffff160217905550926020019260040160208160030104928301926001030261299c565b8015612a135782816101000a81549063ffffffff02191690556004016020816003010492830192600103026129e3565b50506129829291505b5b808211156129825760008155600101612a1d565b80356001600160a01b03811681146105ad57600080fd5b600082601f830112612a58578081fd5b610100612a64816136ff565b8084868487011115612a74578485fd5b8493505b6008841015612a9857803583526001939093019260209283019201612a78565b5095945050505050565b803560ff811681146105ad57600080fd5b600060208284031215612ac4578081fd5b610def82612a31565b60008060408385031215612adf578081fd5b612ae883612a31565b9150612af660208401612a31565b90509250929050565b600080600060608486031215612b13578081fd5b612b1c84612a31565b9250612b2a60208501612a31565b9150604084013590509250925092565b60008060008060808587031215612b4f578081fd5b612b5885612a31565b93506020612b67818701612a31565b935060408601359250606086013567ffffffffffffffff80821115612b8a578384fd5b818801915088601f830112612b9d578384fd5b813581811115612baf57612baf613a00565b612bc1601f8201601f191685016136ff565b91508082528984828501011115612bd6578485fd5b8084840185840137810190920192909252939692955090935050565b60008060408385031215612c04578182fd5b612c0d83612a31565b915060208301358015158114612c21578182fd5b809150509250929050565b60008060408385031215612c3e578182fd5b612c4783612a31565b946020939093013593505050565b6000806102008385031215612c68578182fd5b612c728484612a48565b9150612af6846101008501612a48565b600060208284031215612c93578081fd5b5035919050565b60008060408385031215612cac578182fd5b82359150612af660208401612a31565b60008060408385031215612cce578182fd5b50508035926020909101359150565b600060208284031215612cee578081fd5b8135610def81613a16565b600060208284031215612d0a578081fd5b8151610def81613a16565b60008060408385031215612d27578182fd5b82359150612af660208401612aa2565b600080600060608486031215612d4b578081fd5b83359250612d5b60208501612aa2565b9150612d6960408501612a31565b90509250925092565b600060208284031215612d83578081fd5b610def82612aa2565b8060005b6002811015610b5257815160030b845260209384019390910190600101612d90565b8060005b6008811015610b52578151845260209384019390910190600101612db6565b60008151808452612ded8160208601602086016138e9565b601f01601f19169290920160200192915050565b60008351612e138184602088016138e9565b835190830190612e278183602088016138e9565b01949350505050565b60007f416363657373436f6e74726f6c3a206163636f756e742000000000000000000082528351612e688160178501602088016138e9565b7001034b99036b4b9b9b4b733903937b6329607d1b6017918401918201528351612e998160288401602088016138e9565b01602801949350505050565b92835260609190911b6bffffffffffffffffffffffff19166020830152603482015260540190565b6001600160a01b0391909116815260200190565b6001600160a01b0385811682528416602082015260408101839052608060608201819052600090612f1490830184612dd5565b9695505050505050565b60a08101612f2c8287612d8c565b604082019490945260ff9290921660608301526001600160a01b0316608090910152919050565b61010081016109b48284612db2565b6102008101612f718285612db2565b610def610100830184612db2565b901515815260200190565b90815260200190565b600060208252610def6020830184612dd5565b60208082526022908201527f456e756d657261626c655365743a20696e646578206f7574206f6620626f756e604082015261647360f01b606082015260800190565b6020808252818101527f537472696e67733a20686578206c656e67746820696e73756666696369656e74604082015260600190565b6020808252602b908201527f455243373231456e756d657261626c653a206f776e657220696e646578206f7560408201526a74206f6620626f756e647360a81b606082015260800190565b60208082526032908201527f4552433732313a207472616e7366657220746f206e6f6e20455243373231526560408201527131b2b4bb32b91034b6b83632b6b2b73a32b960711b606082015260800190565b6020808252603c908201527f4f6e6c7920616e204f50455241544f5220616e642074686520636f726520636f60408201527f6e74726163742063616e2063616c6c2063726561746543656c6c282900000000606082015260800190565b6020808252601c908201527f4552433732313a20746f6b656e20616c7265616479206d696e74656400000000604082015260600190565b6020808252600c908201526b496e76616c6964207465616d60a01b604082015260600190565b60208082526024908201527f4552433732313a207472616e7366657220746f20746865207a65726f206164646040820152637265737360e01b606082015260800190565b60208082526019908201527f4552433732313a20617070726f766520746f2063616c6c657200000000000000604082015260600190565b6020808252602c908201527f4552433732313a206f70657261746f7220717565727920666f72206e6f6e657860408201526b34b9ba32b73a103a37b5b2b760a11b606082015260800190565b60208082526038908201527f4552433732313a20617070726f76652063616c6c6572206973206e6f74206f7760408201527f6e6572206e6f7220617070726f76656420666f7220616c6c0000000000000000606082015260800190565b6020808252602a908201527f4552433732313a2062616c616e636520717565727920666f7220746865207a65604082015269726f206164647265737360b01b606082015260800190565b60208082526029908201527f4552433732313a206f776e657220717565727920666f72206e6f6e657869737460408201526832b73a103a37b5b2b760b91b606082015260800190565b60208082526024908201527f43454c4c2063616e2774206265206d696e74656420746f207a65726f206164646040820152637265737360e01b606082015260800190565b6020808252818101527f4552433732313a206d696e7420746f20746865207a65726f2061646472657373604082015260600190565b6020808252602c908201527f4552433732313a20617070726f76656420717565727920666f72206e6f6e657860408201526b34b9ba32b73a103a37b5b2b760a11b606082015260800190565b6020808252601c908201527f43454c4c20697320616c7265616479206f6e2074686973207465616d00000000604082015260600190565b60208082526029908201527f4552433732313a207472616e73666572206f6620746f6b656e2074686174206960408201526839903737ba1037bbb760b91b606082015260800190565b6020808252602f908201527f4552433732314d657461646174613a2055524920717565727920666f72206e6f60408201526e3732bc34b9ba32b73a103a37b5b2b760891b606082015260800190565b6020808252602e908201527f4e6577206561726e696e672076616c756573206d75737420657863656564207060408201526d726576696f75732076616c75657360901b606082015260800190565b6020808252601b908201527f4e6f2043454c4c20657869737473207769746820746869732049440000000000604082015260600190565b60208082526021908201527f4552433732313a20617070726f76616c20746f2063757272656e74206f776e656040820152603960f91b606082015260800190565b60208082526031908201527f4552433732313a207472616e736665722063616c6c6572206973206e6f74206f6040820152701ddb995c881b9bdc88185c1c1c9bdd9959607a1b606082015260800190565b6020808252602c908201527f455243373231456e756d657261626c653a20676c6f62616c20696e646578206f60408201526b7574206f6620626f756e647360a01b606082015260800190565b6020808252602f908201527f416363657373436f6e74726f6c3a2063616e206f6e6c792072656e6f756e636560408201526e103937b632b9903337b91039b2b63360891b606082015260800190565b85815260c081016136856020830187612d8c565b606082019490945260ff9290921660808301526001600160a01b031660a09091015292915050565b918252602082015260400190565b928352602083019190915260ff16604082015260600190565b60ff91909116815260200190565b60ff92909216825267ffffffffffffffff16602082015260400190565b604051601f8201601f1916810167ffffffffffffffff8111828210171561372857613728613a00565b604052919050565b60008160030b8360030b82821282637fffffff03821381151615613756576137566139d4565b82637fffffff1903821281161561376f5761376f6139d4565b50019392505050565b6000821982111561378b5761378b6139d4565b500190565b60008160030b8360030b806137a7576137a76139ea565b637fffffff198214600019821416156137c2576137c26139d4565b90059392505050565b6000826137da576137da6139ea565b500490565b60008160030b8360030b637fffffff8382138484138383048511828216161561380a5761380a6139d4565b637fffffff1986851282811687830587121615613829576138296139d4565b878712925085820587128484161615613844576138446139d4565b8585058712818416161561385a5761385a6139d4565b5050509290910295945050505050565b6000816000190483118215151615613884576138846139d4565b500290565b60008160030b8360030b82811281637fffffff19018312811516156138b0576138b06139d4565b81637fffffff0183138116156138c8576138c86139d4565b5090039392505050565b6000828210156138e4576138e46139d4565b500390565b60005b838110156139045781810151838201526020016138ec565b83811115610b525750506000910152565b600081613924576139246139d4565b506000190190565b60028104600182168061394057607f821691505b602082108114156123b157634e487b7160e01b600052602260045260246000fd5b6000600019821415613975576139756139d4565b5060010190565b60008260030b8061398f5761398f6139ea565b808360030b0791505092915050565b6000826139ad576139ad6139ea565b500690565b60008160030b637fffffff198114156139cd576139cd6139d4565b9003919050565b634e487b7160e01b600052601160045260246000fd5b634e487b7160e01b600052601260045260246000fd5b634e487b7160e01b600052604160045260246000fd5b6001600160e01b031981168114613a2c57600080fd5b5056fefa3c82c7c654e0505de0c01ba5109972451a2e7ffba1730c54ba78780f642622a2646970667358221220811fc1a875ba9dee4f561c2233ef0ae8357c13d0cf2386654e8ce2e4ed789f3564736f6c63430008010033",
  "immutableReferences": {},
  "source": "// SPDX-License-Identifier: GPL-3.0-or-later\r\npragma solidity ^0.8.1;\r\n\r\nimport \"./IGridCell.sol\";\r\nimport \"@openzeppelin/contracts/access/AccessControlEnumerable.sol\";\r\nimport \"@openzeppelin/contracts/token/ERC721/extensions/ERC721Enumerable.sol\";\r\nimport \"@openzeppelin/contracts/utils/introspection/IERC165.sol\";\r\n\r\n//Grid 'CELL' token contract\r\ncontract GridCell is IGridCell, ERC721Enumerable, AccessControlEnumerable {\r\n    bytes32 public constant ROLE_OWNER = keccak256(\"ROLE_OWNER\");\r\n    bytes32 public constant ROLE_OPERATOR = keccak256(\"ROLE_OPERATOR\");\r\n    bytes32 public constant ROLE_CORE_CONTRACT = keccak256(\"ROLE_CORE_CONTRACT\");\r\n    bytes32 public constant ROLE_STAKE_DENYLIST = keccak256(\"ROLE_STAKE_DENYLIST\");\r\n\r\n    /// @dev The total staked amount for each team\r\n    uint256[8] private teamTotalStake;\r\n\r\n    /// @dev The total earned amount for each team\r\n    uint256[8] private teamTotalEarnings;\r\n\r\n    /// @dev The total earned amount for each team, per stake\r\n    uint256[8] private teamTotalEarningsPerStake;\r\n\r\n    /// @dev Store the value of the team's earnings last time the CELL made a claim\r\n    mapping (uint256 => uint256) private cellIdToLastTeamTotalEarningsPerStake;\r\n\r\n    struct Cell {\r\n        uint256 id;\r\n        int32[2] coordinates;\r\n        uint256 properties;\r\n        uint8 team;\r\n    }\r\n\r\n    //all our CELLs live here\r\n    Cell[] public grid;\r\n\r\n    //The Discovery event is fired whenever a new CELL is added to The Grid\r\n    event Discovery(uint256 indexed cellId, int32[2] coordinates, uint256 properties, uint8 team, address owner);\r\n    event TeamChange(uint256 indexed cellId, uint8 teamOld, uint8 indexed teamNew, uint64 timestamp);\r\n\r\n    constructor() ERC721(\"Grid Cell\", \"CELL\") {\r\n        _setupRole(ROLE_OWNER, msg.sender);\r\n        _setupRole(DEFAULT_ADMIN_ROLE, msg.sender);\r\n    }\r\n\r\n    /// We don't want someone to be able to accidentally send funds to this contract so we \r\n    /// ensure the fallback function is not payable\r\n    fallback() external {}\r\n\r\n    //introspect yourself, fool\r\n    function supportsInterface(bytes4 interfaceId) public view virtual override(ERC721Enumerable, IERC165, AccessControlEnumerable) returns (bool) {\r\n        return interfaceId == type(IGridCell).interfaceId || super.supportsInterface(interfaceId);\r\n    }\r\n\r\n    //generate a new CELL!\r\n    function createCell(uint256 _initialProperties, uint8 _initialTeam, address _initialOwner) public override returns (uint256 _cellId) {\r\n        require(\r\n            hasRole(ROLE_OPERATOR, msg.sender) || hasRole(ROLE_CORE_CONTRACT, msg.sender), \r\n            \"Only an OPERATOR and the core contract can call createCell()\"\r\n        );\r\n\r\n        require(_initialOwner != address(0), \"CELL can't be minted to zero address\");\r\n\r\n        //get the total number of existing CELLs in the Grid (before this one is created)\r\n        uint256 _tokenCount = totalSupply();\r\n\r\n        uint256 _properties = _initialProperties;\r\n\r\n        //unless an operator is generating a unique/special CELL, properties will be randomised\r\n        if (_properties == 0) {\r\n            _properties = uint256(keccak256(abi.encodePacked(block.timestamp, msg.sender, _tokenCount)));\r\n        }\r\n\r\n        Cell memory _newCell = Cell({\r\n            id: _tokenCount + 1,\r\n            coordinates: _getCoordinates(_tokenCount),\r\n            properties: _properties,\r\n            team: _initialTeam\r\n        });\r\n\r\n        grid.push(_newCell);\r\n\r\n        //create the NFT\r\n        _safeMint(_initialOwner, _newCell.id);\r\n\r\n        //inform the world of the newest discovered CELL!\r\n        emit Discovery(_newCell.id, _newCell.coordinates, _newCell.properties, _newCell.team, _initialOwner);\r\n\r\n        return _newCell.id;\r\n    }\r\n\r\n    //retrieve details of a CELL identified by its ID\r\n    function getCell(uint256 _cellId) external view override returns (\r\n            uint256 cellId, \r\n            int32[2] memory coordinates, \r\n            uint256 properties, \r\n            uint8 team, \r\n            address owner\r\n        ) {\r\n        require(\r\n            _cellId > 0 && _cellId <= totalSupply(),\r\n            \"No CELL exists with this ID\"\r\n        );\r\n\r\n        Cell storage cell = grid[_cellId - 1];\r\n\r\n        return (_cellId, cell.coordinates, cell.properties, cell.team, ownerOf(_cellId));\r\n    }\r\n\r\n    function getCellLastTeamEarningsPerStake(uint256 _cellId) external view override returns (uint256 lastTotalEarningsPerStake) {\r\n        return cellIdToLastTeamTotalEarningsPerStake[_cellId];\r\n    }\r\n\r\n    function getCellGrade(uint256 _cellId, uint256 _properties) public pure override returns (uint8 _grade) {\r\n        bytes32 _propertiesBytes = bytes32(_properties);\r\n\r\n        //create a number from 0 to 2^16 out of the second and third bytes\r\n        uint16 _gradeProperties = uint16(_propertiesBytes[1] | bytes2(_propertiesBytes[2] << 8));\r\n\r\n        //set a default grade then check if this Cell is special\r\n        _grade = 0;\r\n\r\n        //central Cell has a higher grade than any other\r\n        if (_cellId == 1) {\r\n            _grade = 4;\r\n        //1% of cells are Deluxe quality (as well as all Cells within the second central cartographical square)\r\n        } else if (_cellId <= 9 || _gradeProperties <= 650) {\r\n            _grade = 3;\r\n        //5% of cells are Premium quality (as well as all Cells within the third central cartographical square)\r\n        } else if (_cellId <= 25 || _gradeProperties <= 3250) {\r\n            _grade = 2;\r\n        //10% of cells are Standard+ quality (as well as all Cells within the fourth central cartographical square)\r\n        } else if (_cellId <= 49 || _gradeProperties <= 9830) {\r\n            _grade = 1;\r\n        }\r\n\r\n        return _grade;\r\n    }\r\n\r\n    function getStake(uint8 _grade) public pure override returns (uint8) {\r\n        //Perfect grade = 10x mining speed\r\n        if (_grade == 4) {\r\n            return 10;\r\n        //Deluxe grade = 5x mining speed\r\n        } else if (_grade == 3) {\r\n            return 5;\r\n        //Premium grade = 2x mining speed\r\n        } else if (_grade == 2) {\r\n            return 2;\r\n        }\r\n\r\n        //default = 1x mining speed\r\n        return 1;\r\n    }\r\n\r\n    function getTeamEarnings(uint8 team) external view override returns (uint256 teamEarnings, uint256 teamEarningsPerStake) {\r\n        require(team >= 0 && team < 8, \"Invalid team\");\r\n\r\n        return (teamTotalEarnings[team], teamTotalEarningsPerStake[team]);\r\n    }\r\n\r\n    function getTeamStake(uint8 team) external view override returns (uint256 teamStake) {\r\n        require(team >= 0 && team < 8, \"Invalid team\");\r\n\r\n        return teamTotalStake[team];\r\n    }\r\n\r\n    function getAllTeamEarnings() external view override returns (uint256[8] memory teamEarnings, uint256[8] memory teamEarningsPerStake) {\r\n        return (teamTotalEarnings, teamTotalEarningsPerStake);\r\n    }\r\n\r\n    function getAllTeamStakes() external view override returns (uint256[8] memory teamStake) {\r\n        return teamTotalStake;\r\n    }\r\n\r\n    //update the CELL's team\r\n    function setTeam(uint256 _cellId, uint8 _newTeam) external override onlyRole(ROLE_CORE_CONTRACT) {\r\n        require(\r\n            _cellId > 0 && _cellId <= totalSupply(),\r\n            \"No CELL exists with this ID\"\r\n        );\r\n\r\n        Cell storage cell = grid[_cellId - 1];\r\n\r\n        //remove this CELL's stake from its old team\r\n        uint8 _grade = getCellGrade(cell.id, cell.properties);\r\n        uint8 _stake = getStake(_grade);\r\n\r\n        teamTotalStake[cell.team] -= _stake;\r\n\r\n        require(cell.team != _newTeam, \"CELL is already on this team\");\r\n\r\n        //add this new CELL's stake to its new team\r\n        teamTotalStake[_newTeam] += _stake;\r\n\r\n        //mark the point at which this CELL started earning for this new team\r\n        cellIdToLastTeamTotalEarningsPerStake[_cellId] = teamTotalEarningsPerStake[_newTeam];\r\n\r\n        emit TeamChange(_cellId, cell.team, _newTeam, uint64(block.timestamp));\r\n\r\n        cell.team = _newTeam;\r\n    }\r\n\r\n    function setAllTeamEarnings(\r\n        uint256[8] memory _newTeamTotalEarnings, \r\n        uint256[8] memory _newTeamTotalEarningsPerStake\r\n    ) external override onlyRole(ROLE_CORE_CONTRACT) {\r\n        require(\r\n            _newTeamTotalEarnings[0] >= teamTotalEarnings[0] &&\r\n            _newTeamTotalEarnings[1] >= teamTotalEarnings[1] &&\r\n            _newTeamTotalEarnings[2] >= teamTotalEarnings[2] &&\r\n            _newTeamTotalEarnings[3] >= teamTotalEarnings[3] &&\r\n            _newTeamTotalEarnings[4] >= teamTotalEarnings[4] &&\r\n            _newTeamTotalEarnings[5] >= teamTotalEarnings[5] &&\r\n            _newTeamTotalEarnings[6] >= teamTotalEarnings[6] &&\r\n            _newTeamTotalEarnings[7] >= teamTotalEarnings[7] &&\r\n            _newTeamTotalEarningsPerStake[0] >= teamTotalEarningsPerStake[0] &&\r\n            _newTeamTotalEarningsPerStake[1] >= teamTotalEarningsPerStake[1] &&\r\n            _newTeamTotalEarningsPerStake[2] >= teamTotalEarningsPerStake[2] &&\r\n            _newTeamTotalEarningsPerStake[3] >= teamTotalEarningsPerStake[3] &&\r\n            _newTeamTotalEarningsPerStake[4] >= teamTotalEarningsPerStake[4] &&\r\n            _newTeamTotalEarningsPerStake[5] >= teamTotalEarningsPerStake[5] &&\r\n            _newTeamTotalEarningsPerStake[6] >= teamTotalEarningsPerStake[6] &&\r\n            _newTeamTotalEarningsPerStake[7] >= teamTotalEarningsPerStake[7],\r\n            \"New earning values must exceed previous values\"\r\n        );\r\n\r\n        teamTotalEarnings = _newTeamTotalEarnings;\r\n        teamTotalEarningsPerStake = _newTeamTotalEarningsPerStake;\r\n    }\r\n\r\n    //allow the core contract to update a CELL's last earnings marker during a claimGridTokens() call\r\n    function updateCellLastTeamEarningsPerStake(uint256 _cellId) external override onlyRole(ROLE_CORE_CONTRACT) {\r\n        _updateCellLastTeamEarningsPerStake(_cellId);\r\n    }\r\n\r\n    //this will be called any time a CELL is minted, transferred or claims its tokens\r\n    function _updateCellLastTeamEarningsPerStake(uint256 _cellId) private {\r\n        require(\r\n            _cellId > 0 && _cellId <= totalSupply(),\r\n            \"No CELL exists with this ID\"\r\n        );\r\n\r\n        Cell storage cell = grid[_cellId - 1];\r\n\r\n        //mark the point at which the owner started earning from this CELL (since last claim or transfer)\r\n        cellIdToLastTeamTotalEarningsPerStake[_cellId] = teamTotalEarningsPerStake[cell.team];\r\n    }\r\n\r\n    /// @dev Hook that is called before any token transfer (includes minting and burning)\r\n    function _beforeTokenTransfer(address from, address to, uint256 tokenId) internal virtual override {\r\n        super._beforeTokenTransfer(from, to, tokenId);\r\n\r\n        bool _fromAllowStake = (\r\n            from != address(0) &&\r\n            !hasRole(ROLE_CORE_CONTRACT, from) &&\r\n            !hasRole(ROLE_STAKE_DENYLIST, from)\r\n        );\r\n\r\n        bool _toAllowStake = (\r\n            to != address(0) &&\r\n            to != 0x000000000000000000000000000000000000dEaD &&\r\n            !hasRole(ROLE_CORE_CONTRACT, to) &&\r\n            !hasRole(ROLE_STAKE_DENYLIST, to)\r\n        );\r\n\r\n        /*  add or remove this CELL's stake from its team under these conditions/examples:\r\n            from 0 to CORE \t\t\t(from NO to NO)     = no action\r\n            from CORE to AUCTION\t(from NO to NO)     = no action\r\n            from AUCTION to USER\t(from NO to YES)    = add stake\r\n            from USER to AUCTION\t(from YES to NO)    = subtract stake\r\n            from USER to USER\t    (from YES to YES)   = no action\r\n        */\r\n        Cell storage cell = grid[tokenId - 1];\r\n        uint8 _grade = getCellGrade(tokenId, cell.properties);\r\n\r\n        if (!_fromAllowStake && _toAllowStake) {\r\n            teamTotalStake[cell.team] += getStake(_grade);\r\n        } else if (_fromAllowStake && !_toAllowStake) {\r\n            teamTotalStake[cell.team] -= getStake(_grade);\r\n        }\r\n\r\n        //reset the claim marker\r\n        _updateCellLastTeamEarningsPerStake(tokenId);\r\n    }\r\n\r\n    //let's implement our own square root function because solidity doesn't like math\r\n    function _sqrt(uint256 _x) private pure returns (uint256 _y) {\r\n        uint256 _z = (_x + 1) / 2;\r\n\r\n        _y = _x;\r\n\r\n        while (_z < _y) {\r\n            _y = _z;\r\n            _z = ((_x / _z) + _z) / 2;\r\n        }\r\n    }\r\n\r\n    //CELL placement will be ordered in an Ulam spiral\r\n    //this function will be called only when discovering a new CELL since we don't want to have to compute co-ordinates for every usage\r\n    function _getCoordinates(uint256 _cell_index) private pure returns (int32[2] memory _coordinates) {\r\n        //start from 0,0 and spiral outwards\r\n        if (_cell_index == 0) {\r\n            return [int32(0), int32(0)];\r\n        }\r\n\r\n        uint256 _rooted = _sqrt(_cell_index);\r\n\r\n        //I could try to name these variables in a more meaningful way, but it won't really help\r\n        //Just trust the math for the Ulam function\r\n        int32 _step1 = int32(int256(_rooted)) - 1;\r\n        int32 _r = (_step1 / 2) + 1;\r\n        int32 _p = (8 * _r * (_r - 1)) / 2;\r\n        int32 _d = _r * 2;\r\n        int32 _a = (int32(int256(_cell_index)) - _p) % (_r * 8);\r\n        int32 _o = _a / _d;\r\n\r\n        if (_o == 0) {\r\n            return [_a - _r, -_r];\r\n        } else if (_o == 1) {\r\n            return [_r, (_a % _d) - _r];\r\n        } else if (_o == 2) {\r\n            return [_r - (_a % _d), _r];\r\n        } else if (_o == 3) {\r\n            return [-_r, _r - (_a % _d)];\r\n        }\r\n    }\r\n}",
  "sourcePath": "/home/luke/BSC-Grid/Solidity/contracts/GridCell.sol",
  "compiler": {
    "name": "solc",
    "version": "0.8.1+commit.df193b15.Emscripten.clang"
  },
  "schemaVersion": "3.3.3",
  "updatedAt": "2021-06-19T21:10:22.988Z",
  "networkType": "ethereum",
  "devdoc": {
    "kind": "dev",
    "methods": {
      "approve(address,uint256)": {
        "details": "See {IERC721-approve}."
      },
      "balanceOf(address)": {
        "details": "See {IERC721-balanceOf}."
      },
      "getApproved(uint256)": {
        "details": "See {IERC721-getApproved}."
      },
      "getRoleAdmin(bytes32)": {
        "details": "Returns the admin role that controls `role`. See {grantRole} and {revokeRole}. To change a role's admin, use {_setRoleAdmin}."
      },
      "getRoleMember(bytes32,uint256)": {
        "details": "Returns one of the accounts that have `role`. `index` must be a value between 0 and {getRoleMemberCount}, non-inclusive. Role bearers are not sorted in any particular way, and their ordering may change at any point. WARNING: When using {getRoleMember} and {getRoleMemberCount}, make sure you perform all queries on the same block. See the following https://forum.openzeppelin.com/t/iterating-over-elements-on-enumerableset-in-openzeppelin-contracts/2296[forum post] for more information."
      },
      "getRoleMemberCount(bytes32)": {
        "details": "Returns the number of accounts that have `role`. Can be used together with {getRoleMember} to enumerate all bearers of a role."
      },
      "grantRole(bytes32,address)": {
        "details": "Overload {grantRole} to track enumerable memberships"
      },
      "hasRole(bytes32,address)": {
        "details": "Returns `true` if `account` has been granted `role`."
      },
      "isApprovedForAll(address,address)": {
        "details": "See {IERC721-isApprovedForAll}."
      },
      "name()": {
        "details": "See {IERC721Metadata-name}."
      },
      "ownerOf(uint256)": {
        "details": "See {IERC721-ownerOf}."
      },
      "renounceRole(bytes32,address)": {
        "details": "Overload {renounceRole} to track enumerable memberships"
      },
      "revokeRole(bytes32,address)": {
        "details": "Overload {revokeRole} to track enumerable memberships"
      },
      "safeTransferFrom(address,address,uint256)": {
        "details": "See {IERC721-safeTransferFrom}."
      },
      "safeTransferFrom(address,address,uint256,bytes)": {
        "details": "See {IERC721-safeTransferFrom}."
      },
      "setApprovalForAll(address,bool)": {
        "details": "See {IERC721-setApprovalForAll}."
      },
      "symbol()": {
        "details": "See {IERC721Metadata-symbol}."
      },
      "tokenByIndex(uint256)": {
        "details": "See {IERC721Enumerable-tokenByIndex}."
      },
      "tokenOfOwnerByIndex(address,uint256)": {
        "details": "See {IERC721Enumerable-tokenOfOwnerByIndex}."
      },
      "tokenURI(uint256)": {
        "details": "See {IERC721Metadata-tokenURI}."
      },
      "totalSupply()": {
        "details": "See {IERC721Enumerable-totalSupply}."
      },
      "transferFrom(address,address,uint256)": {
        "details": "See {IERC721-transferFrom}."
      }
    },
    "stateVariables": {
      "cellIdToLastTeamTotalEarningsPerStake": {
        "details": "Store the value of the team's earnings last time the CELL made a claim"
      },
      "teamTotalEarnings": {
        "details": "The total earned amount for each team"
      },
      "teamTotalEarningsPerStake": {
        "details": "The total earned amount for each team, per stake"
      },
      "teamTotalStake": {
        "details": "The total staked amount for each team"
      }
    },
    "version": 1
  },
  "userdoc": {
    "kind": "user",
    "methods": {},
    "version": 1
  }
}