{
  "contractName": "GridToken",
  "abi": [
    {
      "inputs": [],
      "stateMutability": "nonpayable",
      "type": "constructor"
    },
    {
      "anonymous": false,
      "inputs": [
        {
          "indexed": true,
          "internalType": "address",
          "name": "owner",
          "type": "address"
        },
        {
          "indexed": true,
          "internalType": "address",
          "name": "spender",
          "type": "address"
        },
        {
          "indexed": false,
          "internalType": "uint256",
          "name": "value",
          "type": "uint256"
        }
      ],
      "name": "Approval",
      "type": "event"
    },
    {
      "anonymous": false,
      "inputs": [
        {
          "indexed": true,
          "internalType": "address",
          "name": "recipient",
          "type": "address"
        },
        {
          "indexed": false,
          "internalType": "uint256",
          "name": "amount",
          "type": "uint256"
        }
      ],
      "name": "Mint",
      "type": "event"
    },
    {
      "anonymous": false,
      "inputs": [
        {
          "indexed": true,
          "internalType": "bytes32",
          "name": "role",
          "type": "bytes32"
        },
        {
          "indexed": true,
          "internalType": "bytes32",
          "name": "previousAdminRole",
          "type": "bytes32"
        },
        {
          "indexed": true,
          "internalType": "bytes32",
          "name": "newAdminRole",
          "type": "bytes32"
        }
      ],
      "name": "RoleAdminChanged",
      "type": "event"
    },
    {
      "anonymous": false,
      "inputs": [
        {
          "indexed": true,
          "internalType": "bytes32",
          "name": "role",
          "type": "bytes32"
        },
        {
          "indexed": true,
          "internalType": "address",
          "name": "account",
          "type": "address"
        },
        {
          "indexed": true,
          "internalType": "address",
          "name": "sender",
          "type": "address"
        }
      ],
      "name": "RoleGranted",
      "type": "event"
    },
    {
      "anonymous": false,
      "inputs": [
        {
          "indexed": true,
          "internalType": "bytes32",
          "name": "role",
          "type": "bytes32"
        },
        {
          "indexed": true,
          "internalType": "address",
          "name": "account",
          "type": "address"
        },
        {
          "indexed": true,
          "internalType": "address",
          "name": "sender",
          "type": "address"
        }
      ],
      "name": "RoleRevoked",
      "type": "event"
    },
    {
      "anonymous": false,
      "inputs": [
        {
          "indexed": true,
          "internalType": "address",
          "name": "from",
          "type": "address"
        },
        {
          "indexed": true,
          "internalType": "address",
          "name": "to",
          "type": "address"
        },
        {
          "indexed": false,
          "internalType": "uint256",
          "name": "value",
          "type": "uint256"
        }
      ],
      "name": "Transfer",
      "type": "event"
    },
    {
      "stateMutability": "nonpayable",
      "type": "fallback"
    },
    {
      "inputs": [],
      "name": "DEFAULT_ADMIN_ROLE",
      "outputs": [
        {
          "internalType": "bytes32",
          "name": "",
          "type": "bytes32"
        }
      ],
      "stateMutability": "view",
      "type": "function",
      "constant": true
    },
    {
      "inputs": [],
      "name": "GRIDPerBlock",
      "outputs": [
        {
          "internalType": "uint256",
          "name": "",
          "type": "uint256"
        }
      ],
      "stateMutability": "view",
      "type": "function",
      "constant": true
    },
    {
      "inputs": [],
      "name": "ROLE_CORE_CONTRACT",
      "outputs": [
        {
          "internalType": "bytes32",
          "name": "",
          "type": "bytes32"
        }
      ],
      "stateMutability": "view",
      "type": "function",
      "constant": true
    },
    {
      "inputs": [],
      "name": "ROLE_OWNER",
      "outputs": [
        {
          "internalType": "bytes32",
          "name": "",
          "type": "bytes32"
        }
      ],
      "stateMutability": "view",
      "type": "function",
      "constant": true
    },
    {
      "inputs": [
        {
          "internalType": "address",
          "name": "owner",
          "type": "address"
        },
        {
          "internalType": "address",
          "name": "spender",
          "type": "address"
        }
      ],
      "name": "allowance",
      "outputs": [
        {
          "internalType": "uint256",
          "name": "",
          "type": "uint256"
        }
      ],
      "stateMutability": "view",
      "type": "function",
      "constant": true
    },
    {
      "inputs": [
        {
          "internalType": "address",
          "name": "spender",
          "type": "address"
        },
        {
          "internalType": "uint256",
          "name": "amount",
          "type": "uint256"
        }
      ],
      "name": "approve",
      "outputs": [
        {
          "internalType": "bool",
          "name": "",
          "type": "bool"
        }
      ],
      "stateMutability": "nonpayable",
      "type": "function"
    },
    {
      "inputs": [
        {
          "internalType": "address",
          "name": "account",
          "type": "address"
        }
      ],
      "name": "balanceOf",
      "outputs": [
        {
          "internalType": "uint256",
          "name": "",
          "type": "uint256"
        }
      ],
      "stateMutability": "view",
      "type": "function",
      "constant": true
    },
    {
      "inputs": [],
      "name": "decimals",
      "outputs": [
        {
          "internalType": "uint8",
          "name": "",
          "type": "uint8"
        }
      ],
      "stateMutability": "view",
      "type": "function",
      "constant": true
    },
    {
      "inputs": [
        {
          "internalType": "address",
          "name": "spender",
          "type": "address"
        },
        {
          "internalType": "uint256",
          "name": "subtractedValue",
          "type": "uint256"
        }
      ],
      "name": "decreaseAllowance",
      "outputs": [
        {
          "internalType": "bool",
          "name": "",
          "type": "bool"
        }
      ],
      "stateMutability": "nonpayable",
      "type": "function"
    },
    {
      "inputs": [
        {
          "internalType": "bytes32",
          "name": "role",
          "type": "bytes32"
        }
      ],
      "name": "getRoleAdmin",
      "outputs": [
        {
          "internalType": "bytes32",
          "name": "",
          "type": "bytes32"
        }
      ],
      "stateMutability": "view",
      "type": "function",
      "constant": true
    },
    {
      "inputs": [
        {
          "internalType": "bytes32",
          "name": "role",
          "type": "bytes32"
        },
        {
          "internalType": "uint256",
          "name": "index",
          "type": "uint256"
        }
      ],
      "name": "getRoleMember",
      "outputs": [
        {
          "internalType": "address",
          "name": "",
          "type": "address"
        }
      ],
      "stateMutability": "view",
      "type": "function",
      "constant": true
    },
    {
      "inputs": [
        {
          "internalType": "bytes32",
          "name": "role",
          "type": "bytes32"
        }
      ],
      "name": "getRoleMemberCount",
      "outputs": [
        {
          "internalType": "uint256",
          "name": "",
          "type": "uint256"
        }
      ],
      "stateMutability": "view",
      "type": "function",
      "constant": true
    },
    {
      "inputs": [
        {
          "internalType": "bytes32",
          "name": "role",
          "type": "bytes32"
        },
        {
          "internalType": "address",
          "name": "account",
          "type": "address"
        }
      ],
      "name": "grantRole",
      "outputs": [],
      "stateMutability": "nonpayable",
      "type": "function"
    },
    {
      "inputs": [
        {
          "internalType": "bytes32",
          "name": "role",
          "type": "bytes32"
        },
        {
          "internalType": "address",
          "name": "account",
          "type": "address"
        }
      ],
      "name": "hasRole",
      "outputs": [
        {
          "internalType": "bool",
          "name": "",
          "type": "bool"
        }
      ],
      "stateMutability": "view",
      "type": "function",
      "constant": true
    },
    {
      "inputs": [
        {
          "internalType": "address",
          "name": "spender",
          "type": "address"
        },
        {
          "internalType": "uint256",
          "name": "addedValue",
          "type": "uint256"
        }
      ],
      "name": "increaseAllowance",
      "outputs": [
        {
          "internalType": "bool",
          "name": "",
          "type": "bool"
        }
      ],
      "stateMutability": "nonpayable",
      "type": "function"
    },
    {
      "inputs": [],
      "name": "lastMintingBlock",
      "outputs": [
        {
          "internalType": "uint256",
          "name": "",
          "type": "uint256"
        }
      ],
      "stateMutability": "view",
      "type": "function",
      "constant": true
    },
    {
      "inputs": [],
      "name": "mintingCooldown",
      "outputs": [
        {
          "internalType": "uint256",
          "name": "",
          "type": "uint256"
        }
      ],
      "stateMutability": "view",
      "type": "function",
      "constant": true
    },
    {
      "inputs": [],
      "name": "name",
      "outputs": [
        {
          "internalType": "string",
          "name": "",
          "type": "string"
        }
      ],
      "stateMutability": "view",
      "type": "function",
      "constant": true
    },
    {
      "inputs": [
        {
          "internalType": "bytes32",
          "name": "role",
          "type": "bytes32"
        },
        {
          "internalType": "address",
          "name": "account",
          "type": "address"
        }
      ],
      "name": "renounceRole",
      "outputs": [],
      "stateMutability": "nonpayable",
      "type": "function"
    },
    {
      "inputs": [
        {
          "internalType": "bytes32",
          "name": "role",
          "type": "bytes32"
        },
        {
          "internalType": "address",
          "name": "account",
          "type": "address"
        }
      ],
      "name": "revokeRole",
      "outputs": [],
      "stateMutability": "nonpayable",
      "type": "function"
    },
    {
      "inputs": [],
      "name": "symbol",
      "outputs": [
        {
          "internalType": "string",
          "name": "",
          "type": "string"
        }
      ],
      "stateMutability": "view",
      "type": "function",
      "constant": true
    },
    {
      "inputs": [],
      "name": "totalSupply",
      "outputs": [
        {
          "internalType": "uint256",
          "name": "",
          "type": "uint256"
        }
      ],
      "stateMutability": "view",
      "type": "function",
      "constant": true
    },
    {
      "inputs": [
        {
          "internalType": "address",
          "name": "recipient",
          "type": "address"
        },
        {
          "internalType": "uint256",
          "name": "amount",
          "type": "uint256"
        }
      ],
      "name": "transfer",
      "outputs": [
        {
          "internalType": "bool",
          "name": "",
          "type": "bool"
        }
      ],
      "stateMutability": "nonpayable",
      "type": "function"
    },
    {
      "inputs": [
        {
          "internalType": "address",
          "name": "sender",
          "type": "address"
        },
        {
          "internalType": "address",
          "name": "recipient",
          "type": "address"
        },
        {
          "internalType": "uint256",
          "name": "amount",
          "type": "uint256"
        }
      ],
      "name": "transferFrom",
      "outputs": [
        {
          "internalType": "bool",
          "name": "",
          "type": "bool"
        }
      ],
      "stateMutability": "nonpayable",
      "type": "function"
    },
    {
      "inputs": [
        {
          "internalType": "bytes4",
          "name": "interfaceId",
          "type": "bytes4"
        }
      ],
      "name": "supportsInterface",
      "outputs": [
        {
          "internalType": "bool",
          "name": "",
          "type": "bool"
        }
      ],
      "stateMutability": "view",
      "type": "function",
      "constant": true
    },
    {
      "inputs": [],
      "name": "getCirculatingSupply",
      "outputs": [
        {
          "internalType": "uint256",
          "name": "_circulatingAmount",
          "type": "uint256"
        }
      ],
      "stateMutability": "view",
      "type": "function",
      "constant": true
    },
    {
      "inputs": [],
      "name": "mint",
      "outputs": [
        {
          "internalType": "uint256",
          "name": "_mintedAmount",
          "type": "uint256"
        }
      ],
      "stateMutability": "nonpayable",
      "type": "function"
    }
  ],
  "bytecode": "0x60806040523480156200001157600080fd5b506040518060400160405280600481526020016311dc9a5960e21b8152506040518060400160405280600481526020016311d4925160e21b8152508160039080519060200190620000649291906200025b565b5080516200007a9060049060208401906200025b565b505050620000af7f9f4e1c871d5fdd0aee1cd182666698a4492b24c6832aac230d07b11046af5a8933620000c660201b60201c565b620000bc600033620000c6565b436007556200033e565b620000dd82826200010960201b620008871760201c565b6000828152600660209081526040909120620001049183906200089562000119821b17901c565b505050565b62000115828262000139565b5050565b600062000130836001600160a01b038416620001c5565b90505b92915050565b62000145828262000214565b620001155760008281526005602090815260408083206001600160a01b03851684529091529020805460ff19166001179055620001816200023f565b6001600160a01b0316816001600160a01b0316837f2f8788117e7eff1d82e926ec794901d17c78024a50270940304540a733656f0d60405160405180910390a45050565b6000620001d3838362000243565b6200020b5750815460018181018455600084815260208082209093018490558454848252828601909352604090209190915562000133565b50600062000133565b60009182526005602090815260408084206001600160a01b0393909316845291905290205460ff1690565b3390565b60009081526001919091016020526040902054151590565b828054620002699062000301565b90600052602060002090601f0160209004810192826200028d5760008555620002d8565b82601f10620002a857805160ff1916838001178555620002d8565b82800160010185558215620002d8579182015b82811115620002d8578251825591602001919060010190620002bb565b50620002e6929150620002ea565b5090565b5b80821115620002e65760008155600101620002eb565b6002810460018216806200031657607f821691505b602082108114156200033857634e487b7160e01b600052602260045260246000fd5b50919050565b6117aa806200034e6000396000f3fe608060405234801561001057600080fd5b50600436106101a95760003560e01c806339509351116100f9578063a217fddf11610097578063ca15c87311610071578063ca15c87314610331578063cb6b8f0e14610344578063d547741f1461034c578063dd62ed3e1461035f576101a9565b8063a217fddf14610303578063a457c2d71461030b578063a9059cbb1461031e576101a9565b80639010d07c116100d35780639010d07c146102c057806391d14854146102e057806395d89b41146102f35780639b57098b146102fb576101a9565b8063395093511461029257806370a08231146102a55780638ad682af146102b8576101a9565b80632411a3e7116101665780632f2ff15d116101405780632f2ff15d1461024f578063313ce567146102625780633371de581461027757806336568abe1461027f576101a9565b80632411a3e71461022c578063248a9ca3146102345780632b112e4914610247576101a9565b806301ffc9a7146101ab57806306fdde03146101d4578063095ea7b3146101e95780631249c58b146101fc57806318160ddd1461021157806323b872dd14610219575b005b6101be6101b9366004611273565b610372565b6040516101cb9190611324565b60405180910390f35b6101dc61039f565b6040516101cb9190611338565b6101be6101f73660046111ef565b610431565b61020461044f565b6040516101cb919061132f565b610204610535565b6101be6102273660046111b4565b61053b565b6102046105d2565b610204610242366004611218565b6105de565b6102046105f3565b6101a961025d366004611230565b610643565b61026a61066a565b6040516101cb9190611680565b61020461066f565b6101a961028d366004611230565b610693565b6101be6102a03660046111ef565b6106b5565b6102046102b3366004611168565b610704565b61020461071f565b6102d36102ce366004611252565b610743565b6040516101cb9190611310565b6101be6102ee366004611230565b610762565b6101dc61078d565b61020461079c565b6102046107a1565b6101be6103193660046111ef565b6107a6565b6101be61032c3660046111ef565b610821565b61020461033f366004611218565b610835565b61020461084c565b6101a961035a366004611230565b610852565b61020461036d366004611182565b61085c565b60006001600160e01b03198216631cac75e160e11b14806103975750610397826108aa565b90505b919050565b6060600380546103ae90611723565b80601f01602080910402602001604051908101604052809291908181526020018280546103da90611723565b80156104275780601f106103fc57610100808354040283529160200191610427565b820191906000526020600020905b81548152906001019060200180831161040a57829003601f168201915b5050505050905090565b600061044561043e6108cf565b84846108d3565b5060015b92915050565b60007ffa3c82c7c654e0505de0c01ba5109972451a2e7ffba1730c54ba78780f6426226104838161047e6108cf565b610987565b60c8600754610492919061168e565b4310156104ba5760405162461bcd60e51b81526004016104b19061153a565b60405180910390fd5b6000600754436104ca91906116c5565b90506104de674563918244f40000826116a6565b4360075592506104ee33846109eb565b336001600160a01b03167f0f6798a560793a54c3bcfe86a93cde1e73087d944c0ea20544137d412139688584604051610527919061132f565b60405180910390a2505b5090565b60025490565b6000610548848484610aab565b6001600160a01b0384166000908152600160205260408120816105696108cf565b6001600160a01b03166001600160a01b03168152602001908152602001600020549050828110156105ac5760405162461bcd60e51b81526004016104b1906114ad565b6105c7856105b86108cf565b6105c286856116c5565b6108d3565b506001949350505050565b674563918244f4000081565b60009081526005602052604090206001015490565b60006105fd610535565b9050600061060c61dead610704565b6106166000610704565b610620919061168e565b90508082111561063b5761063481836116c5565b9150610531565b600091505090565b61064d8282610bd3565b60008281526006602052604090206106659082610895565b505050565b601290565b7ffa3c82c7c654e0505de0c01ba5109972451a2e7ffba1730c54ba78780f64262281565b61069d8282610bf2565b60008281526006602052604090206106659082610c34565b60006104456106c26108cf565b8484600160006106d06108cf565b6001600160a01b03908116825260208083019390935260409182016000908120918b16815292529020546105c2919061168e565b6001600160a01b031660009081526020819052604090205490565b7f9f4e1c871d5fdd0aee1cd182666698a4492b24c6832aac230d07b11046af5a8981565b600082815260066020526040812061075b9083610c49565b9392505050565b60009182526005602090815260408084206001600160a01b0393909316845291905290205460ff1690565b6060600480546103ae90611723565b60c881565b600081565b600080600160006107b56108cf565b6001600160a01b03908116825260208083019390935260409182016000908120918816815292529020549050828110156108015760405162461bcd60e51b81526004016104b1906115b5565b61081761080c6108cf565b856105c286856116c5565b5060019392505050565b600061044561082e6108cf565b8484610aab565b600081815260066020526040812061039790610c55565b60075481565b61069d8282610c60565b6001600160a01b03918216600090815260016020908152604080832093909416825291909152205490565b6108918282610c7f565b5050565b600061075b836001600160a01b038416610d06565b60006001600160e01b03198216635a05180f60e01b1480610397575061039782610d50565b3390565b6001600160a01b0383166108f95760405162461bcd60e51b81526004016104b190611571565b6001600160a01b03821661091f5760405162461bcd60e51b81526004016104b190611425565b6001600160a01b0380841660008181526001602090815260408083209487168084529490915290819020849055517f8c5be1e5ebec7d5bd14f71427d1e84f3dd0314c0f7b2291e5b200ac8c7c3b9259061097a90859061132f565b60405180910390a3505050565b6109918282610762565b610891576109a9816001600160a01b03166014610d75565b6109b4836020610d75565b6040516020016109c592919061129b565b60408051601f198184030181529082905262461bcd60e51b82526104b191600401611338565b6001600160a01b038216610a115760405162461bcd60e51b81526004016104b190611649565b610a1d60008383610665565b8060026000828254610a2f919061168e565b90915550506001600160a01b03821660009081526020819052604081208054839290610a5c90849061168e565b90915550506040516001600160a01b038316906000907fddf252ad1be2c89b69c2b068fc378daa952ba7f163c4a11628f55a4df523b3ef90610a9f90859061132f565b60405180910390a35050565b6001600160a01b038316610ad15760405162461bcd60e51b81526004016104b1906114f5565b6001600160a01b038216610af75760405162461bcd60e51b81526004016104b1906113e2565b610b02838383610665565b6001600160a01b03831660009081526020819052604090205481811015610b3b5760405162461bcd60e51b81526004016104b190611467565b610b4582826116c5565b6001600160a01b038086166000908152602081905260408082209390935590851681529081208054849290610b7b90849061168e565b92505081905550826001600160a01b0316846001600160a01b03167fddf252ad1be2c89b69c2b068fc378daa952ba7f163c4a11628f55a4df523b3ef84604051610bc5919061132f565b60405180910390a350505050565b610bdc826105de565b610be88161047e6108cf565b6106658383610c7f565b610bfa6108cf565b6001600160a01b0316816001600160a01b031614610c2a5760405162461bcd60e51b81526004016104b1906115fa565b6108918282610f27565b600061075b836001600160a01b038416610fac565b600061075b83836110c3565b60006103978261111c565b610c69826105de565b610c758161047e6108cf565b6106658383610f27565b610c898282610762565b6108915760008281526005602090815260408083206001600160a01b03851684529091529020805460ff19166001179055610cc26108cf565b6001600160a01b0316816001600160a01b0316837f2f8788117e7eff1d82e926ec794901d17c78024a50270940304540a733656f0d60405160405180910390a45050565b6000610d128383611120565b610d4857508154600181810184556000848152602080822090930184905584548482528286019093526040902091909155610449565b506000610449565b60006001600160e01b03198216637965db0b60e01b1480610397575061039782611138565b60606000610d848360026116a6565b610d8f90600261168e565b67ffffffffffffffff811115610db557634e487b7160e01b600052604160045260246000fd5b6040519080825280601f01601f191660200182016040528015610ddf576020820181803683370190505b509050600360fc1b81600081518110610e0857634e487b7160e01b600052603260045260246000fd5b60200101906001600160f81b031916908160001a905350600f60fb1b81600181518110610e4557634e487b7160e01b600052603260045260246000fd5b60200101906001600160f81b031916908160001a9053506000610e698460026116a6565b610e7490600161168e565b90505b6001811115610f08576f181899199a1a9b1b9c1cb0b131b232b360811b85600f1660108110610eb657634e487b7160e01b600052603260045260246000fd5b1a60f81b828281518110610eda57634e487b7160e01b600052603260045260246000fd5b60200101906001600160f81b031916908160001a90535060049490941c93610f018161170c565b9050610e77565b50831561075b5760405162461bcd60e51b81526004016104b1906113ad565b610f318282610762565b156108915760008281526005602090815260408083206001600160a01b03851684529091529020805460ff19169055610f686108cf565b6001600160a01b0316816001600160a01b0316837ff6391f5c32d9c69d2a47ea670b442974b53935d1edc7fd64eb21e047a839171b60405160405180910390a45050565b600081815260018301602052604081205480156110b9576000610fd06001836116c5565b8554909150600090610fe4906001906116c5565b9050600086600001828154811061100b57634e487b7160e01b600052603260045260246000fd5b906000526020600020015490508087600001848154811061103c57634e487b7160e01b600052603260045260246000fd5b60009182526020808320909101929092558281526001890190915260409020849055865487908061107d57634e487b7160e01b600052603160045260246000fd5b60019003818190600052602060002001600090559055866001016000878152602001908152602001600020600090556001945050505050610449565b6000915050610449565b815460009082106110e65760405162461bcd60e51b81526004016104b19061136b565b82600001828154811061110957634e487b7160e01b600052603260045260246000fd5b9060005260206000200154905092915050565b5490565b60009081526001919091016020526040902054151590565b6001600160e01b031981166301ffc9a760e01b14919050565b80356001600160a01b038116811461039a57600080fd5b600060208284031215611179578081fd5b61075b82611151565b60008060408385031215611194578081fd5b61119d83611151565b91506111ab60208401611151565b90509250929050565b6000806000606084860312156111c8578081fd5b6111d184611151565b92506111df60208501611151565b9150604084013590509250925092565b60008060408385031215611201578182fd5b61120a83611151565b946020939093013593505050565b600060208284031215611229578081fd5b5035919050565b60008060408385031215611242578182fd5b823591506111ab60208401611151565b60008060408385031215611264578182fd5b50508035926020909101359150565b600060208284031215611284578081fd5b81356001600160e01b03198116811461075b578182fd5b60007f416363657373436f6e74726f6c3a206163636f756e7420000000000000000000825283516112d38160178501602088016116dc565b7001034b99036b4b9b9b4b733903937b6329607d1b60179184019182015283516113048160288401602088016116dc565b01602801949350505050565b6001600160a01b0391909116815260200190565b901515815260200190565b90815260200190565b60006020825282518060208401526113578160408501602087016116dc565b601f01601f19169190910160400192915050565b60208082526022908201527f456e756d657261626c655365743a20696e646578206f7574206f6620626f756e604082015261647360f01b606082015260800190565b6020808252818101527f537472696e67733a20686578206c656e67746820696e73756666696369656e74604082015260600190565b60208082526023908201527f45524332303a207472616e7366657220746f20746865207a65726f206164647260408201526265737360e81b606082015260800190565b60208082526022908201527f45524332303a20617070726f766520746f20746865207a65726f206164647265604082015261737360f01b606082015260800190565b60208082526026908201527f45524332303a207472616e7366657220616d6f756e7420657863656564732062604082015265616c616e636560d01b606082015260800190565b60208082526028908201527f45524332303a207472616e7366657220616d6f756e74206578636565647320616040820152676c6c6f77616e636560c01b606082015260800190565b60208082526025908201527f45524332303a207472616e736665722066726f6d20746865207a65726f206164604082015264647265737360d81b606082015260800190565b6020808252601d908201527f4d696e74696e6720636f6f6c646f776e20697320696e20656666656374000000604082015260600190565b60208082526024908201527f45524332303a20617070726f76652066726f6d20746865207a65726f206164646040820152637265737360e01b606082015260800190565b60208082526025908201527f45524332303a2064656372656173656420616c6c6f77616e63652062656c6f77604082015264207a65726f60d81b606082015260800190565b6020808252602f908201527f416363657373436f6e74726f6c3a2063616e206f6e6c792072656e6f756e636560408201526e103937b632b9903337b91039b2b63360891b606082015260800190565b6020808252601f908201527f45524332303a206d696e7420746f20746865207a65726f206164647265737300604082015260600190565b60ff91909116815260200190565b600082198211156116a1576116a161175e565b500190565b60008160001904831182151516156116c0576116c061175e565b500290565b6000828210156116d7576116d761175e565b500390565b60005b838110156116f75781810151838201526020016116df565b83811115611706576000848401525b50505050565b60008161171b5761171b61175e565b506000190190565b60028104600182168061173757607f821691505b6020821081141561175857634e487b7160e01b600052602260045260246000fd5b50919050565b634e487b7160e01b600052601160045260246000fdfea26469706673582212201b67e009d84004932a1a6b4a3e7e5dccbe4e5b8d7ad48b076db9fa2b875b5a5864736f6c63430008010033",
  "immutableReferences": {},
  "source": "// SPDX-License-Identifier: GPL-3.0-or-later\npragma solidity ^0.8.1;\n\nimport \"./IGridToken.sol\";\nimport \"@openzeppelin/contracts/access/AccessControlEnumerable.sol\";\nimport \"@openzeppelin/contracts/token/ERC20/ERC20.sol\";\n\ncontract GridToken is ERC20, AccessControlEnumerable {\n    bytes32 public constant ROLE_OWNER = keccak256(\"ROLE_OWNER\");\n    bytes32 public constant ROLE_CORE_CONTRACT = keccak256(\"ROLE_CORE_CONTRACT\");\n\n    //we record the last block where a minting occurred so we can enforce a cooldown\n    uint256 public lastMintingBlock;\n\n    //minting can occur at maximum once every 200 blocks (~10 minutes on BSC with 3 second blocks)\n    uint256 public constant mintingCooldown = 200;\n\n    //constant amount of GRID created per block\n    uint256 public constant GRIDPerBlock = 5e18;\n\n    event Mint(address indexed recipient, uint256 amount);\n\n    constructor() ERC20(\"Grid\", \"GRID\") {\n        _setupRole(ROLE_OWNER, msg.sender);\n        _setupRole(DEFAULT_ADMIN_ROLE, msg.sender);\n\n        //minting can begin [mintingCooldown] blocks after the contract creation\n        lastMintingBlock = block.number;\n    }\n\n    /// We don't want someone to be able to accidentally send funds to this contract so we \n    /// ensure the fallback function is not payable\n    fallback() external {}\n\n    //introspect yourself, fool\n    function supportsInterface(bytes4 interfaceId) public view virtual override(AccessControlEnumerable) returns (bool) {\n        return interfaceId == type(IGridToken).interfaceId || super.supportsInterface(interfaceId);\n    }\n\n    //calculate the amount of minted tokens and subtract any that have been intentionally burned\n    function getCirculatingSupply() external view returns (uint256 _circulatingAmount) {\n        _circulatingAmount = totalSupply();\n\n        //any tokens sent to common burn addresses can be checked to recalculate the circulating supply\n        uint256 _burnedSupply = balanceOf(address(0)) + balanceOf(0x000000000000000000000000000000000000dEaD);\n\n        if (_circulatingAmount > _burnedSupply){\n            _circulatingAmount = _circulatingAmount - _burnedSupply;\n        } else {\n            _circulatingAmount = 0;\n        }\n\n        return _circulatingAmount;\n    }\n\n    //a minimum of (mintingCooldown * GRIDPerBlock) GRID tokens will be generated each time this successfully runs\n    function mint() external onlyRole(ROLE_CORE_CONTRACT) returns (uint256 _mintedAmount) {\n        require(\n            block.number >= lastMintingBlock + mintingCooldown,\n            \"Minting cooldown is in effect\"\n        );\n\n        //calculate the number of blocks that have elapsed since the last minting\n        uint256 _blocksSinceLastMinting = block.number - lastMintingBlock;\n\n        //calculate the amount to mint for the elapsed number of blocks\n        _mintedAmount = _blocksSinceLastMinting * GRIDPerBlock;\n        \n        //start the cooldown again\n        lastMintingBlock = block.number;\n\n        //actually generate the tokens\n        _mint(msg.sender, _mintedAmount);\n\n        //let everyone know about it\n        emit Mint(msg.sender, _mintedAmount);\n\n        return _mintedAmount;\n    }\n}",
  "sourcePath": "/home/luke/BSC-Grid/Solidity/contracts/GridToken.sol",
  "compiler": {
    "name": "solc",
    "version": "0.8.1+commit.df193b15.Emscripten.clang"
  },
  "schemaVersion": "3.3.3",
  "updatedAt": "2021-06-19T21:10:43.910Z",
  "networkType": "ethereum",
  "devdoc": {
    "kind": "dev",
    "methods": {
      "allowance(address,address)": {
        "details": "See {IERC20-allowance}."
      },
      "approve(address,uint256)": {
        "details": "See {IERC20-approve}. Requirements: - `spender` cannot be the zero address."
      },
      "balanceOf(address)": {
        "details": "See {IERC20-balanceOf}."
      },
      "decimals()": {
        "details": "Returns the number of decimals used to get its user representation. For example, if `decimals` equals `2`, a balance of `505` tokens should be displayed to a user as `5,05` (`505 / 10 ** 2`). Tokens usually opt for a value of 18, imitating the relationship between Ether and Wei. This is the value {ERC20} uses, unless this function is overridden; NOTE: This information is only used for _display_ purposes: it in no way affects any of the arithmetic of the contract, including {IERC20-balanceOf} and {IERC20-transfer}."
      },
      "decreaseAllowance(address,uint256)": {
        "details": "Atomically decreases the allowance granted to `spender` by the caller. This is an alternative to {approve} that can be used as a mitigation for problems described in {IERC20-approve}. Emits an {Approval} event indicating the updated allowance. Requirements: - `spender` cannot be the zero address. - `spender` must have allowance for the caller of at least `subtractedValue`."
      },
      "getRoleAdmin(bytes32)": {
        "details": "Returns the admin role that controls `role`. See {grantRole} and {revokeRole}. To change a role's admin, use {_setRoleAdmin}."
      },
      "getRoleMember(bytes32,uint256)": {
        "details": "Returns one of the accounts that have `role`. `index` must be a value between 0 and {getRoleMemberCount}, non-inclusive. Role bearers are not sorted in any particular way, and their ordering may change at any point. WARNING: When using {getRoleMember} and {getRoleMemberCount}, make sure you perform all queries on the same block. See the following https://forum.openzeppelin.com/t/iterating-over-elements-on-enumerableset-in-openzeppelin-contracts/2296[forum post] for more information."
      },
      "getRoleMemberCount(bytes32)": {
        "details": "Returns the number of accounts that have `role`. Can be used together with {getRoleMember} to enumerate all bearers of a role."
      },
      "grantRole(bytes32,address)": {
        "details": "Overload {grantRole} to track enumerable memberships"
      },
      "hasRole(bytes32,address)": {
        "details": "Returns `true` if `account` has been granted `role`."
      },
      "increaseAllowance(address,uint256)": {
        "details": "Atomically increases the allowance granted to `spender` by the caller. This is an alternative to {approve} that can be used as a mitigation for problems described in {IERC20-approve}. Emits an {Approval} event indicating the updated allowance. Requirements: - `spender` cannot be the zero address."
      },
      "name()": {
        "details": "Returns the name of the token."
      },
      "renounceRole(bytes32,address)": {
        "details": "Overload {renounceRole} to track enumerable memberships"
      },
      "revokeRole(bytes32,address)": {
        "details": "Overload {revokeRole} to track enumerable memberships"
      },
      "supportsInterface(bytes4)": {
        "details": "See {IERC165-supportsInterface}."
      },
      "symbol()": {
        "details": "Returns the symbol of the token, usually a shorter version of the name."
      },
      "totalSupply()": {
        "details": "See {IERC20-totalSupply}."
      },
      "transfer(address,uint256)": {
        "details": "See {IERC20-transfer}. Requirements: - `recipient` cannot be the zero address. - the caller must have a balance of at least `amount`."
      },
      "transferFrom(address,address,uint256)": {
        "details": "See {IERC20-transferFrom}. Emits an {Approval} event indicating the updated allowance. This is not required by the EIP. See the note at the beginning of {ERC20}. Requirements: - `sender` and `recipient` cannot be the zero address. - `sender` must have a balance of at least `amount`. - the caller must have allowance for ``sender``'s tokens of at least `amount`."
      }
    },
    "version": 1
  },
  "userdoc": {
    "kind": "user",
    "methods": {},
    "version": 1
  }
}