{
  "contractName": "GridCore",
  "abi": [
    {
      "anonymous": false,
      "inputs": [
        {
          "indexed": true,
          "internalType": "bytes32",
          "name": "role",
          "type": "bytes32"
        },
        {
          "indexed": true,
          "internalType": "bytes32",
          "name": "previousAdminRole",
          "type": "bytes32"
        },
        {
          "indexed": true,
          "internalType": "bytes32",
          "name": "newAdminRole",
          "type": "bytes32"
        }
      ],
      "name": "RoleAdminChanged",
      "type": "event"
    },
    {
      "anonymous": false,
      "inputs": [
        {
          "indexed": true,
          "internalType": "bytes32",
          "name": "role",
          "type": "bytes32"
        },
        {
          "indexed": true,
          "internalType": "address",
          "name": "account",
          "type": "address"
        },
        {
          "indexed": true,
          "internalType": "address",
          "name": "sender",
          "type": "address"
        }
      ],
      "name": "RoleGranted",
      "type": "event"
    },
    {
      "anonymous": false,
      "inputs": [
        {
          "indexed": true,
          "internalType": "bytes32",
          "name": "role",
          "type": "bytes32"
        },
        {
          "indexed": true,
          "internalType": "address",
          "name": "account",
          "type": "address"
        },
        {
          "indexed": true,
          "internalType": "address",
          "name": "sender",
          "type": "address"
        }
      ],
      "name": "RoleRevoked",
      "type": "event"
    },
    {
      "anonymous": false,
      "inputs": [
        {
          "indexed": true,
          "internalType": "uint256",
          "name": "cellId",
          "type": "uint256"
        },
        {
          "indexed": true,
          "internalType": "address",
          "name": "owner",
          "type": "address"
        },
        {
          "indexed": false,
          "internalType": "uint256",
          "name": "tokensClaimed",
          "type": "uint256"
        },
        {
          "indexed": false,
          "internalType": "uint64",
          "name": "timestamp",
          "type": "uint64"
        }
      ],
      "name": "TokensClaimed",
      "type": "event"
    },
    {
      "anonymous": false,
      "inputs": [
        {
          "indexed": true,
          "internalType": "uint256",
          "name": "teamId",
          "type": "uint256"
        },
        {
          "indexed": false,
          "internalType": "uint8",
          "name": "ranking",
          "type": "uint8"
        },
        {
          "indexed": false,
          "internalType": "uint256",
          "name": "tokensEarned",
          "type": "uint256"
        },
        {
          "indexed": false,
          "internalType": "uint256",
          "name": "tokensEarnedPerStake",
          "type": "uint256"
        },
        {
          "indexed": false,
          "internalType": "uint64",
          "name": "timestamp",
          "type": "uint64"
        }
      ],
      "name": "TokensMined",
      "type": "event"
    },
    {
      "inputs": [],
      "name": "DEFAULT_ADMIN_ROLE",
      "outputs": [
        {
          "internalType": "bytes32",
          "name": "",
          "type": "bytes32"
        }
      ],
      "stateMutability": "view",
      "type": "function",
      "constant": true
    },
    {
      "inputs": [],
      "name": "ROLE_OPERATOR",
      "outputs": [
        {
          "internalType": "bytes32",
          "name": "",
          "type": "bytes32"
        }
      ],
      "stateMutability": "view",
      "type": "function",
      "constant": true
    },
    {
      "inputs": [],
      "name": "ROLE_OWNER",
      "outputs": [
        {
          "internalType": "bytes32",
          "name": "",
          "type": "bytes32"
        }
      ],
      "stateMutability": "view",
      "type": "function",
      "constant": true
    },
    {
      "inputs": [],
      "name": "bscgridPercentage",
      "outputs": [
        {
          "internalType": "uint256",
          "name": "",
          "type": "uint256"
        }
      ],
      "stateMutability": "view",
      "type": "function",
      "constant": true
    },
    {
      "inputs": [],
      "name": "cellClockAuctionContract",
      "outputs": [
        {
          "internalType": "contract ICellClockAuction",
          "name": "",
          "type": "address"
        }
      ],
      "stateMutability": "view",
      "type": "function",
      "constant": true
    },
    {
      "inputs": [],
      "name": "cellContract",
      "outputs": [
        {
          "internalType": "contract IGridCell",
          "name": "",
          "type": "address"
        }
      ],
      "stateMutability": "view",
      "type": "function",
      "constant": true
    },
    {
      "inputs": [
        {
          "internalType": "uint256",
          "name": "_cellId",
          "type": "uint256"
        }
      ],
      "name": "claimGridTokens",
      "outputs": [
        {
          "internalType": "bool",
          "name": "",
          "type": "bool"
        }
      ],
      "stateMutability": "nonpayable",
      "type": "function"
    },
    {
      "inputs": [
        {
          "internalType": "uint256",
          "name": "_properties",
          "type": "uint256"
        },
        {
          "internalType": "uint8",
          "name": "_initialTeam",
          "type": "uint8"
        },
        {
          "internalType": "address",
          "name": "_owner",
          "type": "address"
        }
      ],
      "name": "createSpecialCell",
      "outputs": [
        {
          "internalType": "uint256",
          "name": "",
          "type": "uint256"
        }
      ],
      "stateMutability": "nonpayable",
      "type": "function"
    },
    {
      "inputs": [],
      "name": "discoverCell",
      "outputs": [],
      "stateMutability": "nonpayable",
      "type": "function"
    },
    {
      "inputs": [],
      "name": "discoveredCellMinPrice",
      "outputs": [
        {
          "internalType": "uint256",
          "name": "",
          "type": "uint256"
        }
      ],
      "stateMutability": "view",
      "type": "function",
      "constant": true
    },
    {
      "inputs": [],
      "name": "financeAccount",
      "outputs": [
        {
          "internalType": "address payable",
          "name": "",
          "type": "address"
        }
      ],
      "stateMutability": "view",
      "type": "function",
      "constant": true
    },
    {
      "inputs": [
        {
          "internalType": "uint256",
          "name": "_cellId",
          "type": "uint256"
        }
      ],
      "name": "getCellData",
      "outputs": [
        {
          "internalType": "int32[2]",
          "name": "coordinates",
          "type": "int32[2]"
        },
        {
          "internalType": "address",
          "name": "owner",
          "type": "address"
        },
        {
          "internalType": "uint8",
          "name": "team",
          "type": "uint8"
        },
        {
          "internalType": "uint8",
          "name": "grade",
          "type": "uint8"
        },
        {
          "internalType": "uint8",
          "name": "stake",
          "type": "uint8"
        }
      ],
      "stateMutability": "view",
      "type": "function",
      "constant": true
    },
    {
      "inputs": [
        {
          "internalType": "uint256",
          "name": "_cellId",
          "type": "uint256"
        }
      ],
      "name": "getClaimableGridTokens",
      "outputs": [
        {
          "internalType": "uint256",
          "name": "",
          "type": "uint256"
        }
      ],
      "stateMutability": "view",
      "type": "function",
      "constant": true
    },
    {
      "inputs": [
        {
          "internalType": "bytes32",
          "name": "role",
          "type": "bytes32"
        }
      ],
      "name": "getRoleAdmin",
      "outputs": [
        {
          "internalType": "bytes32",
          "name": "",
          "type": "bytes32"
        }
      ],
      "stateMutability": "view",
      "type": "function",
      "constant": true
    },
    {
      "inputs": [
        {
          "internalType": "bytes32",
          "name": "role",
          "type": "bytes32"
        },
        {
          "internalType": "uint256",
          "name": "index",
          "type": "uint256"
        }
      ],
      "name": "getRoleMember",
      "outputs": [
        {
          "internalType": "address",
          "name": "",
          "type": "address"
        }
      ],
      "stateMutability": "view",
      "type": "function",
      "constant": true
    },
    {
      "inputs": [
        {
          "internalType": "bytes32",
          "name": "role",
          "type": "bytes32"
        }
      ],
      "name": "getRoleMemberCount",
      "outputs": [
        {
          "internalType": "uint256",
          "name": "",
          "type": "uint256"
        }
      ],
      "stateMutability": "view",
      "type": "function",
      "constant": true
    },
    {
      "inputs": [
        {
          "internalType": "bytes32",
          "name": "role",
          "type": "bytes32"
        },
        {
          "internalType": "address",
          "name": "account",
          "type": "address"
        }
      ],
      "name": "grantRole",
      "outputs": [],
      "stateMutability": "nonpayable",
      "type": "function"
    },
    {
      "inputs": [],
      "name": "gridTokenContract",
      "outputs": [
        {
          "internalType": "contract IGridToken",
          "name": "",
          "type": "address"
        }
      ],
      "stateMutability": "view",
      "type": "function",
      "constant": true
    },
    {
      "inputs": [
        {
          "internalType": "bytes32",
          "name": "role",
          "type": "bytes32"
        },
        {
          "internalType": "address",
          "name": "account",
          "type": "address"
        }
      ],
      "name": "hasRole",
      "outputs": [
        {
          "internalType": "bool",
          "name": "",
          "type": "bool"
        }
      ],
      "stateMutability": "view",
      "type": "function",
      "constant": true
    },
    {
      "inputs": [
        {
          "internalType": "uint8[8]",
          "name": "_sortedTeamOrder",
          "type": "uint8[8]"
        }
      ],
      "name": "mineGridTokens",
      "outputs": [],
      "stateMutability": "nonpayable",
      "type": "function"
    },
    {
      "inputs": [
        {
          "internalType": "uint256",
          "name": "",
          "type": "uint256"
        }
      ],
      "name": "miningDistribution",
      "outputs": [
        {
          "internalType": "uint16",
          "name": "",
          "type": "uint16"
        }
      ],
      "stateMutability": "view",
      "type": "function",
      "constant": true
    },
    {
      "inputs": [
        {
          "internalType": "address",
          "name": "",
          "type": "address"
        },
        {
          "internalType": "address",
          "name": "",
          "type": "address"
        },
        {
          "internalType": "uint256",
          "name": "",
          "type": "uint256"
        },
        {
          "internalType": "bytes",
          "name": "",
          "type": "bytes"
        }
      ],
      "name": "onERC721Received",
      "outputs": [
        {
          "internalType": "bytes4",
          "name": "",
          "type": "bytes4"
        }
      ],
      "stateMutability": "nonpayable",
      "type": "function"
    },
    {
      "inputs": [
        {
          "internalType": "bytes32",
          "name": "role",
          "type": "bytes32"
        },
        {
          "internalType": "address",
          "name": "account",
          "type": "address"
        }
      ],
      "name": "renounceRole",
      "outputs": [],
      "stateMutability": "nonpayable",
      "type": "function"
    },
    {
      "inputs": [],
      "name": "retrieveFunds",
      "outputs": [],
      "stateMutability": "nonpayable",
      "type": "function"
    },
    {
      "inputs": [
        {
          "internalType": "bytes32",
          "name": "role",
          "type": "bytes32"
        },
        {
          "internalType": "address",
          "name": "account",
          "type": "address"
        }
      ],
      "name": "revokeRole",
      "outputs": [],
      "stateMutability": "nonpayable",
      "type": "function"
    },
    {
      "inputs": [
        {
          "internalType": "address",
          "name": "_address",
          "type": "address"
        }
      ],
      "name": "setCellClockAuctionContractAddress",
      "outputs": [],
      "stateMutability": "nonpayable",
      "type": "function"
    },
    {
      "inputs": [
        {
          "internalType": "address",
          "name": "_address",
          "type": "address"
        }
      ],
      "name": "setCellContractAddress",
      "outputs": [],
      "stateMutability": "nonpayable",
      "type": "function"
    },
    {
      "inputs": [
        {
          "internalType": "address payable",
          "name": "_address",
          "type": "address"
        }
      ],
      "name": "setFinanceAccount",
      "outputs": [],
      "stateMutability": "nonpayable",
      "type": "function"
    },
    {
      "inputs": [
        {
          "internalType": "address",
          "name": "_address",
          "type": "address"
        }
      ],
      "name": "setGridTokenContractAddress",
      "outputs": [],
      "stateMutability": "nonpayable",
      "type": "function"
    },
    {
      "inputs": [
        {
          "internalType": "bytes4",
          "name": "interfaceId",
          "type": "bytes4"
        }
      ],
      "name": "supportsInterface",
      "outputs": [
        {
          "internalType": "bool",
          "name": "",
          "type": "bool"
        }
      ],
      "stateMutability": "view",
      "type": "function",
      "constant": true
    },
    {
      "stateMutability": "payable",
      "type": "receive",
      "payable": true
    },
    {
      "inputs": [],
      "name": "getGridTokenCirculatingSupply",
      "outputs": [
        {
          "internalType": "uint256",
          "name": "_circulatingAmount",
          "type": "uint256"
        }
      ],
      "stateMutability": "view",
      "type": "function",
      "constant": true
    },
    {
      "inputs": [
        {
          "internalType": "uint256",
          "name": "_cellId",
          "type": "uint256"
        },
        {
          "internalType": "uint8",
          "name": "_newTeam",
          "type": "uint8"
        }
      ],
      "name": "setTeam",
      "outputs": [],
      "stateMutability": "nonpayable",
      "type": "function"
    }
  ],
  "bytecode": "0x608060405267016345785d8a00006002553480156200001d57600080fd5b506200004a7f9f4e1c871d5fdd0aee1cd182666698a4492b24c6832aac230d07b11046af5a8933620000d0565b62000057600033620000d0565b600580546001600160a01b031916331790556103e8600881815560408051610100810182526107d081526106406020820152610578918101919091526104b06060820152608081019290925261032060a083015261025860c083015261019060e0830152620000c99160069162000261565b5062000315565b620000e782826200011360201b620022fe1760201c565b60008281526001602090815260409091206200010e9183906200230c62000123821b17901c565b505050565b6200011f828262000143565b5050565b60006200013a836001600160a01b038416620001cd565b90505b92915050565b6200014f82826200021c565b6200011f576000828152602081815260408083206001600160a01b03851684529091529020805460ff191660011790556200018962000245565b6001600160a01b0316816001600160a01b0316837f2f8788117e7eff1d82e926ec794901d17c78024a50270940304540a733656f0d60405160405180910390a45050565b6000620001db838362000249565b62000213575081546001818101845560008481526020808220909301849055845484825282860190935260409020919091556200013d565b5060006200013d565b6000918252602082815260408084206001600160a01b0393909316845291905290205460ff1690565b3390565b60009081526001919091016020526040902054151590565b600183019183908215620002ec5791602002820160005b83821115620002ba57835183826101000a81548161ffff021916908361ffff160217905550926020019260020160208160010104928301926001030262000278565b8015620002ea5782816101000a81549061ffff0219169055600201602081600101049283019260010302620002ba565b505b50620002fa929150620002fe565b5090565b5b80821115620002fa5760008155600101620002ff565b6136a380620003256000396000f3fe6080604052600436106101e75760003560e01c80639010d07c11610102578063d40a7a0911610095578063e12f89cf11610064578063e12f89cf146105be578063e6de8ac4146105d3578063e8e362c4146105e8578063ea5d7dee146105fd57610236565b8063d40a7a0914610549578063d547741f1461055e578063dddc9dae1461057e578063e06e63a81461059e57610236565b8063a217fddf116100d1578063a217fddf146104d4578063ad152cb4146104e9578063b65c474d14610509578063ca15c8731461052957610236565b80639010d07c1461045257806391d148541461047257806395f44eb31461049257806398a1b397146104bf57610236565b80632f5c81b51161017a5780637999f1b8116101495780637999f1b8146103e8578063804578fc1461040857806386fc9ae7146104285780638ad682af1461043d57610236565b80632f5c81b51461036257806336568abe1461038257806361b20d8c146103a25780636e42a03f146103b757610236565b8063248a9ca3116101b6578063248a9ca3146102e05780632c153db51461030d5780632d5d0caf146103225780632f2ff15d1461034257610236565b806301ffc9a71461023b578063150b7a021461027157806316c180291461029e5780631c9c526a146102c057610236565b36610236576004546001600160a01b031633148061020f57506007546001600160a01b031633145b6102345760405162461bcd60e51b815260040161022b906131a8565b60405180910390fd5b005b600080fd5b34801561024757600080fd5b5061025b610256366004612cd8565b610612565b6040516102689190612fca565b60405180910390f35b34801561027d57600080fd5b5061029161028c366004612adb565b61063f565b6040516102689190612ff5565b3480156102aa57600080fd5b506102b361064f565b6040516102689190612f1a565b3480156102cc57600080fd5b506102346102db366004612aa3565b61065e565b3480156102ec57600080fd5b506103006102fb366004612c70565b610743565b6040516102689190612fd5565b34801561031957600080fd5b50610300610758565b34801561032e57600080fd5b5061023461033d366004612aa3565b61075e565b34801561034e57600080fd5b5061023461035d366004612c88565b61079c565b34801561036e57600080fd5b5061025b61037d366004612c70565b6107c3565b34801561038e57600080fd5b5061023461039d366004612c88565b610bfd565b3480156103ae57600080fd5b50610234610c1f565b3480156103c357600080fd5b506103d76103d2366004612c70565b610c74565b604051610268959493929190612f47565b3480156103f457600080fd5b50610300610403366004612c70565b610e47565b34801561041457600080fd5b50610300610423366004612e11565b611114565b34801561043457600080fd5b506103006111ea565b34801561044957600080fd5b50610300611345565b34801561045e57600080fd5b506102b361046d366004612cb7565b611357565b34801561047e57600080fd5b5061025b61048d366004612c88565b611378565b34801561049e57600080fd5b506104b26104ad366004612c70565b6113a1565b60405161026891906133c0565b3480156104cb57600080fd5b506103006113cf565b3480156104e057600080fd5b506103006113e1565b3480156104f557600080fd5b50610234610504366004612aa3565b6113e6565b34801561051557600080fd5b50610234610524366004612be9565b6114c6565b34801561053557600080fd5b50610300610544366004612c70565b611d15565b34801561055557600080fd5b506102b3611d2c565b34801561056a57600080fd5b50610234610579366004612c88565b611d3b565b34801561058a57600080fd5b50610234610599366004612aa3565b611d45565b3480156105aa57600080fd5b506102346105b9366004612ded565b611e25565b3480156105ca57600080fd5b506102b3611f6b565b3480156105df57600080fd5b50610300611f7a565b3480156105f457600080fd5b506102b3611f80565b34801561060957600080fd5b50610234611f8f565b60006001600160e01b03198216635a05180f60e01b1480610637575061063782612321565b90505b919050565b630a85bd0160e11b949350505050565b6004546001600160a01b031681565b60008051602061362e83398151915261067e81610679612346565b61234a565b6040516301ffc9a760e01b815282906001600160a01b038216906301ffc9a7906106b390631cac75e160e11b90600401612ff5565b60206040518083038186803b1580156106cb57600080fd5b505afa1580156106df573d6000803e3d6000fd5b505050506040513d601f19601f820116820180604052508101906107039190612c50565b61071f5760405162461bcd60e51b815260040161022b906130b4565b600780546001600160a01b0319166001600160a01b03929092169190911790555050565b60009081526020819052604090206001015490565b60085481565b60008051602061362e83398151915261077981610679612346565b50600580546001600160a01b0319166001600160a01b0392909216919091179055565b6107a682826123ae565b60008281526001602052604090206107be908261230c565b505050565b6007546000906001600160a01b03166107ee5760405162461bcd60e51b815260040161022b9061322e565b6003546001600160a01b03166108165760405162461bcd60e51b815260040161022b906131f7565b600080600061082485610c74565b600354604051632474521560e21b81529498509296509450506001600160a01b0316915081906391d1485490610880907ffa3c82c7c654e0505de0c01ba5109972451a2e7ffba1730c54ba78780f642622908890600401612fde565b60206040518083038186803b15801561089857600080fd5b505afa1580156108ac573d6000803e3d6000fd5b505050506040513d601f19601f820116820180604052508101906108d09190612c50565b806109745750604051632474521560e21b81526001600160a01b038216906391d1485490610924907fcec7a5448ae2e4d95a5b7da50fd728f829dc4af9acdc7ca694b2bc596fddcbaf908890600401612fde565b60206040518083038186803b15801561093c57600080fd5b505afa158015610950573d6000803e3d6000fd5b505050506040513d601f19601f820116820180604052508101906109749190612c50565b1561098657600094505050505061063a565b60035460405163463ead8160e01b81526000916001600160a01b03169063463ead81906109b7908790600401613446565b604080518083038186803b1580156109ce57600080fd5b505afa1580156109e2573d6000803e3d6000fd5b505050506040513d601f19601f82011682018060405250810190610a069190612dca565b60035460405163020e42d360e41b8152919350600092506001600160a01b0316906320e42d3090610a3b908b90600401612fd5565b60206040518083038186803b158015610a5357600080fd5b505afa158015610a67573d6000803e3d6000fd5b505050506040513d601f19601f82011682018060405250810190610a8b9190612d00565b90506000610a99828461351b565b90506000610aaa60ff8716836134fc565b905080610ac25760009850505050505050505061063a565b600354604051630d4dd4af60e01b81526001600160a01b0390911690630d4dd4af90610af2908d90600401612fd5565b600060405180830381600087803b158015610b0c57600080fd5b505af1158015610b20573d6000803e3d6000fd5b50505050876001600160a01b03168a7fedc93e122a3836d5dc4fcbd229f86486d26f04d6e3ab6fb06a74e0676c9b56028342604051610b609291906133fb565b60405180910390a360075460405163a9059cbb60e01b81526001600160a01b039091169063a9059cbb90610b9a908b908590600401612f2e565b602060405180830381600087803b158015610bb457600080fd5b505af1158015610bc8573d6000803e3d6000fd5b505050506040513d601f19601f82011682018060405250810190610bec9190612c50565b5060019a9950505050505050505050565b610c0782826123cd565b60008281526001602052604090206107be908261240f565b60008051602061364e833981519152610c3a81610679612346565b60055460405147916001600160a01b03169082156108fc029083906000818181858888f193505050501580156107be573d6000803e3d6000fd5b610c7c612a15565b6003546000908190819081906001600160a01b0316610cad5760405162461bcd60e51b815260040161022b906131f7565b600354604051631034247b60e11b81526000916001600160a01b03169063206848f690610cde908a90600401612fd5565b60c06040518083038186803b158015610cf657600080fd5b505afa158015610d0a573d6000803e3d6000fd5b505050506040513d601f19601f82011682018060405250810190610d2e9190612d18565b60035460405163a727854960e01b8152959c50939a509850965092506001600160a01b03169063a727854990610d6a908a908590600401612f0c565b60206040518083038186803b158015610d8257600080fd5b505afa158015610d96573d6000803e3d6000fd5b505050506040513d601f19601f82011682018060405250810190610dba9190612e52565b600354604051637bbe0db760e01b81529194506001600160a01b031690637bbe0db790610deb908690600401613446565b60206040518083038186803b158015610e0357600080fd5b505afa158015610e17573d6000803e3d6000fd5b505050506040513d601f19601f82011682018060405250810190610e3b9190612e52565b91505091939590929450565b6003546000906001600160a01b0316610e725760405162461bcd60e51b815260040161022b906131f7565b6000806000610e8085610c74565b600354604051632474521560e21b81529498509296509450506001600160a01b0316915081906391d1485490610edc907ffa3c82c7c654e0505de0c01ba5109972451a2e7ffba1730c54ba78780f642622908890600401612fde565b60206040518083038186803b158015610ef457600080fd5b505afa158015610f08573d6000803e3d6000fd5b505050506040513d601f19601f82011682018060405250810190610f2c9190612c50565b80610fd05750604051632474521560e21b81526001600160a01b038216906391d1485490610f80907fcec7a5448ae2e4d95a5b7da50fd728f829dc4af9acdc7ca694b2bc596fddcbaf908890600401612fde565b60206040518083038186803b158015610f9857600080fd5b505afa158015610fac573d6000803e3d6000fd5b505050506040513d601f19601f82011682018060405250810190610fd09190612c50565b15610fe257600094505050505061063a565b60035460405163463ead8160e01b81526000916001600160a01b03169063463ead8190611013908790600401613446565b604080518083038186803b15801561102a57600080fd5b505afa15801561103e573d6000803e3d6000fd5b505050506040513d601f19601f820116820180604052508101906110629190612dca565b60035460405163020e42d360e41b8152919350600092506001600160a01b0316906320e42d3090611097908b90600401612fd5565b60206040518083038186803b1580156110af57600080fd5b505afa1580156110c3573d6000803e3d6000fd5b505050506040513d601f19601f820116820180604052508101906110e79190612d00565b905060006110f5828461351b565b9050600061110660ff8716836134fc565b9a9950505050505050505050565b600060008051602061364e83398151915261113181610679612346565b6003546001600160a01b03166111595760405162461bcd60e51b815260040161022b906131f7565b60035460405163b408b35560e01b81526000916001600160a01b03169063b408b3559061118e90899089908990600401613424565b602060405180830381600087803b1580156111a857600080fd5b505af11580156111bc573d6000803e3d6000fd5b505050506040513d601f19601f820116820180604052508101906111e09190612d00565b9695505050505050565b6007546000906001600160a01b03166112155760405162461bcd60e51b815260040161022b9061322e565b600760009054906101000a90046001600160a01b03166001600160a01b0316632b112e496040518163ffffffff1660e01b815260040160206040518083038186803b15801561126357600080fd5b505afa158015611277573d6000803e3d6000fd5b505050506040513d601f19601f8201168201806040525081019061129b9190612d00565b6007546040516370a0823160e01b81529192506000916001600160a01b03909116906370a08231906112d1903090600401612f1a565b60206040518083038186803b1580156112e957600080fd5b505afa1580156112fd573d6000803e3d6000fd5b505050506040513d601f19601f820116820180604052508101906113219190612d00565b90508082111561133c57611335818361351b565b9150611341565b600091505b5090565b60008051602061362e83398151915281565b600082815260016020526040812061136f9083612424565b90505b92915050565b6000918252602082815260408084206001600160a01b0393909316845291905290205460ff1690565b600681600881106113b157600080fd5b60109182820401919006600202915054906101000a900461ffff1681565b60008051602061364e83398151915281565b600081565b60008051602061362e83398151915261140181610679612346565b6040516301ffc9a760e01b815282906001600160a01b038216906301ffc9a790611436906347b4a94d60e01b90600401612ff5565b60206040518083038186803b15801561144e57600080fd5b505afa158015611462573d6000803e3d6000fd5b505050506040513d601f19601f820116820180604052508101906114869190612c50565b6114a25760405162461bcd60e51b815260040161022b906130f5565b600380546001600160a01b0319166001600160a01b03929092169190911790555050565b60008051602061364e8339815191526114e181610679612346565b6007546001600160a01b03166115095760405162461bcd60e51b815260040161022b9061322e565b6003546001600160a01b03166115315760405162461bcd60e51b815260040161022b906131f7565b6003546040805163e70b84a960e01b815290516000926001600160a01b03169163e70b84a991600480830192610100929190829003018186803b15801561157757600080fd5b505afa15801561158b573d6000803e3d6000fd5b505050506040513d601f19601f820116820180604052508101906115af9190612b97565b9050600080600360009054906101000a90046001600160a01b03166001600160a01b0316630588f7e96040518163ffffffff1660e01b81526004016102006040518083038186803b15801561160357600080fd5b505afa158015611617573d6000803e3d6000fd5b505050506040513d601f19601f8201168201806040525081019061163b9190612bb3565b60208701519193509150839060ff166008811061166857634e487b7160e01b600052603260045260246000fd5b60200201518551849060ff166008811061169257634e487b7160e01b600052603260045260246000fd5b6020020151101580156116ff57506040850151839060ff16600881106116c857634e487b7160e01b600052603260045260246000fd5b602002015183866001602002015160ff16600881106116f757634e487b7160e01b600052603260045260246000fd5b602002015110155b801561176357506060850151839060ff166008811061172e57634e487b7160e01b600052603260045260246000fd5b60200201516040860151849060ff166008811061175b57634e487b7160e01b600052603260045260246000fd5b602002015110155b80156117c757506080850151839060ff166008811061179257634e487b7160e01b600052603260045260246000fd5b60200201516060860151849060ff16600881106117bf57634e487b7160e01b600052603260045260246000fd5b602002015110155b801561182b575060a0850151839060ff16600881106117f657634e487b7160e01b600052603260045260246000fd5b60200201516080860151849060ff166008811061182357634e487b7160e01b600052603260045260246000fd5b602002015110155b801561188f575060c0850151839060ff166008811061185a57634e487b7160e01b600052603260045260246000fd5b602002015160a0860151849060ff166008811061188757634e487b7160e01b600052603260045260246000fd5b602002015110155b80156118f3575060e0850151839060ff16600881106118be57634e487b7160e01b600052603260045260246000fd5b602002015160c0860151849060ff16600881106118eb57634e487b7160e01b600052603260045260246000fd5b602002015110155b61190f5760405162461bcd60e51b815260040161022b9061312a565b60075460408051631249c58b60e01b815290516000926001600160a01b031691631249c58b91600480830192602092919082900301818787803b15801561195557600080fd5b505af1158015611969573d6000803e3d6000fd5b505050506040513d601f19601f8201168201806040525081019061198d9190612d00565b90506000612710600854836119a291906134fc565b6119ac91906134e8565b905060006119ba828461351b565b905060005b60088160ff161015611c1c576000878a8360ff16600881106119f157634e487b7160e01b600052603260045260246000fd5b602002015160ff1660088110611a1757634e487b7160e01b600052603260045260246000fd5b602002015111611a2657611c0a565b600061271060068360ff1660088110611a4f57634e487b7160e01b600052603260045260246000fd5b601091828204019190066002029054906101000a900461ffff1661ffff1684611a7891906134fc565b611a8291906134e8565b905080878b8460ff1660088110611aa957634e487b7160e01b600052603260045260246000fd5b602002015160ff1660088110611acf57634e487b7160e01b600052603260045260246000fd5b60200201818151611ae091906134d0565b9052506000888b60ff851660088110611b0957634e487b7160e01b600052603260045260246000fd5b602002015160ff1660088110611b2f57634e487b7160e01b600052603260045260246000fd5b6020020151611b3e90836134e8565b905080878c8560ff1660088110611b6557634e487b7160e01b600052603260045260246000fd5b602002015160ff1660088110611b8b57634e487b7160e01b600052603260045260246000fd5b60200201818151611b9c91906134d0565b9052508a60ff841660088110611bc257634e487b7160e01b600052603260045260246000fd5b602002015160ff167fb50b5286efed198de416f59acee1cea46585ef98c9ece6e5abb728e99ea44ca484848442604051611bff9493929190613454565b60405180910390a250505b80611c1481613590565b9150506119bf565b50600354604051630767c6ab60e31b81526001600160a01b0390911690633b3e355890611c4f9088908890600401612fa6565b600060405180830381600087803b158015611c6957600080fd5b505af1158015611c7d573d6000803e3d6000fd5b505060075460055460405163a9059cbb60e01b81526001600160a01b03928316945063a9059cbb9350611cb892909116908690600401612f2e565b602060405180830381600087803b158015611cd257600080fd5b505af1158015611ce6573d6000803e3d6000fd5b505050506040513d601f19601f82011682018060405250810190611d0a9190612c50565b505050505050505050565b600081815260016020526040812061063790612430565b6003546001600160a01b031681565b610c07828261243b565b60008051602061362e833981519152611d6081610679612346565b6040516301ffc9a760e01b815282906001600160a01b038216906301ffc9a790611d959063025be4f960e51b90600401612ff5565b60206040518083038186803b158015611dad57600080fd5b505afa158015611dc1573d6000803e3d6000fd5b505050506040513d601f19601f82011682018060405250810190611de59190612c50565b611e015760405162461bcd60e51b815260040161022b906132e2565b600480546001600160a01b0319166001600160a01b03929092169190911790555050565b6003546001600160a01b0316611e4d5760405162461bcd60e51b815260040161022b906131f7565b6003546040516331a9108f60e11b81526000916001600160a01b031690636352211e90611e7e908690600401612fd5565b60206040518083038186803b158015611e9657600080fd5b505afa158015611eaa573d6000803e3d6000fd5b505050506040513d601f19601f82011682018060405250810190611ece9190612abf565b9050336001600160a01b03821614611ef85760405162461bcd60e51b815260040161022b9061332a565b611f01836107c3565b50600354604051631c0dcc7560e31b81526001600160a01b039091169063e06e63a890611f349086908690600401613413565b600060405180830381600087803b158015611f4e57600080fd5b505af1158015611f62573d6000803e3d6000fd5b50505050505050565b6005546001600160a01b031681565b60025481565b6007546001600160a01b031681565b60008051602061364e833981519152611faa81610679612346565b6003546001600160a01b0316611fd25760405162461bcd60e51b815260040161022b906131f7565b6004546001600160a01b0316611ffa5760405162461bcd60e51b815260040161022b90613299565b600354604080516318160ddd60e01b815290516000926001600160a01b0316916318160ddd916004808301926020929190829003018186803b15801561203f57600080fd5b505afa158015612053573d6000803e3d6000fd5b505050506040513d601f19601f820116820180604052508101906120779190612d00565b9050600060084283604051602001612090929190612f0c565b6040516020818303038152906040528051906020012060001c6120b391906135b0565b60035460405163b408b35560e01b81529192506000916001600160a01b039091169063b408b355906120ed90849086903090600401613424565b602060405180830381600087803b15801561210757600080fd5b505af115801561211b573d6000803e3d6000fd5b505050506040513d601f19601f8201168201806040525081019061213f9190612d00565b90508261214b81613575565b93505060008060e185111561216e5761216261245a565b915060025490506121f6565b8460011415612187576703782dace9d9000091506121f3565b6009851161219f57674563918244f4000091506121f3565b601985116121b7576729a2241af62c000091506121f3565b603185116121cf576714d1120d7b16000091506121f3565b605185116121e757670a688906bd8b000091506121f3565b6706f05b59d3b2000091505b50805b6003546004805460405163095ea7b360e01b81526001600160a01b039384169363095ea7b39361222c9390911691889101612f2e565b600060405180830381600087803b15801561224657600080fd5b505af115801561225a573d6000803e3d6000fd5b5050505060008211801561226e5750600081115b61228a5760405162461bcd60e51b815260040161022b90613178565b600480546040516313f5f20560e11b81526001600160a01b03909116916327ebe40a916122c49187918791879162093a80913091016133cf565b600060405180830381600087803b1580156122de57600080fd5b505af11580156122f2573d6000803e3d6000fd5b50505050505050505050565b612308828261256c565b5050565b600061136f836001600160a01b0384166125f1565b60006001600160e01b03198216637965db0b60e01b148061063757506106378261263b565b3390565b6123548282611378565b6123085761236c816001600160a01b03166014612654565b612377836020612654565b604051602001612388929190612e97565b60408051601f198184030181529082905262461bcd60e51b825261022b9160040161300a565b6123b782610743565b6123c381610679612346565b6107be838361256c565b6123d5612346565b6001600160a01b0316816001600160a01b0316146124055760405162461bcd60e51b815260040161022b90613371565b6123088282612806565b600061136f836001600160a01b038416612889565b600061136f83836129a0565b6000610637826129f9565b61244482610743565b61245081610679612346565b6107be8383612806565b6004546000906001600160a01b03166124855760405162461bcd60e51b815260040161022b90613299565b6000600460009054906101000a90046001600160a01b03166001600160a01b031663028880af6040518163ffffffff1660e01b815260040160206040518083038186803b1580156124d557600080fd5b505afa1580156124e9573d6000803e3d6000fd5b505050506040513d601f19601f8201168201806040525081019061250d9190612d00565b90506fffffffffffffffffffffffffffffffff811061253e5760405162461bcd60e51b815260040161022b90613270565b600061254b6002836134e8565b61255590836134d0565b905060025481101561256657506002545b91505090565b6125768282611378565b612308576000828152602081815260408083206001600160a01b03851684529091529020805460ff191660011790556125ad612346565b6001600160a01b0316816001600160a01b0316837f2f8788117e7eff1d82e926ec794901d17c78024a50270940304540a733656f0d60405160405180910390a45050565b60006125fd83836129fd565b61263357508154600181810184556000848152602080822090930184905584548482528286019093526040902091909155611372565b506000611372565b6001600160e01b031981166301ffc9a760e01b14919050565b606060006126638360026134fc565b61266e9060026134d0565b67ffffffffffffffff81111561269457634e487b7160e01b600052604160045260246000fd5b6040519080825280601f01601f1916602001820160405280156126be576020820181803683370190505b509050600360fc1b816000815181106126e757634e487b7160e01b600052603260045260246000fd5b60200101906001600160f81b031916908160001a905350600f60fb1b8160018151811061272457634e487b7160e01b600052603260045260246000fd5b60200101906001600160f81b031916908160001a90535060006127488460026134fc565b6127539060016134d0565b90505b60018111156127e7576f181899199a1a9b1b9c1cb0b131b232b360811b85600f166010811061279557634e487b7160e01b600052603260045260246000fd5b1a60f81b8282815181106127b957634e487b7160e01b600052603260045260246000fd5b60200101906001600160f81b031916908160001a90535060049490941c936127e08161355e565b9050612756565b50831561136f5760405162461bcd60e51b815260040161022b9061307f565b6128108282611378565b15612308576000828152602081815260408083206001600160a01b03851684529091529020805460ff19169055612845612346565b6001600160a01b0316816001600160a01b0316837ff6391f5c32d9c69d2a47ea670b442974b53935d1edc7fd64eb21e047a839171b60405160405180910390a45050565b600081815260018301602052604081205480156129965760006128ad60018361351b565b85549091506000906128c19060019061351b565b905060008660000182815481106128e857634e487b7160e01b600052603260045260246000fd5b906000526020600020015490508087600001848154811061291957634e487b7160e01b600052603260045260246000fd5b60009182526020808320909101929092558281526001890190915260409020849055865487908061295a57634e487b7160e01b600052603160045260246000fd5b60019003818190600052602060002001600090559055866001016000878152602001908152602001600020600090556001945050505050611372565b6000915050611372565b815460009082106129c35760405162461bcd60e51b815260040161022b9061303d565b8260000182815481106129e657634e487b7160e01b600052603260045260246000fd5b9060005260206000200154905092915050565b5490565b60009081526001919091016020526040902054151590565b60405180604001604052806002906020820280368337509192915050565b805161063a81613606565b600082601f830112612a4e578081fd5b610100612a5a8161347e565b8084868487011115612a6a578485fd5b8493505b6008841015612a8e57805183526001939093019260209283019201612a6e565b5095945050505050565b805161063a8161361e565b600060208284031215612ab4578081fd5b813561136f81613606565b600060208284031215612ad0578081fd5b815161136f81613606565b60008060008060808587031215612af0578283fd5b8435612afb81613606565b9350602085810135612b0c81613606565b935060408601359250606086013567ffffffffffffffff80821115612b2f578384fd5b818801915088601f830112612b42578384fd5b813581811115612b5457612b546135f0565b612b66601f8201601f1916850161347e565b91508082528984828501011115612b7b578485fd5b8084840185840137810190920192909252939692955090935050565b60006101008284031215612ba9578081fd5b61136f8383612a3e565b6000806102008385031215612bc6578182fd5b612bd08484612a3e565b9150612be0846101008501612a3e565b90509250929050565b6000610100808385031215612bfc578182fd5b83601f840112612c0a578182fd5b612c138161347e565b8084868487011115612c23578485fd5b8493505b6008841015612a8e578035612c3b8161361e565b83526001939093019260209283019201612c27565b600060208284031215612c61578081fd5b8151801515811461136f578182fd5b600060208284031215612c81578081fd5b5035919050565b60008060408385031215612c9a578182fd5b823591506020830135612cac81613606565b809150509250929050565b60008060408385031215612cc9578182fd5b50508035926020909101359150565b600060208284031215612ce9578081fd5b81356001600160e01b03198116811461136f578182fd5b600060208284031215612d11578081fd5b5051919050565b600080600080600060c08688031215612d2f578283fd5b85519450602087603f880112612d43578384fd5b6002612d56612d51826134af565b61347e565b80838a0160608b018c811115612d6a578889fd5b885b85811015612d965782518060030b8114612d84578a8bfd5b85529386019391860191600101612d6c565b5082995080519850505050505050612db060808701612a98565b9150612dbe60a08701612a33565b90509295509295909350565b60008060408385031215612ddc578182fd5b505080516020909101519092909150565b60008060408385031215612dff578182fd5b823591506020830135612cac8161361e565b600080600060608486031215612e25578081fd5b833592506020840135612e378161361e565b91506040840135612e4781613606565b809150509250925092565b600060208284031215612e63578081fd5b815161136f8161361e565b8060005b6008811015612e91578151845260209384019390910190600101612e72565b50505050565b60007f416363657373436f6e74726f6c3a206163636f756e742000000000000000000082528351612ecf816017850160208801613532565b7001034b99036b4b9b9b4b733903937b6329607d1b6017918401918201528351612f00816028840160208801613532565b01602801949350505050565b918252602082015260400190565b6001600160a01b0391909116815260200190565b6001600160a01b03929092168252602082015260400190565b60c08101818760005b6002811015612f7257815160030b835260209283019290910190600101612f50565b5050506001600160a01b0395909516604082015260ff9384166060820152918316608083015290911660a090910152919050565b6102008101612fb58285612e6e565b612fc3610100830184612e6e565b9392505050565b901515815260200190565b90815260200190565b9182526001600160a01b0316602082015260400190565b6001600160e01b031991909116815260200190565b6000602082528251806020840152613029816040850160208701613532565b601f01601f19169190910160400192915050565b60208082526022908201527f456e756d657261626c655365743a20696e646578206f7574206f6620626f756e604082015261647360f01b606082015260800190565b6020808252818101527f537472696e67733a20686578206c656e67746820696e73756666696369656e74604082015260600190565b60208082526021908201527f436f6e7472616374206973206e6f74206f6620747970652047726964546f6b656040820152603760f91b606082015260800190565b6020808252818101527f436f6e7472616374206973206e6f74206f662074797065204772696443656c6c604082015260600190565b6020808252602e908201527f536f72746564207465616d206f7264657220646f6573206e6f74206d6174636860408201526d206f6e2d636861696e206461746160901b606082015260800190565b602080825260169082015275496e76616c69642061756374696f6e2070726963657360501b604082015260600190565b6020808252602f908201527f596f752073686f756c64206e6f7420626520706179696e6720696e746f20746860408201526e194818dbdc994818dbdb9d1c9858dd608a1b606082015260800190565b6020808252601d908201527f63656c6c436f6e747261637420686173206e6f74206265656e20736574000000604082015260600190565b60208082526022908201527f67726964546f6b656e436f6e747261637420686173206e6f74206265656e2073604082015261195d60f21b606082015260800190565b6020808252600f908201526e507269636520697320696e73616e6560881b604082015260600190565b60208082526029908201527f63656c6c436c6f636b41756374696f6e436f6e747261637420686173206e6f74604082015268081899595b881cd95d60ba1b606082015260800190565b60208082526028908201527f436f6e7472616374206973206e6f74206f6620747970652043656c6c436c6f6360408201526735a0bab1ba34b7b760c11b606082015260800190565b60208082526027908201527f4f6e6c7920612043454c4c2773206f776e65722063616e206368616e676520696040820152667473207465616d60c81b606082015260800190565b6020808252602f908201527f416363657373436f6e74726f6c3a2063616e206f6e6c792072656e6f756e636560408201526e103937b632b9903337b91039b2b63360891b606082015260800190565b61ffff91909116815260200190565b9485526020850193909352604084019190915260608301526001600160a01b0316608082015260a00190565b91825267ffffffffffffffff16602082015260400190565b91825260ff16602082015260400190565b92835260ff9190911660208301526001600160a01b0316604082015260600190565b60ff91909116815260200190565b60ff9490941684526020840192909252604083015267ffffffffffffffff16606082015260800190565b604051601f8201601f1916810167ffffffffffffffff811182821017156134a7576134a76135f0565b604052919050565b600067ffffffffffffffff8211156134c9576134c96135f0565b5060200290565b600082198211156134e3576134e36135c4565b500190565b6000826134f7576134f76135da565b500490565b6000816000190483118215151615613516576135166135c4565b500290565b60008282101561352d5761352d6135c4565b500390565b60005b8381101561354d578181015183820152602001613535565b83811115612e915750506000910152565b60008161356d5761356d6135c4565b506000190190565b6000600019821415613589576135896135c4565b5060010190565b600060ff821660ff8114156135a7576135a76135c4565b60010192915050565b6000826135bf576135bf6135da565b500690565b634e487b7160e01b600052601160045260246000fd5b634e487b7160e01b600052601260045260246000fd5b634e487b7160e01b600052604160045260246000fd5b6001600160a01b038116811461361b57600080fd5b50565b60ff8116811461361b57600080fdfe9f4e1c871d5fdd0aee1cd182666698a4492b24c6832aac230d07b11046af5a89aa3edb77f7c8cc9e38e8afe78954f703aeeda7fffe014eeb6e56ea84e62f6da7a2646970667358221220b90a369e6fac7b3db779451e7aaed89188328a8704011f0283c2c5ff283fb7fa64736f6c63430008010033",
  "immutableReferences": {},
  "source": "// SPDX-License-Identifier: GPL-3.0-or-later\r\npragma solidity ^0.8.1;\r\n\r\nimport \"./CoreCellControls.sol\";\r\nimport \"./CoreGridMining.sol\";\r\nimport \"@openzeppelin/contracts/token/ERC721/utils/ERC721Holder.sol\";\r\n\r\ncontract GridCore is CoreGridMining, ERC721Holder {\r\n    /// @dev Calculate the number of circulating GRID tokens\r\n    /// The token contract calculates all minted tokens minus all sent to the burn address\r\n    /// Here we also subtract any minted but unclaimed tokens from that total\r\n    function getGridTokenCirculatingSupply() external view returns (uint256 _circulatingAmount) {\r\n        require(address(gridTokenContract) != address(0), \"gridTokenContract has not been set\");\r\n\r\n        _circulatingAmount = gridTokenContract.getCirculatingSupply();\r\n\r\n        uint256 _unclaimedSupply = gridTokenContract.balanceOf(address(this));\r\n\r\n        if (_circulatingAmount > _unclaimedSupply){\r\n            _circulatingAmount = _circulatingAmount - _unclaimedSupply;\r\n        } else {\r\n            _circulatingAmount = 0;\r\n        }\r\n\r\n        return _circulatingAmount;\r\n    }\r\n\r\n    /// @dev Create a new CELL token in the Grid, with specific properties\r\n    /// @param _cellId - ID of the CELL changing teams\r\n    /// @param _newTeam - ID of the CELL's new team\r\n    function setTeam(uint256 _cellId, uint8 _newTeam) external {\r\n        require(address(cellContract) != address(0), \"cellContract has not been set\");\r\n\r\n        address _owner = cellContract.ownerOf(_cellId);\r\n        require (msg.sender == _owner, \"Only a CELL's owner can change its team\");\r\n\r\n        //claim earned tokens before team change\r\n        claimGridTokens(_cellId);\r\n        \r\n        //now update the team\r\n        cellContract.setTeam(_cellId, _newTeam);\r\n    }\r\n\r\n    /// @dev Ensure payments can only be made from expected sources\r\n    receive() external payable {\r\n        require (\r\n            msg.sender == address(cellClockAuctionContract) ||\r\n            msg.sender == address(gridTokenContract), \r\n            \"You should not be paying into the core contract\"\r\n        );\r\n    }\r\n}",
  "sourcePath": "/home/luke/BSC-Grid/Solidity/contracts/GridCore.sol",
  "compiler": {
    "name": "solc",
    "version": "0.8.1+commit.df193b15.Emscripten.clang"
  },
  "schemaVersion": "3.3.3",
  "updatedAt": "2021-06-19T21:11:01.727Z",
  "networkType": "ethereum",
  "devdoc": {
    "kind": "dev",
    "methods": {
      "createSpecialCell(uint256,uint8,address)": {
        "details": "Create a new CELL token in the Grid, with specific properties This special cell may be immediately transferred to a specific owner This function should only be called very rarely (giveaway competitions etc.)",
        "params": {
          "_initialTeam": "- ID of the new CELL's team",
          "_owner": "- Address of the new CELL's owner",
          "_properties": "- A predefined properties string for the CELL"
        }
      },
      "discoverCell()": {
        "details": "'Discover' (create) a new CELL token (tile) on The Grid, spiraling outwards from [0,0] Discovered CELL tokens are immediately put up for auction The auction price decreases over 7 days, unless it was in the first 225 tiles, which have fixed prices"
      },
      "getCellData(uint256)": {
        "details": "Get the properties of a given Cell"
      },
      "getGridTokenCirculatingSupply()": {
        "details": "Calculate the number of circulating GRID tokens The token contract calculates all minted tokens minus all sent to the burn address Here we also subtract any minted but unclaimed tokens from that total"
      },
      "getRoleAdmin(bytes32)": {
        "details": "Returns the admin role that controls `role`. See {grantRole} and {revokeRole}. To change a role's admin, use {_setRoleAdmin}."
      },
      "getRoleMember(bytes32,uint256)": {
        "details": "Returns one of the accounts that have `role`. `index` must be a value between 0 and {getRoleMemberCount}, non-inclusive. Role bearers are not sorted in any particular way, and their ordering may change at any point. WARNING: When using {getRoleMember} and {getRoleMemberCount}, make sure you perform all queries on the same block. See the following https://forum.openzeppelin.com/t/iterating-over-elements-on-enumerableset-in-openzeppelin-contracts/2296[forum post] for more information."
      },
      "getRoleMemberCount(bytes32)": {
        "details": "Returns the number of accounts that have `role`. Can be used together with {getRoleMember} to enumerate all bearers of a role."
      },
      "grantRole(bytes32,address)": {
        "details": "Overload {grantRole} to track enumerable memberships"
      },
      "hasRole(bytes32,address)": {
        "details": "Returns `true` if `account` has been granted `role`."
      },
      "mineGridTokens(uint8[8])": {
        "details": "Mint new tokens and calculate distributions to each team based on their representation on the grid",
        "params": {
          "_sortedTeamOrder": "- The sorted array of teams based on their current grid representation ranking - arrays are sorted off-chain and passed as an input to avoid gas costs, - but are verified on chain to ensure data matches contract values (thus avoiding any manipulation) - team rankings changing between when order is calculated off and on chain will cause a revert"
        }
      },
      "onERC721Received(address,address,uint256,bytes)": {
        "details": "See {IERC721Receiver-onERC721Received}. Always returns `IERC721Receiver.onERC721Received.selector`."
      },
      "renounceRole(bytes32,address)": {
        "details": "Overload {renounceRole} to track enumerable memberships"
      },
      "retrieveFunds()": {
        "details": "Allows an operator to retrieve funds from the contract into the finance account"
      },
      "revokeRole(bytes32,address)": {
        "details": "Overload {revokeRole} to track enumerable memberships"
      },
      "setCellClockAuctionContractAddress(address)": {
        "details": "Sets the reference to the Cell clock auction contract",
        "params": {
          "_address": "- Address of the contract"
        }
      },
      "setCellContractAddress(address)": {
        "details": "Sets the reference to the CELL token contract",
        "params": {
          "_address": "- Address of the contract"
        }
      },
      "setFinanceAccount(address)": {
        "params": {
          "_address": "- Address to receive proceeds of auctions created by core contract"
        }
      },
      "setGridTokenContractAddress(address)": {
        "details": "Sets the reference to the GRID token contract",
        "params": {
          "_address": "- Address of the contract"
        }
      },
      "setTeam(uint256,uint8)": {
        "details": "Create a new CELL token in the Grid, with specific properties",
        "params": {
          "_cellId": "- ID of the CELL changing teams",
          "_newTeam": "- ID of the CELL's new team"
        }
      },
      "supportsInterface(bytes4)": {
        "details": "See {IERC165-supportsInterface}."
      }
    },
    "version": 1
  },
  "userdoc": {
    "kind": "user",
    "methods": {},
    "version": 1
  }
}